:020000040800F2
:10000000402900209D010008515E00089D4B00081A
:100010004D5E0008E90500080F70000800000000B0
:10002000000000000000000000000000FB6300086A
:1000300049060008000000008D5E0008FD6300080E
:10004000B7010008B7010008B7010008B7010008B0
:10005000B7010008B7010008B7010008B7010008A0
:10006000B7010008B7010008B7010008B701000890
:10007000B7010008B7010008B7010008B701000880
:10008000B7010008B7010008B7010008B701000870
:10009000B7010008B7010008B7010008B701000860
:1000A000B7010008B7010008B7010008B701000850
:1000B000B7010008B7010008B7010008D14B0008DC
:1000C000C14B0008F14B0008E14B0008B7010008E4
:1000D000B7010008B7010008B7010008B701000820
:1000E000B7010008B7010008B7010008B701000810
:1000F000B7010008B7010008B7010008B701000800
:10010000B7010008B7010008B7010008B7010008EF
:10011000B7010008B7010008B7010008B7010008DF
:1001200009060008B7010008B7010008B701000878
:10013000B7010008B7010008B7010008B7010008BF
:10014000B7010008B7010008B7010008B7010008AF
:10015000B7010008B7010008B7010008B70100089F
:10016000B7010008B701000891620008B701000854
:10017000B7010008B7010008B7010008000000003F
:10018000B7010008B7010008DFF80CD000F06CF8E8
:10019000004800477D740008402900200648804739
:1001A00006480047FEE7FEE7FEE7FEE7FEE7FEE75C
:1001B000FEE7FEE7FEE7FEE7FD64000889010008B0
:1001C0002DE9F05F0546002092469B46884606468C
:1001D000814640241BE0284641464746224600F01F
:1001E00032F853465A46C01A914110D31146184668
:1001F000224600F019F82D1A67EB01084F462246F7
:100200000120002100F010F817EB00094E41201EDC
:10021000A4F10104DFDC484631462A46434600F09B
:1002200000B830BCBDE8C09F202A04DB203A00FAA9
:1002300002F1002070479140C2F1200320FA03F33D
:10024000194390407047202A04DB203A21FA02F03B
:100250000021704721FA02F3D040C2F12002914000
:100260000843194670470000064C074D06E0E06859
:1002700040F0010394E8070098471034AC42F6D3ED
:10028000FFF786FF74790008947900082DE9F041A2
:1002900004460D460027B84600262068806800F016
:1002A0000C0008B1012000E00020002873D0206875
:1002B000C06800F00070B0F1007F1FD1E069012834
:1002C0001CD1A069012819D101250EE033488642CE
:1002D0000AD3A06D40F01000A065E06D40F0010071
:1002E000E0650120BDE8F081761C20680068C0F35D
:1002F00080100028EAD0402021680860022D13D029
:100300002068806800F0040004280DD1206880680F
:1003100000F0020040B920688168214A114041F094
:100320001001816000BF00BF012D10D020688068DF
:1003300000F0080008280AD12068806800F0020058
:1003400028B92068806840F0200021688860022D6C
:1003500003D0032D03D10C2703E0082701E0042775
:1003600000BF00BF01F042FB80460FE001F03EFB02
:10037000A0EB0800052809D9A06D40F01000A06589
:10038000E06D40F00100E0650120ABE72068806887
:1003900038400028EAD10020A4E70000000040A374
:1003A000C0FFFF7F70B5044600252068806800F01C
:1003B0000300012806D12068006800F0010008B1A0
:1003C000012000E0002080B32068806800F00D006C
:1003D000012800D100E0002050B120688168174A50
:1003E0001140891C816000BF03202168086009E07A
:1003F000A06D40F01000A065E06D40F00100E065E8
:10040000012070BD01F0F2FA05460FE001F0EEFAAE
:10041000401B02280AD9A06D40F01000A065E06DD5
:1004200040F00100E0650120EBE705E0206880680E
:1004300000F001000028E9D10020E2E7C0FFFF7FC3
:1004400038B504460025002000902068806800F040
:100450000300012806D12068006800F0010008B1FF
:10046000012000E00020002846D120688068234950
:10047000084008B9012000E0002048B9A06D40F014
:100480001000A065E06D40F00100E065012038BD7E
:10049000206805F049F91A4800681A49B0FBF1F0E4
:1004A00000EB80004000009002E00098401E0090A9
:1004B00000980028F9D101F099FA054616E0206865
:1004C000816801F0010111B9206805F02DF901F0F2
:1004D0008DFA401B022809D9A06D40F01000A065DC
:1004E000E06D40F00100E0650120D0E72068006881
:1004F00000F001000028E2D00020C8E73F000080A3
:100500007C00002080841E0000B587B000BF1B481F
:10051000C06C40F010001949C8640846C06C00F077
:100520001000019000BF00BF012003907C200290CA
:10053000022004900320059002A9114801F044F91B
:10054000002204210E4801F04BFA002208210C4839
:1005500001F046FA00221021094801F041FA002278
:100560002021074801F03CFA00224021044801F014
:1005700037FA04F015FB07B000BD00000010024080
:100580000010004810B500220821074801F028FAA1
:10059000052001F065F801220821034801F020FA46
:1005A000052001F05DF810BD001000487CB5044640
:1005B0000D4600200190012001AB02462946009023
:1005C000204604F0F3FB9DF804007CBD37B582B0F3
:1005D00004460D46012004AB024629460090204601
:1005E00004F00AFC05B030BD00BFFEE72DE9F04184
:1005F00005460E46174600243A4631462846FFF780
:10060000E5FF2046BDE8F08110B5024800F0D5FEB8
:1006100010BD0000A422002030B590F8444004F042
:100620001C050124AC40056C6C6004686360846840
:10063000102C04D10468A2600468E16003E004683F
:10064000A1600468E26030BD70470000F0B59BB067
:1006500004460E460027306800B100BF00BF94F882
:100660005400012802D102201BB0F0BD012084F803
:10067000540000BF44492068884202D14348019099
:1006800001E000200190019850B9A06D40F02000D9
:10069000A06500BF002084F8540000BF0120E3E7FC
:1006A000206805F061F8002862D1019805F05CF837
:1006B00000285DD1364D306888B37168606B41EABF
:1006C0004030A96821F460410843A8602068806830
:1006D00000F00300012806D12068006800F0010046
:1006E00008B1012000E00020002846D10198806870
:1006F00000F00300012806D10198006800F0010015
:1007000008B1012000E0002088BBB16830680843D0
:10071000A96840F61F7291430843A8602DE0FFE7E7
:10072000A86820F46040A8602068806800F003009A
:10073000012806D12068006800F0010008B10120FE
:1007400000E0002098B90198806800F003000128BB
:1007500006D10198006800F0010008B1012000E016
:10076000002020B9A86840F61F718843A86004E003
:10077000A06D40F02000A065012700BF002084F894
:10078000540000BF38466FE70000045000010450D9
:10079000000304502DE9F84305460C4600270020CD
:1007A0000090FE49E068884200D000E000BF00BF32
:1007B00095F85400012802D10220BDE8F8830120F9
:1007C00085F8540000BF286804F0C9FF002876D1DE
:1007D000606805281AD86068022806D0032807D068
:1007E000042808D005280DD108E00C2060600CE03A
:1007F0001220606009E01820606006E04FF480700D
:10080000606002E00620606000BF00BF2968D4E994
:10081000002000F4407C4FF4407898FAA8F8B8FA29
:1008200088F82CFA08FC01F1300808EB8C0300F082
:100830001F094FF01F0808FA09F8D3F800C02CEA86
:10084000080C00F01F09C2F3846808FA09F84CEAA2
:10085000080CC3F800C000BF2868806800F00C00D6
:1008600008B1012000E00020002827D1A2682168FB
:10087000286804F087FF60692968C968C1F3C1016D
:10088000490000FA01F62069042819D02868226876
:10089000216900F1600C0CEB8103DFF80483D3F8CD
:1008A00000C00CEA080C02F0F84848F0004848EA9A
:1008B00006084CEA080CC3F800C000BFA8E0D4E169
:1008C0000021286804F03DFFC0F3120030B9002178
:1008D000286804F036FFC0F3846007E00021286830
:1008E00004F02FFF90FAA0F0B0FA80F02168C1F375
:1008F000120119B92168C1F3846104E0216891FAF9
:10090000A1F1B1FA81F1884204D100221146286890
:1009100004F067FF0121286804F013FFC0F3120000
:1009200030B90121286804F00CFFC0F3846007E0AF
:100930000121286804F005FF90FAA0F0B0FA80F0D9
:100940002168C1F3120119B92168C1F3846104E07F
:10095000216891FAA1F1B1FA81F1884204D1002213
:100960000121286804F03DFF0221286804F0E9FE17
:10097000C0F3120030B90221286804F0E2FEC0F38F
:10098000846007E00221286804F0DBFE90FAA0F002
:10099000B0FA80F02168C1F3120119B92168C1F3DE
:1009A000846104E0216891FAA1F1B1FA81F18842F1
:1009B00004D100220221286804F013FF03212868D3
:1009C00004F0BFFEC0F3120030B90321286804F020
:1009D000B8FEC0F3846007E00321286804F0B1FE8C
:1009E00090FAA0F0B0FA80F02168C1F3120119B9B1
:1009F0002168C1F3846104E0216891FAA1F1B1FAA0
:100A000081F1884204D100220321286804F0E9FE24
:100A10002868806800F00300012806D12868006873
:100A200000F0010008B1012000E0002000287CD186
:100A30002868E2682168D0F8B030C1F3120C23EACC
:100A40000C03C1F3120C02F02009DFF8588108FAF8
:100A500009F80CEA080C43EA0C03C0F8B03000BFF8
:100A60004E49E068884260D12368C3F312031BB982
:100A70002368C3F3846304E0236893FAA3F3B3FA0F
:100A800083F35B1C092B38D82368C3F312031BB90B
:100A90002368C3F3846304E0236893FAA3F3B3FAEF
:100AA00083F35B1C4FF0010C0CFA03FC2368C3F3C7
:100AB00012031BB92368C3F3846304E0236893FA29
:100AC000A3F3B3FA83F35B1C4CEA836C2368C3F390
:100AD00012031BB92368C3F3846304E0236893FA09
:100AE000A3F3B3FA83F35B1C03EB43034FF000085B
:100AF00048EA03534CEA030339E02368C3F31203C3
:100B00001BB92368C3F3846304E0236893FAA3F357
:100B1000B3FA83F35B1C4FF0010C0CFA03FC23685F
:100B2000C3F312032BB9236800E025E0C3F3846309
:100B300004E0236893FAA3F3B3FA83F35B1C4CEA53
:100B4000836C2368C3F312031BB92368C3F3846364
:100B500004E0236893FAA3F3B3FA83F3093B03EBAE
:100B600043034FF0007848EA03534CEA0303194665
:100B7000A268286804F006FE0B492068884205D167
:100B80000A4804F0D9FD00F4000000B308492068C9
:100B9000884212D1054804F0CFFD0BE000007F40F1
:100BA00000F0FF03FFFF0700000052C700030450DE
:100BB000000084CB00F0807048B132492068884240
:100BC00058D1314804F0B8FD00F4800020BB2F4913
:100BD0002068884221D12E492868884203D02D49B7
:100BE0002868884246D1284804F0A6FD40F4000851
:100BF0004146254804F0EFFD274800682749B0FB2F
:100C0000F1F0C0EB0010C000009002E00098401E20
:100C1000009000980028F9D12CE0214920688842F2
:100C200011D11B492868884203D01A492868884294
:100C300020D1154804F080FD40F0807841461248EC
:100C400004F0C9FD16E00F492068884212D110490E
:100C5000286888420ED10C4804F06EFD40F48008EC
:100C60004146094804F0B7FD04E0A86D40F02000BB
:100C7000A865012700BF002085F8540000BF384652
:100C80009BE500000100008000030450000052C7F3
:100C900000000450000204507C00002080841E00EC
:100CA000000084CB01460868006C7047F8B5044624
:100CB00000260025002000900CB90120F8BD206915
:100CC00018B1606A012800D100BFA06D30B920467C
:100CD00000F060F90020E06584F854002068816825
:100CE000C1F3407131B120688168A24A114081602E
:100CF00000BF00BF206804F02DFDB8B920688168EE
:100D00009D4A114041F08051816000BF9B480068BE
:100D10009B49B0FBF1F000EB80004000009002E046
:100D20000098401E009000980028F9D1206804F037
:100D300011FD40B9A06D40F01000A065E06D40F0DD
:100D40000100E0650126A06D00F01000002877D1B9
:100D5000206804F004FD0028F9D1A06D20F4807013
:100D600040F00200A0652068806800F003000128C0
:100D700006D12068006800F0010008B1012000E001
:100D80000020002871D17F492068884223D17E4805
:100D9000006800F00300012807D17B48083800688C
:100DA00000F0010008B1012000E0002078B9774888
:100DB000006800F00300012807D174480838006873
:100DC00000F0010008B1012000E0002008B101207E
:100DD0004DE000204BE06C4908392068884222D160
:100DE0006848806800F00300012806D16548006863
:100DF00000F0010008B1012000E0002078B963484C
:100E0000006800F00300012807D160480838006836
:100E100000F0010008B1012000E0002008B101202D
:100E200010E000200EE05748806800F00300012821
:100E300007D15448006800F0010010B1012001E022
:100E400090E0002078B95048006800F003000128C5
:100E500007D14D480838006800F0010008B10120B2
:100E600000E0002010B1012001E00DE0002058B9A1
:100E700060684649F831896821F47C110143434A8E
:100E8000F832916000BF00BFA16BE06941EA4030D9
:100E9000E1680843A1680843A18C40EA0145606A03
:100EA000012803D1208D401E45EA4045E06A28B163
:100EB000A08D00F47070216B084305432068C06862
:100EC0003349084028432168C8602068806800F0E2
:100ED0000C0008B1012000E0002010BB0021A06937
:100EE00041EA8031606B41EA40052068C06844F205
:100EF0000201884328432168C860E06B012811D1B2
:100F0000206C40F00101606C0843A16C0843E16C67
:100F100008432168096940F2FC7291430843216843
:100F2000086105E02068006920F00100216808617F
:100F30002069012809D12068006B20F00F00216A88
:100F4000491E08432168086305E02068006B20F013
:100F50000F0021680863A06D20F0020040F001003E
:100F6000A06504E0A06D40F01000A06501263046A9
:100F7000A4E60000C0FFFF5FC0FFFF7F7C000020F1
:100F800080841E0000000450080104500802045030
:100F900007C0F0FF10B586B004460F4920688842AC
:100FA00017D100BF0D48C06C40F400500B49C86415
:100FB0000846C06C00F40050009000BF00BF07203E
:100FC00001900B2002900020039001A9044800F03A
:100FD000FBFB06B010BD00000000045000100240F2
:100FE000000800482DE9F04704460D46002700267A
:100FF000B0466069082801D1082641E05C492068B4
:10100000884203D05B492068884214D15A4800685E
:1010100000F01F0068B15848006800F01F00052864
:1010200007D05548006800F01F00092801D00120B2
:1010300002E0002000E0002068B92068C06800F0ED
:10104000010030B1A06D40F02000A0650120BDE896
:10105000F087042614E04848006800F44040B0F5EA
:10106000004F06D04448006800F44040B0F5404FBF
:1010700005D1A06D40F02000A0650120E7E704261F
:1010800000F0B4FC074612E0681C80B125B100F006
:10109000ADFCC01BA8420AD9A06D40F00400A065B9
:1010A00000BF002084F8540000BF0320CFE7206871
:1010B000006830400028E7D0A06D40F40070A065C3
:1010C0002068C06800F4406098B9E06988B9206879
:1010D000006800F0080008280BD1A06D20F4807093
:1010E000A065A06D00F4805018B9A06D40F001001B
:1010F000A0651F492068884203D0204920688842A3
:1011000001D1012013E01C48006800F01F0058B115
:101110001948006800F01F00052805D0164800682F
:1011200000F01F00092801D1012000E0002018B1C3
:101130002068D0F80C800DE00D492068884203D06B
:101140000E492068884201D1206800E008488146A5
:10115000D9F80C80082E03D108202168086005E02A
:1011600008F4804010B90C202168086000206EE768
:101170000000045000010450080304500002045011
:1011800070B504460025206804F0E9FA002871D102
:1011900000BF94F85400012801D1022070BD012045
:1011A00084F8540000BF2046FFF74AF90546002D99
:1011B0007DD1A06D40F60161884340F48070A06548
:1011C0003F492068884203D03E492068884201D1C7
:1011D000012007E03C48006800F01F0008B901202A
:1011E00000E0002018B1A06D20F48010A065A06D73
:1011F00000F48050B0F5805F04D1E06D20F006006F
:10120000E06501E00020E0651C202168086000BF67
:10121000002084F8540000BF29492068884203D088
:1012200028492068884201D1012013E0264800683F
:1012300000F01F0058B12448006800F01F00052886
:1012400005D02148006800F01F00092801D10120C5
:1012500000E0002078B12068C06800F0007028B17C
:10126000A06D20F4005040F48050A065206804F088
:1012700081FA22E020E0A06D40F48010A0651049C2
:101280002068884203D00F492068884202D1206834
:1012900001E00CE00A480646F06800F0007060B11A
:1012A000A06D20F4005040F48050A06505E000BF20
:1012B000002084F8540000E0022528466EE7000074
:1012C00000000450000204500803045070B50446A6
:1012D000002500BF94F85400012801D1022070BD00
:1012E000012084F8540000BF03212046FEF7CEFF02
:1012F000054655B92046FFF755F805462DB9A06DAE
:1013000020F4885040F00100A06500BF002084F860
:10131000540000BF2846E2E70146002209B9012037
:1013200070470868006820F00E000B6818600868B5
:10133000006820F001000B68186091F8440000F08C
:101340001C03012098400B6C5860012081F8250097
:1013500000BF002081F8240000BF1046E0E770B510
:101360000446002594F82500022803D00420E063F9
:10137000012520E02068006820F00E002168086048
:101380002068006820F001002168086094F844009B
:1013900000F01C0101208840216C4860012084F885
:1013A000250000BF002084F8240000BFA06B10B10E
:1013B0002046A16B8847284670BD70B50446206C56
:1013C00005682068066894F8440000F01C010420B9
:1013D00088402840E0B106F00400C8B120680068E9
:1013E00000F0200028B92068006820F0040021687F
:1013F000086094F8440000F01C0104208840216C2F
:101400004860206B002856D02046216B884752E068
:1014100094F8440000F01C0102208840284018B3D2
:1014200006F0020000B32068006800F0200040B918
:101430002068006820F00A0021680860012084F814
:10144000250094F8440000F01C0102208840216C23
:10145000486000BF002084F8240000BFE06A50B359
:101460002046E16A884726E094F8440000F01C0119
:10147000082088402840F0B106F00800D8B1206864
:10148000006820F00E002168086094F8440000F025
:101490001C0101208840216C48600120E06384F831
:1014A000250000BF002084F8240000BF606B10B14D
:1014B0002046616B884770BD10B5014609B901200F
:1014C00010BD3E4B086898420BD23D4B0868C01ACD
:1014D0001423B0FBF3F080004864394808380864EE
:1014E0000AE0364B0868C01A1423B0FBF3F0800002
:1014F0004864324808380864022081F825000868EA
:10150000026847F6F0708243D1E9020318430B6981
:1015100018434B6918438B691843CB6918430B6A0E
:1015200018430243086802608868B0F5804F3AD0DB
:10153000234B083B086C98421BD1D0F8A80091F8C7
:10154000443003F01C040F23A34098431C4BA033EA
:10155000186091F8443003F01C0348689840184B19
:10156000083BD3F8A8301843154B083BC3F8A80034
:1015700019E01248A030006891F8443003F01C04D0
:101580000F23A34098430D4BA033186091F84430CB
:1015900003F01C0348689840084BA0331B681843AD
:1015A000064BA03318600020C863012081F8250095
:1015B000002081F8240000BF82E7000008040240F8
:1015C000080002402DE9F04104460D4616461F462C
:1015D0004FF0000800BF94F82400012802D1022037
:1015E000BDE8F081012084F8240000BF94F82500B4
:1015F00001282CD1022084F825000020E063206817
:10160000006820F00100216808603B463246294608
:101610002046FFF701F8206B30B12068006840F0E9
:101620000E00216808600BE02068006820F00400CC
:10163000216808602068006840F00A00216808609E
:101640002068006840F001002168086006E000BFE3
:10165000002084F8240000BF4FF002084046BFE796
:1016600070B5044600F0C2F906462546681C00B174
:101670006D1C00BF00F0BAF9801BA842FAD370BD00
:10168000F0B50B4600210022002487E001258D40A3
:1016900005EA0302002A7DD005684F000326BE40FC
:1016A00035430560CE0800F1200555F826504E0759
:1016B000F70E0F26BE40B543CF0800F1200646F8CE
:1016C000275085684F000326BE40B54385604668B5
:1016D00001258D40AE434660C5684F000326BE40DD
:1016E000B543C560C66A01258D40AE43C6622E4D26
:1016F0008E0855F826408D072E0F0F25B5402C403B
:10170000B0F1904F01D100251EE0284DA84201D133
:10171000012519E0264DA84201D1022514E0254DEE
:10172000A84201D103250FE0234DA84201D1042591
:101730000AE0224DA84201D1052505E0204DA8422E
:1017400001D1062500E007258E07360FB540A542DA
:1017500023D18D072E0F0F2505FA06F4124D8E08A2
:1017600055F82650A543104E8F0846F82750154DC2
:101770002D689543134E3560351D2D689543361DF4
:101780003560351D2D689543361D3560351D2D6836
:10179000954300E001E0361D3560491C23FA01F550
:1017A000002D7FF473AFF0BD080001400004004835
:1017B00000080048000C00480010004800140048D1
:1017C000001800480004014078B5034600220024B8
:1017D0000020E5E0012696400D6805EA0604002C8D
:1017E0007DD04D68022D02D04D68122D13D1D60840
:1017F00003F1200555F826005507EE0E0F25B540DC
:10180000A8435607F60E0D69B5402843D60803F1E4
:10181000200545F82600186856000325B540A84362
:101820000D7905F003055600B540284318604D6852
:10183000012D08D04D68022D05D04D68112D02D024
:101840004D68122D13D1986856000325B540A84362
:101850005600CD68B54028439860586801259540EA
:10186000A8430D79C5F300159540284358600D79BC
:1018700005F00305032D09D1D86A01259540A84339
:101880000D79C5F3C00595402843D862D868560045
:101890000325B540A84356008D68B5402843D8605D
:1018A0004D6805F08055B5F1805F78D100BF3F4DA0
:1018B0002D6E45F001053D4E356635462D6E05F021
:1018C0000105009500BF00BF4FEAB635960855F8F0
:1018D000260095072E0F0F25B540A84300E05EE0D7
:1018E000B3F1904F01D100251EE0314DAB4201D143
:1018F000012519E02F4DAB4201D1022514E02E4DF8
:10190000AB4201D103250FE02C4DAB4201D10425A0
:101910000AE02B4DAB4201D1052505E0294DAB4234
:1019200001D1062500E007259607360FB54028436C
:10193000254D960845F82600244D2868A0434D689B
:1019400005F48035B5F5803F00D120431F4D286058
:101950002D1D2868A0434D6805F40035B5F5003FFE
:1019600000D12043194D2D1D28602D1D2868A0434E
:101970004D6805F48015B5F5801F00D12043134D47
:10198000083528602D1D2868A0434D6805F4001512
:10199000B5F5001F00D120430C4D0C352860521CBA
:1019A0000D68D540002D7FF415AF78BD00100240C2
:1019B0000004004800080048000C004800100048DF
:1019C00000140048001800480800014000040140CD
:1019D000024613690B400BB1012000E00020704764
:1019E0000AB1816100E0816270470000014800682F
:1019F0007047000078000020024692F8410020283D
:101A00002DD100BF92F84000012801D1022070477B
:101A1000012082F8400000BF242082F841001068B5
:101A2000006820F00100136818601068006820F456
:101A300080501368186010680068084313681860C5
:101A40001068006840F0010013681860202082F8D8
:101A5000410000BF002082F8400000BFD7E702200D
:101A6000D5E710B502460B4692F8410020282AD14E
:101A700000BF92F84000012801D1022010BD0120D2
:101A800082F8400000BF242082F8410010680068FE
:101A900020F00100146820601068016821F4706172
:101AA00041EA0321106801601068006840F00100FD
:101AB00014682060202082F8410000BF002082F8D6
:101AC000400000BFDAE70220D8E77047704710B542
:101AD000044624B94FF400706064012010BD242036
:101AE00084F841002068006820F001002168086047
:101AF000204600F063FA0020606484F8410020630F
:101B000084F8420000BF84F8400000BF00BFE5E752
:101B100070B50446206885692068066805F4807001
:101B200050B106F0800038B1606C40F00100606494
:101B30004FF480702168C86105F4806050B106F0F0
:101B4000800038B1606C40F0080060644FF4806041
:101B50002168C86105F4007050B106F0800038B10A
:101B6000606C40F0020060644FF400702168C8614E
:101B7000606C00F00B0018B1616C204603F034FA81
:101B800070BD70B504462068856920680668606B82
:101B900020B1324629462046636B984770BD704796
:101BA000014691F84100704710B5044624B94FF43E
:101BB00000706064012010BD94F8410028B9002035
:101BC00084F84000204600F02FFA242084F84100D9
:101BD0002068006820F0010021680860606820F03B
:101BE0007060216808612068806820F400402168E6
:101BF0008860E068012805D1A06840F400402168B1
:101C0000886004E0A06840F4044021688860E068CF
:101C1000022802D180022168486020684068144987
:101C20000843216848602068C06820F400402168AB
:101C3000C860D4E904010843A16940EA0120216891
:101C4000C860D4E90701084321680860206800687B
:101C500040F001002168086000206064202084F8C2
:101C600041000020206384F8420000BFA3E7000089
:101C700000800002704700002DE9FC5F04468946A1
:101C800092469B46DDE90C780E9E94F84100202890
:101C90007ED117B1B8F1000F05D14FF40070606428
:101CA000012000F0B9B800BF94F84000012801D12C
:101CB0000220F6E7012084F8400000BFFFF796FEFF
:101CC000054619230122D1032046009503F0A4FC08
:101CD00008B10120E5E7222084F84100402084F883
:101CE0004200002060646762A4F82A8060635B465B
:101CF000524649462046CDE9006503F057FB30B116
:101D000000BF002084F8400000BF0120C9E7608DBB
:101D1000FF280CD9FF2020853D48009094F828200A
:101D20004FF080734946204603F05CFC0BE0608D69
:101D300020853748009094F828204FF000734946DA
:101D4000204603F04FFC00BF33460022042120460A
:101D5000009503F061FC08B10120A2E72068406A09
:101D6000C1B2626A501C60621170208D401E2085D5
:101D7000608D401E6085608D48B3208D38BB334632
:101D8000002280212046009503F046FC18B100E0B7
:101D90003CE0012085E7608DFF280CD9FF202085DD
:101DA0000020009094F828204FF080734946204688
:101DB00003F018FC0BE0608D20850020009094F863
:101DC00028204FF000734946204603F00BFC608D3D
:101DD0000028B9D12A463146204603F04CFC08B110
:101DE00001205EE720202168C86120684068094919
:101DF000084021684860202084F84100002084F8D1
:101E0000420000BF84F8400000BF4AE7022048E7D4
:101E10000024008000E800FE3CBCBDE8C09F00003C
:101E20002DE9FC5F0446894692469B46DDE90C7825
:101E30000E9E94F8410020287CD117B1B8F1000F14
:101E400005D14FF400706064012000F0B3B800BF0A
:101E500094F84000012801D10220F6E7012084F81F
:101E6000400000BFFFF7C2FD054619230122D10340
:101E70002046009503F0D0FB08B10120E5E72120C2
:101E800084F84100402084F84200002060646762CA
:101E9000A4F82A8060635B46524649462046CDE955
:101EA000006503F0C1FA30B100BF002084F84000A3
:101EB00000BF0120C9E7608DFF280CD9FF202085D5
:101EC0000020009094F828204FF080734946204667
:101ED00003F088FB0BE0608D20850020009094F8D3
:101EE00028204FF000734946204603F07BFB00BFDB
:101EF0002A463146204603F0E9FB08B10120A4E759
:101F0000616A481C6062087821688862608D401EA2
:101F10006085208D401E2085608D40B3208D30BBB4
:101F20003346002280212046009503F075FB10B156
:101F300001208AE73AE0608DFF280CD9FF20208538
:101F40000020009094F828204FF0807349462046E6
:101F500003F048FB0BE0608D20850020009094F892
:101F600028204FF000734946204603F03BFB608D6C
:101F70000028BDD12A463146204603F07CFB08B13B
:101F8000012062E720202168C86120684068084974
:101F9000084021684860202084F84100002084F82F
:101FA000420000BF84F8400000BF4EE702204CE72B
:101FB00000E800FE3CBCBDE8C09F000010B5044630
:101FC00015492068884211D11448806D20F4001012
:101FD000124988654FF440711148FFF751FB1F20EB
:101FE00000F004F9202000F001F914E00D49206808
:101FF000884210D10948806D20F480000749886527
:102000004FF440610648FFF73BFB212000F0EEF85B
:10201000222000F0EBF810BD0054004000100240F8
:10202000000400480058004010B586B0044632490C
:10203000206888422DD14FF4407001901220029008
:1020400001200390032004900420059001A92B484F
:10205000FFF7BAFB00BF2A48806D40F40010284902
:1020600088650846806D00F40010009000BF00BF36
:10207000002211461F2000F0D4F81F2000F0C4F801
:1020800000221146202000F0CCF8202000F0BCF8FF
:1020900030E01C49206888422CD14FF44060019008
:1020A0001220029001200390032004900420059048
:1020B00001A91248FFF788FB00BF1148806D40F46A
:1020C00080000F4988650846806D00F4800000900C
:1020D00000BF00BF00221146212000F0A2F82120FD
:1020E00000F092F800220121222000F09AF822202C
:1020F00000F08AF806B010BD00540040000400480B
:1021000000100240005800407047704702480068C5
:10211000401C0149086070477800002010B503207A
:1021200000F0C0F8002000F005F800F017F80020DB
:1021300010BD000070B50446074800684FF47A717E
:10214000B0FBF1F5284602F065FA00222146501E48
:1021500000F067F8002070BD7C00002008B500BFCB
:102160002148006E40F001001F4908660846006ED5
:1021700000F00100009000BF00BF00BF0846806D66
:1021800040F0805088650846806D00F080500090D7
:1021900000BF00BF032000F085F8002211466FF059
:1021A0000B0000F03EF8002211466FF00A0000F02C
:1021B00038F8002211466FF0090000F032F80022D2
:1021C0001146501F00F02DF800221146101F00F09C
:1021D00028F800221146901E00F023F80022114634
:1021E000501E00F01EF808BD0010024000BF00F0B5
:1021F0001F0201219140034A430942F8231000BF06
:102200007047000080E100E000BF00F01F020121E4
:1022100091404209920002F1E022C2F8001100BF91
:1022200070472DE9F05F80460D461646002703F003
:1022300011FE074639462A46334601F00700C0F131
:10224000070ABAF1040F02D94FF0040A01E0C0F105
:10225000070AD14600F1040ABAF1070F02D24FF083
:10226000000A01E0A0F1030AD4464FF0010A0AFA7D
:1022700009FAAAF1010A0AEA020A0AFA0CFA4FF06C
:10228000010B0BFA0CFBABF1010B0BEA030B4AEA57
:102290000B042146404603F0E5FD00F000B830BCD9
:1022A000BDE8C09F00BF00F00702064B19684FF65B
:1022B000FF031940044B0B4343EA0221014B196011
:1022C00000BF70470CED00E00000FA050246002157
:1022D000B2F5007F29D11D48006800F4C060B0F558
:1022E000007F31D01948006820F4C06040F40070CD
:1022F000164B186016480068164BB0FBF3F03223FB
:1023000000FB03F100E0491E31B11048406900F4C0
:102310008060B0F5806FF6D00C48406900F48060B2
:10232000B0F5806F10D1032070470848006800F4B2
:10233000C060B0F5806F07D00448006820F4C0602A
:1023400040F48060014B18600020EDE70070004011
:102350007C00002040420F000248006800F4C0608A
:1023600070470000007000402DE9F04780464FF0B4
:1023700000090024002500260027B8F5003F2DD1D4
:10238000F948006800F44074B4F5807F08D1F6483D
:10239000006800F00200022802D14FF40049EBE38C
:1023A000B4F5007F09D1F048001D006800F002007C
:1023B000022802D14FF4FA49F1E7B4F5407F0AD17F
:1023C000E9489038006800F40030B0F5003F02D1D1
:1023D000DFF89893E3E74FF00009E0E7E248903830
:1023E000C06800F0030001281FD1DF489038006862
:1023F00000F00200022816D1DB489038006800F097
:10240000080028B1D8489038006800F0F00005E0D6
:10241000D548001D006800F4706000090009D44927
:1024200051F8205028E0002526E0CF489038C068B9
:1024300000F0030002280BD1CB489038006800F46C
:102440008060B0F5806F01D1CA4D15E0002513E022
:10245000C5489038C06800F0030003280BD1C2487B
:102460009038006800F40030B0F5003F01D1C24D53
:1024700002E0002500E00025B8F5007F7AD01DDCE1
:10248000B8F1100F77D00CDCB8F1010F74D0B8F1AF
:10249000020F72D0B8F1040F70D0B8F1080F6ED1EE
:1024A000E5E1B8F1200F6BD0B8F1400F69D0B8F179
:1024B000800F67D0B8F5807FF1D1FAE2B8F5804F90
:1024C0007ED00CDCB8F5806F7BD0B8F5006F13D0F0
:1024D000B8F5805F11D0B8F5005FE0D1ADE0B8F598
:1024E000004F6FD0B8F5803F6DD0B8F5802F6BD01E
:1024F000B8F5002FD3D1A2E000BFB8F5006F0AD124
:1025000099480838006800F44004B4F5400F0CD135
:10251000DFF8689209E094480838006800F04074D9
:10252000B4F1407F01D1DFF85492B9F1000F2FD1FF
:10253000B4F5000F02D0B4F1007F2AD18A48903858
:10254000C06800F4803018B387489038C068C0F382
:102550000210401CB5FBF0F583489038C068C0F30A
:1025600006268FB980489038C06800F4003050B11A
:10257000112709E0BEE2A5E1EBE022E14CE141E3F5
:10258000CEE154E274E2072705FB06F0B0FBF7F951
:1025900052E03CBB74489038006900F4803000B3CE
:1025A00071489038C068C0F30210401CB5FBF0F5CC
:1025B0006D4890380069C0F3062677B96A4804E090
:1025C000DCE1CBE203E324E238E09038006900F478
:1025D000003008B1112700E0072705FB06F0B0FB2B
:1025E000F7F929E0B4F5800F02D0B4F1807F21D152
:1025F0005D489038406900F48030E8B15A4890381E
:10260000C068C0F30210401CB5FBF0F55648903886
:102610004069C0F3062647B953489038406900F432
:10262000003008B1112700E0072705FB06F0B0FBDA
:10263000F7F901E04FF00009E5E200BF00BF4A48AA
:102640000838006800F04064B4F1406F20D146487B
:102650009038006800F00200022816D142489038F5
:10266000006800F0080028B13F489038006800F08A
:10267000F00005E03C48001D006800F470600009AF
:1026800000093B4951F8209062E04FF000095FE0FB
:10269000B4F1006F2BD134489038006800F000701E
:1026A000B0F1007F20D130489038C06800F480102D
:1026B000B0F5801F18D12C489038C068C0F30210C4
:1026C000401CB5FBF0F528489038C068C0F30626DA
:1026D00005FB06F024499039C968C1F34151491CF2
:1026E0004900B0FBF1F933E04FF0000930E0B4F1FC
:1026F000806F2BD11C489038006800F00060B0F16A
:10270000006F20D118489038006900F48010B0F5AF
:10271000801F18D114489038C068C0F30210401CC4
:10272000B5FBF0F5104890380069C0F3062605FBAC
:1027300006F00D4990390969C1F34151491C49001E
:10274000B0FBF1F904E04FF0000901E04FF000099F
:1027500059E205480838006800F0030484B900F025
:1027600091FD81462CE000009010024090D00300C3
:10277000447900080024F40000127A0068FF1F006A
:10278000012C03D100F08EFD814619E0022C09D105
:10279000F748006800F48060B0F5806F02D1DFF880
:1027A000D4930DE0032C09D1F1489030006800F07B
:1027B0000200022802D14FF4004901E04FF0000965
:1027C00021E2EB488830006800F00C041CB900F0EE
:1027D00049FD81461FE0042C03D100F063FD8146D2
:1027E00019E0082C09D1E248006800F48060B0F5D7
:1027F000806F02D1DFF87C930DE00C2C09D1DC480E
:102800009030006800F00200022802D14FF4004925
:1028100001E04FF00009F6E1D5488830006800F08B
:1028200030041CB900F01EFD81461FE0102C03D1BE
:1028300000F038FD814619E0202C09D1CC48006811
:1028400000F48060B0F5806F02D1DFF828930DE0CE
:10285000302C09D1C6489030006800F002000228F0
:1028600002D14FF4004901E04FF00009CBE1C0482C
:102870008830006800F0C0041CB900F0F3FC814609
:102880001FE0402C03D100F00DFD814619E0802CA3
:1028900009D1B748006800F48060B0F5806F02D1BC
:1028A000DFF8D0920DE0C02C09D1B148903000681B
:1028B00000F00200022802D14FF4004901E04FF07D
:1028C0000009A0E1AA488830006800F440741CB9EF
:1028D00000F0C8FC814622E0B4F5807F03D100F00F
:1028E000E1FC81461BE0B4F5007F09D1A0480068F7
:1028F00000F48060B0F5806F02D1DFF878920EE0CE
:10290000B4F5407F09D19A489030006800F0020089
:10291000022802D14FF4004901E04FF0000972E1B2
:1029200093488830006800F440641CB900F09AFCB9
:10293000814622E0B4F5806F03D100F0B3FC8146FC
:102940001BE0B4F5006F09D18948006800F480608D
:10295000B0F5806F02D1DFF81C920EE0B4F5406F45
:1029600009D183489030006800F00200022802D1AB
:102970004FF4004901E04FF0000944E17C48883001
:10298000006800F04054B4F1405F03D100F08AFCCD
:1029900081463DE0B4F1805F1AD17548006900F0CE
:1029A000807090B37248C068C0F30210401CB5FB41
:1029B000F0F56F480069C0F3062605FB06F06C4988
:1029C0000969C1F34161491C4900B0FBF1F91FE0FD
:1029D000B4F1005F1AD16648406900F08070A0B180
:1029E0006348C068C0F30210401CB5FBF0F56048B6
:1029F0004069C0F3062605FB06F05D494969C1F34D
:102A00004161491C4900B0FBF1F901E04FF00009B8
:102A1000F9E057488830006800F000441CB900F025
:102A200031FC814602E000F03DFC8146EBE050487D
:102A30008830006800F440541CB900F013FC814653
:102A400015E0B4F5805F03D100F02CFC81460EE068
:102A5000B4F5005F09D14648006800F48060B0F525
:102A6000806F02D1DFF80C9101E04FF00009CAE05D
:102A70003F488830006800F440441CB900F0F2FB85
:102A8000814615E0B4F5804F03D100F00BFC814680
:102A90000EE0B4F5004F09D13548006800F48060BD
:102AA000B0F5806F02D1DFF8CC9001E04FF0000963
:102AB000A9E02F488830006800F440341CB900F0C9
:102AC000D1FB814615E0B4F5803F03D100F0EAFB6D
:102AD00081460EE0B4F5003F09D12548006800F4B6
:102AE0008060B0F5806F02D1DFF8889001E04FF090
:102AF000000988E01E488830006800F440241CB9B2
:102B000000F0B0FB814628E0B4F5802F09D11848C9
:102B10009430006800F00200022802D14FF4FA4914
:102B20001BE0B4F5002F09D11148006800F4806063
:102B3000B0F5806F02D1DFF83C900EE0B4F5402F85
:102B400009D10B489030006800F00200022802D141
:102B50004FF4004901E04FF0000954E00448883088
:102B6000006800F4401444B900F07CFB81462DE07D
:102B7000001002400024F40046E0B4F5801F08D1A4
:102B80002348006800F00200022802D14FF4FA49FD
:102B90001CE0B4F5001F0AD11D489438006800F409
:102BA0008060B0F5806F02D1DFF868900EE0B4F578
:102BB000401F09D11648001F006800F002000228DB
:102BC00002D14FF4004901E04FF000091BE010482A
:102BD0000C38006800F080441CB900F043FB8146CB
:102BE0000FE0B4F1804F0AD109489438006800F42E
:102BF0008060B0F5806F02D1DFF8189001E04FF0EF
:102C0000000900E000BF00BF4846BDE8F0870000B3
:102C1000941002400024F4002DE9F84304460026F5
:102C200000270025A846208800F40060B0F5006F5A
:102C300030D1606E80B1B0F5800F13D0B0F5000FC9
:102C400003D0B0F5400F15D113E0FA48C06840F446
:102C50008030F849C8600FE00021201D03F050F9D2
:102C6000054609E0002104F1200003F00FFA0546B3
:102C700002E001E0012500BF00BF55B9ED488830F2
:102C8000006820F44000616E0843EA49C1F88800FA
:102C900000E0A846208800F48050B0F5805F30D175
:102CA000A06E80B1B0F1807F13D0B0F1007F03D06F
:102CB000B0F1407F15D113E0DE48C06840F48030A9
:102CC000DC49C8600FE00021201D03F019F905461A
:102CD00009E0002104F1200003F0D8F9054602E0E4
:102CE00001E0012500BF00BF55B9D2488830006817
:102CF00020F04070A16E0843CE49C1F8880000E082
:102D0000A846206800F40030B0F5003F76D14FF0BF
:102D10000009C848806D00F0805078B900BFC548F0
:102D2000806D40F08050C34988650846806D00F092
:102D30008050009000BF00BF4FF00109BE480068FE
:102D400040F48070BC490860FEF750FE074606E07C
:102D5000FEF74CFEC01B022801D9032505E0B6484A
:102D6000006800F480700028F2D000BF85BBB14835
:102D70009030006800F44076D6B1D4F88400B042B8
:102D800016D0AC489030006820F44076A948D0F8BE
:102D9000900040F48030A749C1F890000846D0F870
:102DA000900020F48030C1F890000846C0F8906090
:102DB00006F00100A8B1FEF719FE074609E0FEF78C
:102DC00015FEC01B41F28831884202D9032507E075
:102DD00017E098489030006800F002000028EED01C
:102DE00000BF65B993489030006820F44070D4F873
:102DF000841008438F49C1F8900003E00CE0A84616
:102E000000E0A846B9F1010F05D18A48806D20F095
:102E100080508849886500BF207800F0010048B1E3
:102E200084488830006820F00300A16B0843814982
:102E3000C1F88800207800F00200022809D17D48FE
:102E40008830006820F00C00E16B08437949C1F834
:102E50008800207800F00400042809D175488830E3
:102E6000006820F03000216C08437249C1F88800E6
:102E7000207800F00800082809D16E4888300068E2
:102E800020F0C000616C08436A49C1F888002078CE
:102E900000F01000102809D166488830006820F43E
:102EA0004070A16C08436349C1F88800207800F0A5
:102EB0002000202809D15F488830006820F4406055
:102EC000E16C08435B49C1F88800208800F4007079
:102ED000B0F5007F09D157488830006820F44020C1
:102EE000E16D08435349C1F88800208800F48060F0
:102EF000B0F5806F09D14F488830006820F4401049
:102F0000216E08434B49C1F88800207800F040004A
:102F1000402809D147488830006820F44050216D8E
:102F200008434449C1F88800207800F080008028D8
:102F300009D140488830006820F44040616D084362
:102F40003C49C1F88800208800F48070B0F5807F8B
:102F500009D138488830006820F44030A16D08431A
:102F60003449C1F88800208800F40050B0F5005FB3
:102F70001FD130488830006820F04060E16E08437F
:102F80002C4988310860E06EB0F1006F06D1294805
:102F9000C06840F480102749C8600AE0E06EB0F1D4
:102FA000806F06D10121201D02F0AAFF054605B160
:102FB000A846206800F40020B0F5002F1FD11D485E
:102FC0008830006820F04060216F0843194988313B
:102FD0000860206FB0F1006F06D11648C06840F459
:102FE00080101449C8600AE0206FB0F1806F06D1EC
:102FF0000121201D02F084FF054605B1A846206886
:1030000000F48020B0F5802F23D10A488830006872
:1030100020F04060616F0843064988310860606FA6
:10302000B0F1006F0AD10348C06840F48010014934
:10303000C8600EE00010024000700040606FB0F108
:10304000806F06D10121201D02F05AFF054605B10F
:10305000A846208800F48040B0F5804F1FD1224858
:10306000006820F04050A16F08431F490860A06F1E
:10307000B0F1805F07D10221201D02F041FF05461B
:103080006DB1A8460BE0A06FB0F1005F07D102213F
:1030900004F1200002F0FAFF054605B1A846208899
:1030A00000F40040B0F5004F09D10F48006820F04F
:1030B0008040E16F08430C498839C1F888002068D6
:1030C00000F48030B0F5803F0AD10748006820F056
:1030D0000040D4F88010084303498839C1F88800BB
:1030E0004046BDE8F88300008810024070B50446F1
:1030F0000D460CB9012070BD5348006800F0070070
:10310000A8420ED25048006820F0070028434E49DC
:1031100008600846006800F00700A84201D00120BE
:10312000E9E7207800F00100002840D0606803281B
:1031300006D14648006800F00070D8B90120DAE7EF
:103140006068022806D14148006800F4003088B960
:103150000120D0E7606830B93C48006800F0020008
:1031600040B90120C7E73948006800F4806008B919
:103170000120C0E73548806820F0030061680843FB
:1031800032498860FEF732FC064608E0FEF72EFC66
:10319000801B41F28831884201D90320ABE72B48DC
:1031A000806800F00C006168B0EB810FEED12078F0
:1031B00000F00200022807D12448806820F0F000C7
:1031C000A1680843214988601F48006800F0070093
:1031D000A8420ED91C48006820F0070028431A496D
:1031E00008600846006800F00700A84201D00120EE
:1031F00081E7207800F00400042807D11348806894
:1032000020F4E060E168084310498860207800F00D
:103210000800082808D10D48806820F46050216912
:1032200040EAC1000949886000F03CF80749896814
:10323000C1F30311064A515CC840064908600020EA
:10324000FEF778FF002056E7002002400010024001
:103250002C7900087C0000200148006870470000BD
:103260007C00002000B5FFF7F7FF04498968C1F32F
:103270000221034A515CC84000BD0000001002401A
:103280003C79000800B5FFF7E7FF04498968C1F3FE
:10329000C221034A515CC84000BD0000001002403A
:1032A0003C790008F0B50021002300240225022209
:1032B00000203B4EB66806F00C065EB1384EB6688C
:1032C00006F00C060C2E1ED1354EF66806F00306ED
:1032D000012E18D1324E366806F008062EB9304E4F
:1032E00094363668C6F3032103E02D4E3668C6F3E4
:1032F00003112C4E56F82110294EB66806F00C0624
:1033000086B908460EE0264EB66806F00C06042E76
:1033100001D1254806E0224EB66806F00C06082EBC
:1033200000D122481E4EB66806F00C060C2E36D18F
:103330001B4EF66806F00304194EF668C6F3021633
:10334000721C012C19D0022C02D0032C14D109E0DC
:10335000154EB6FBF2F6124FFF68C7F3062706FBC1
:1033600007F313E0114EB6FBF2F60D4FFF68C7F3FB
:10337000062706FB07F309E000BFB1FBF2F6084F92
:10338000FF68C7F3062706FB07F300BF00BF044E24
:10339000F668C6F34166761C7500B3FBF5F0F0BD28
:1033A00000100240447900080024F40000127A0062
:1033B000F8B504460CB90120F8BD207800F01000E3
:1033C00010286ED1F848806800F00C00002869D100
:1033D000F548006800F0020018B1A06908B90120A2
:1033E000EAE7F148216A006800F0080020B1EE48E1
:1033F000006800F0F00005E0EB489430006800F44D
:103400007060000981421FD9206A02F0F1FE08B104
:103410000120D1E700BFE448006840F00800E2491D
:1034200008600846006820F0F000216A0843DE4981
:10343000086000BF0846406820F47F40E16940EA28
:103440000120D94948601EE000BFD748006840F01D
:103450000800D54908600846006820F0F000216A9D
:103460000843D149086000BF0846406820F47F4007
:10347000E16940EA0120CC494860206A02F0B8FEC8
:1034800008B1012098E7FFF70DFFC7498968C1F32C
:103490000311C64A515CC840C54908600020FEF7C8
:1034A00049FE4AE0A06980B3BF48006840F00100CF
:1034B000BD490860FEF79AFA054606E0FEF796FA5F
:1034C000401B022801D9032076E7B748006800F0C6
:1034D00002000028F2D000BFB348006840F00800A6
:1034E000B14908600846006820F0F000216A0843EE
:1034F000AD49086000BF0846406820F47F40E1699C
:1035000040EA0120A849486017E0FFE7A6480068A4
:1035100020F00100A4490860FEF768FA054606E0BD
:10352000FEF764FA401B022801D9032044E79E48B5
:10353000006800F002000028F2D1207800F00100BD
:10354000002868D09848806800F00C0008280BD04C
:103550009548806800F00C000C280ED19248C06895
:1035600000F00300032808D18F48006800F4003001
:1035700088B3606878BB01201EE700BF6068B0F5C3
:10358000803F06D18848006840F480308649086052
:103590001AE06068B0F5A02F0BD18348006840F4B2
:1035A0008020814908600846006840F48030086047
:1035B0000AE07D48006820F480307B4908600846B6
:1035C000006820F48020086000BF606890B1FEF7BA
:1035D0000DFA054607E01EE0FEF708FA401B6428D6
:1035E00001D90320E8E67048006800F400300028A4
:1035F000F2D010E0FEF7FAF9054606E0FEF7F6F91C
:10360000401B642801D90320D6E66748006800F40F
:1036100000300028F2D1207800F0020002285ED1AC
:103620006148806800F00C0004280BD05E48806878
:1036300000F00C000C2818D15B48C06800F00300B3
:10364000022812D15848006800F4806018B1E06880
:1036500008B90120B0E65448406820F0F850217CB9
:1036600040EA01605049486039E0E06800B34E48E4
:10367000006840F480704C490860FEF7B7F90546D1
:1036800006E0FEF7B3F9401B022801D9032093E6B8
:103690004548006800F480600028F2D04248406845
:1036A00020F0F850217C40EA01603F49486016E074
:1036B0003D48006820F480703B490860FEF796F9A9
:1036C000054606E0FEF792F9401B022801D90320C7
:1036D00072E63548006800F480600028F2D1207856
:1036E00000F00800082836D16069D0B12E48943027
:1036F000006840F001002C49C1F89400FEF776F90B
:10370000054606E0FEF772F9401B022801D90320A6
:1037100052E625489430006800F002000028F1D0FD
:1037200019E021489430006820F001001E49C1F8DA
:103730009400FEF75BF9054606E0FEF757F9401BDB
:10374000022801D9032037E617489430006800F0BA
:1037500002000028F1D1207800F0040004286ED186
:1037600000261148806D00F0805070B900BF0E48EF
:10377000806D40F080500C4988650846806D00F0EF
:103780008050009000BF00BF01260A48006800F486
:103790008070F0B90748006840F4807005490860FF
:1037A000FEF724F905460EE0001002402C790008CF
:1037B0007C00002000700040FEF718F9401B022832
:1037C00001D90320F8E58148006800F480700028E2
:1037D000F2D000BFA068012808D17D48006840F001
:1037E00001007B499039C1F8900021E0A0680528CC
:1037F0000FD17748006840F0040075499039C1F84E
:1038000090000846D0F8900040F00100C1F8900008
:103810000EE06F48006820F001006D499039C1F852
:1038200090000846D0F8900020F00400C1F8900005
:1038300000BFA068A0B1FEF7D9F8054609E02DE069
:10384000FEF7D4F8401B41F28831884201D90320A9
:10385000B2E55F48006800F002000028F0D012E0F6
:10386000FEF7C4F8054608E0FEF7C0F8401B41F239
:103870008831884201D903209EE55548006800F050
:1038800002000028F0D1012E07D151489038806DF8
:1038900020F080504E499039886500BFA06AE8B397
:1038A0004B489038806800F00C000C2879D0A06A52
:1038B000022853D146489038006820F0807044496F
:1038C00090390860FEF792F8054606E0FEF78EF89C
:1038D000401B022801D903206EE53D48903800685E
:1038E00000F000700028F1D1206B401E0101606BD8
:1038F00041EA0021A06B000941EA4040E16A084327
:10390000A18F0122C2EB510140EA41514020005DEC
:10391000C2EB500041EA40602D4900E053E090398D
:10392000C8600846006840F0807008600846C068BB
:1039300040F08070C860FEF759F8054606E0FEF7D3
:1039400055F8401B022801D9032035E5204890385E
:10395000006800F000700028F1D034E01C48903876
:10396000006820F080701A499039086008460068A5
:1039700000F0006048B90846006800F0005020B927
:103980000846C06820F00300C86011489038C0683D
:10399000104908400E499039C860FEF727F80546DF
:1039A00007E00EE0FEF722F8401B022801D90320B1
:1039B00002E507489038006800F000700028F1D157
:1039C00001E00120F8E40020F6E40000007000406F
:1039D00090100240FFFFEEFE70B50446002500BFC8
:1039E00094F87C00012801D1022070BD012084F8E8
:1039F0007C0000BF2068006800F40030B0F5003F94
:103A00002FD12068006820F400302168086094F805
:103A10007D00122810D1E06E70B1E06EFDF77CFCE5
:103A200050B1E06EC06B042806D00125D4F88000A8
:103A300040F08000C4F8800094F87D00222810D166
:103A4000206F70B1206FFDF767FC50B1206FC06B25
:103A5000042806D00125D4F8800040F08000C4F886
:103A60008000002021680861401E2168886120468E
:103A700002F07EFC00B101252068406840F008009B
:103A800021684860012084F87D0000BF002084F890
:103A90007C0000BF2846A8E7014600BF91F87C00E3
:103AA000012801D102207047012081F87C0000BF6D
:103AB0000868006820F400300A68106000BF002029
:103AC00081F87C0000BF00BFEDE7014600BF91F820
:103AD0007C00012801D102207047012081F87C0080
:103AE00000BF0868006840F400300A681060086889
:103AF000006800F4803028B90868006840F480301D
:103B00000A68106000BF002081F87C0000BF00BF81
:103B1000E2E770472DE9F041044694F87D00002863
:103B200076D020684569206806692068076805F036
:103B30000800082807D106F00800082803D120460D
:103B4000A16F884708E105F00100B8B106F0010057
:103B5000A0B101202168886194F87D00222801D15C
:103B6000012000E002208046D4F8800040EA0800EE
:103B7000C4F880002046FFF7CCFFEDE005F002001E
:103B800002280BD106F00200022807D121688861C3
:103B9000606F0028D6D0606F8047DDE005F0200020
:103BA00020283DD106F02000202839D1D4F880000B
:103BB00040F00400C4F8800007F40030B0F5003F86
:103BC00027D1E06E78B16648E16E8863E06EFDF75C
:103BD000C6FB40B1D4F8800040F08000C4F88000FB
:103BE0002046FFF796FF206F0028ABD05C48216F7E
:103BF0008863206FFDF7B3FB0028A3D0D4F88000C2
:103C000040F08000C4F880002046FFF782FFA3E068
:103C1000A3E02046FFF7E0FE2046FFF77AFF9BE097
:103C200005F0400040283CD106F04000402838D143
:103C3000D4F8800040F00800C4F8800007F4003099
:103C4000B0F5003F26D1E06E78B14548E16E88635B
:103C5000E06EFDF784FB40B1D4F8800040F08000B6
:103C6000C4F880002046FFF754FF206F002873D06F
:103C70003B48216F8863206FFDF771FB00286BD0F4
:103C8000D4F8800040F08000C4F880002046FFF7A0
:103C900040FF61E02046FFF79FFE2046FFF739FF17
:103CA0005AE005F00400042843D106F0040004287B
:103CB0003FD1D4F8800040F02000C4F8800007F421
:103CC0000030B0F5003F24D1E06E78B12448E16EB9
:103CD0008863E06EFDF743FB40B1D4F8800040F00C
:103CE0008000C4F880002046FFF713FF206FF8B172
:103CF0001B48216F8863206FFDF731FBC0B1D4F8FA
:103D0000800040F08000C4F880002046FFF701FFEB
:103D100022E0002021680861401E2168886101209E
:103D200084F87D000020A4F86A002046FFF7F1FE29
:103D300012E005F0100010280ED106F01000102837
:103D40000AD121688861D4F8800040F01000C4F8DE
:103D500080002046FFF7DDFE00BFBDE8F0810000D7
:103D6000A16200082DE9F047044614B90120BDE81E
:103D7000F08794F87D0028B9002084F87C00204664
:103D800000F0F4F8204602F0F3FA08B10120EEE763
:103D9000022084F87D00E06820B1012804D00228C8
:103DA00006D103E0002505E0102503E0202501E011
:103DB000002500BF00BFA06830B1012806D002284E
:103DC00007D003280DD107E000260CE04FF48066F1
:103DD00009E04FF4006606E04FF4006645F0010587
:103DE00001E0002600BF00BF5C492068884204D083
:103DF0005A4920312068884203D15848001F056085
:103E000001E057480560E06940B3544920688842A2
:103E100004D0524920312068884205D14FF4006017
:103E2000FEF7A2FA074604E04FF48050FEF79CFA32
:103E3000074607EB87004100E0694002B1FBF0F85C
:103E40000A20B8FBF0F12162B8FBF0F100FB118011
:103E5000082802D9206A401C206200BF606810B1A7
:103E60006068022808D1E06B012801D1002001E040
:103E70004FF40070814606E0E06B012801D140025A
:103E800000E000208146206800683649084021682B
:103E90000860216B60680843616B0843A16B0843AD
:103EA00040EA09003043616A0843216908436169B7
:103EB0000843218C40EA01502168096808432168C1
:103EC0000860206840684EF20F018843216848600E
:103ED000A16AA0690843E16A084321684968084368
:103EE00021684860206880681F4908402168886010
:103EF000206C401E216D0843A16C0843E16C08430F
:103F0000616C491E40EA01202168896808432168E4
:103F100088602068C0684FF2200108402168C860AE
:103F2000D4E9150108436021095B40EA0141E06DD5
:103F3000401E41EA00202168C96808432168C86022
:103F40000020C4F88000012084F87D0000BF00201C
:103F500084F87C0000BF00BF09E700000454014062
:103F60000058014010C005FF0080F8FF10B586B072
:103F700004462B49206888424FD12A480068A8B9D6
:103F800000BF2948006E40F4001027490866084623
:103F9000006E00F40010009000BF00BF0022114628
:103FA0004A20FEF73EF94A20FEF72EF91D48006828
:103FB000401C1C49086074200190022002900020DF
:103FC000039004900D20059001A91848FDF7FCFB13
:103FD0001748184908600120486010211548816081
:103FE0000021C16080210161490041618900816136
:103FF0002021C16109020162FDF75EFA20B14FF490
:10400000EE710DA003F005F800BF0A482067846236
:1040100000BF00BFE066846200BF06B010BD0000B4
:1040200004540140740000200010024000100048B9
:1040300008040240A42200202E2E2F5372632F73F7
:10404000746D33326C3478785F68616C5F6D737057
:104050002E6300002DE9F04104460E461546FDF79B
:10406000C5FC074606B115B90120BDE8F08194F8FA
:104070007D0001286AD100BF94F87C00012801D19D
:104080000220F2E7012084F87C0000BF44F8646F4E
:10409000A580E5800020E061122060762C48A168B0
:1040A00008632C48A168C8622B48A16848630020B7
:1040B000A1688863A38854F864CC0CF11C022168C1
:1040C000A068643CFDF77EFA30B100BF002084F8A0
:1040D0007C0000BF0120C8E70021204602F070F9F3
:1040E000216809690843216808612068006840F474
:1040F00000302168086012E0FDF778FCC01BB0F5C5
:104100007A7F0CD9D4F8800040F04000C4F88000D9
:1041100000BF002084F87C0000BF0320A5E72068D2
:10412000406900F4E0200028E6D02068006800F430
:10413000803028B92068006840F480302168086029
:1041400000BF002084F87C0000BF8EE702208CE7CF
:104150006363000825630008ED6200084FF4006106
:10416000014A118070470000000000200021014A30
:104170001180704700000020042808D14FF0E02192
:10418000096941F004014FF0E022116107E04FF0AE
:10419000E021096921F004014FF0E022116170472C
:1041A00010B52021F648FDF713FC08B1012000E00E
:1041B0000020F44908700221F348FDF709FC08B11A
:1041C000012000E00020F14908700421EE48FDF7CD
:1041D000FFFB08B1012000E00020ED49087010212C
:1041E000E748FDF7F5FB08B1012000E00020E949B0
:1041F00008704021E448FDF7EBFB08B1012000E026
:104200000020E54908708021DF48FDF7E1FB08B197
:10421000012000E00020E14908700821D848FDF79E
:10422000D7FB08B1012000E00020DD490870D54827
:10423000007801283CD0DB480068401CD949086060
:104240000020D9490860D7480068322841D3D548B2
:104250000068B0F5FA6F0DD9D448007818B1002085
:10426000D249087002E00120D04908703320CD49BE
:10427000086019E0CB480068962801D9012000E0C9
:104280000020C8490968FA2901D2012100E0002173
:10429000084048B1C648007818B10020C4490870E9
:1042A00002E00120C24908700120C249087010E0F4
:1042B0000020BC490860BC480068401CBA4908603E
:1042C00008460068322804D3332008600020B9492A
:1042D0000870AE48007801281FD0B7480068401C1D
:1042E000B54908600020B5490860B3480068322825
:1042F00024D3B1480068962820D9B148007840B14D
:10430000B048006880F01000AE4908600020AC4959
:1043100008703320A849086010E00120A8490870FF
:104320000020A5490860A5480068401CA349086012
:1043300008460068322801D333200860944800788A
:1043400001281FD0A0480068401C9F490860002039
:104350009E4908609C480068322824D39A48006827
:10436000962820D99A48007840B19648006880F095
:104370002000944908600020954908703320924934
:10438000086010E001209249087000208E49086002
:104390008E480068401C8D49086008460068322835
:1043A00001D3332008607B48007801281FD089485A
:1043B0000068401C874908600020874908608548DC
:1043C0000068322824D383480068962820D983487F
:1043D000007840B17B48006880F08000794908602F
:1043E00000207E49087033207A49086010E00120DF
:1043F0007A49087000207749086077480068401CB7
:104400007549086008460068322801D333200860E7
:104410006348007801281FD071480068401C70492B
:10442000086000206F4908606D480068322824D376
:104430006B480068962820D96B48007840B16148E5
:10444000006880F040005F490860002066490870FD
:1044500033206349086010E00120634908700020A0
:104460005F4908605F480068401C5E490860084674
:104470000068322801D333200860474800780128BB
:104480001FD05A480068401C58490860002058490D
:10449000086056480068322824D35448006896289B
:1044A00020D95448007840B14648006880F48070B4
:1044B0004449086000204F49087033204B49086088
:1044C00010E001204B490870002048490860484826
:1044D0000068401C4649086008460068322801D33D
:1044E000332008602D48007801281FD0424800681A
:1044F000401C414908600020404908603E4800686F
:10450000322824D33C480068962820D93C480078BB
:1045100040B12C48006880F400702A4908600020EF
:104520003749087033203449086010E001203449CD
:10453000087000203049086030480068401C2F494E
:10454000086008460068322801D3332008602D48EF
:10455000007828B12C480068401C2B49086002E014
:104560000020294908602948007828B128480068B7
:10457000401C2749086002E000202549086010BD62
:10458000000400481E000020000C00481F0000200E
:104590002000002021000020220000202500002013
:1045A00023000020300000203400002027000020DD
:1045B00024000020260000203C00002040000020B5
:1045C000280000203800002044000020480000207F
:1045D000290000204C000020500000202A0000206C
:1045E0005C000020600000202B0000205400002010
:1045F000580000202C0000206C00002070000020DB
:104600002D0000201D000020140000201C000020B0
:104610001800002070B504462546681EB0F1807F62
:1046200001D301200FE0681E4FF0E02148610F2107
:104630004FF0FF3001F016FC00204FF0E0218861C0
:1046400007200861002070BD10B5FFF7A9FD10BD5F
:1046500010B50346002200BF93F83C00012801D1A9
:10466000022010BD012083F83C0000BF22F0FF00B3
:10467000CC6840EA040222F440708C6840EA0402EC
:1046800022F480604C6840EA040222F400600C6866
:1046900040EA040222F480500C6940EA040222F449
:1046A00000504C6940EA040222F480408C6A40EADF
:1046B000040222F470200C8B40EA04420F4C18686C
:1046C000A04203D00E4C1868A0420ED122F4700014
:1046D0008C8C40EA045222F08070CC6940EA0402DB
:1046E00022F000700C6A40EA04021868426400BFBD
:1046F000002083F83C0000BF00BFB2E7002C01405F
:104700000034014030B502460B4600BF92F83C0031
:10471000012801D1022030BD012082F83C0000BFF9
:10472000022082F83D001068416810688468114DCD
:104730001068A84203D0104D1068A84203D121F49C
:1047400070015868014321F070011868014324F09A
:1047500080049868044310684160106884600120F8
:1047600082F83D0000BF002082F83C0000BF00BF7F
:10477000D1E70000002C01400034014010B5044690
:104780000CB9012010BD94F83D0028B9002084F830
:104790003C00204600F00CF8022084F83D00211D6A
:1047A000206801F0D3FE012084F83D000020E9E7F5
:1047B00008B51B4A016891420DD100BF1949896DA6
:1047C00041F01001174A91651146896D01F0100101
:1047D000009100BF23E0144A016891420DD100BF4F
:1047E0001049096E41F400310E4A11661146096EF6
:1047F00001F40031009100BF11E00C4A01689142C0
:104800000DD100BF0749096E41F48021054A1166A8
:104810001146096E01F48021009100BF00BF08BD60
:1048200000100040001002400044014000480140D8
:1048300010B586B004461349206888420ED1402046
:104840000190022002900020039004900E20059019
:1048500001A94FF09040FCF7B7FF11E00A4920682A
:1048600088420DD180200190022002900020039008
:1048700004900E20059001A94FF09040FCF7A4FF92
:1048800006B010BD004401400048014070B5044628
:104890000D46164600BF94F83C00012801D10220C5
:1048A00070BD012084F83C0000BF022084F83D0068
:1048B0000C2E51D005DC4EB1042E1ED0082E7AD11C
:1048C00033E0102E60D0142EF9D175E0294620680F
:1048D00001F0B4FE2068806940F00800216888611A
:1048E0002068806920F00400216888612068806960
:1048F000296908432168886177E02946206801F02A
:10490000F3FE2068806940F40060216888612068B7
:10491000806920F480602168886120688069296945
:1049200040EA0120216888615FE02946206801F0A3
:1049300035FF2068C06940F008002168C861206820
:10494000C06920F004002168C8612068C069296935
:1049500008432168C86148E02946206801F078FFD3
:104960002068C06940F400602168C8612068C0699F
:1049700020F480602168C8612068C069296940EA24
:1049800001202168C86130E02946206801F09AFFC3
:104990002068406D40F00800216848652068406D3F
:1049A00020F00400216848652068406D29690843AB
:1049B0002168486519E017E02946206801F0BAFF30
:1049C0002068406D40F40060216848652068406DB3
:1049D00020F48060216848652068406D296940EABC
:1049E00001202168486500E000BF00BF012084F875
:1049F0003D0000BF002084F83C0000BF00BF4FE72F
:104A000010B504460CB9012010BD94F83D0028B93A
:104A1000002084F83C00204600F00CF8022084F8C6
:104A20003D00211D206801F091FD012084F83D002A
:104A30000020E9E77047000030B504460D4601222A
:104A40002946206801F0E8FD1A49206888420FD005
:104A50001949206888420BD018492068884207D03D
:104A600017492068884203D016492068884201D13E
:104A7000012000E0002028B12068406C40F4004094
:104A800021684864206880680F490840062805D0DE
:104A9000206880680840B0F5803F01D1012000E027
:104AA000002028B92068006840F0010021680860F3
:104AB000002030BD002C0140003401400040014086
:104AC00000440140004801400700010010B50446C1
:104AD0000CB9012010BDA06900B100E000BF94F83E
:104AE000710028B9002084F87000204600F02AF8F0
:104AF000242084F871002068006820F001002168FB
:104B00000860204602F004F8012800D1E2E7606A5C
:104B100010B1204601F046FF2068406820F4904024
:104B2000216848602068806820F02A002168886039
:104B30002068006840F0010021680860204601F00C
:104B4000ADFFC7E710B586B0044612492068884219
:104B50001DD100BF1048006E40F480400E49086629
:104B60000846006E00F48040009000BF00BF4FF484
:104B7000F050019002200290002003900320049046
:104B80000720059001A94FF09040FCF71DFE06B0EC
:104B900010BD0000003801400010024000BFFEE7D9
:104BA00010B50548FCF7FCFF28B10448FCF78FFF5F
:104BB000024800F04FF810BDA8240020F424002083
:104BC00010B50248FCF7A4FF10BD000088210020AA
:104BD00010B50248FCF7D5FF10BD00008821002069
:104BE00010B50248FCF794FF10BD0000D42100204E
:104BF00010B50248FCF7C5FF10BD0000D42100200D
:104C000010B50348FCF763FF00F004F810BD000086
:104C1000F424002010B50C48FCF7C2FF98B90B48EB
:104C2000094908600A48486000210748816001215D
:104C3000C160002101614161C161016200F04EF873
:104C40000148FCF7B1FF10BDF424002000580040DB
:104C50002626119038B504461D492068884235D172
:104C600000BF1C48C06C40F002001A49C8640846E6
:104C7000C06C00F00200009000BF00BF00BF0846FB
:104C8000C06C40F00200C8640846C06C00F002002E
:104C9000009000BF00BF4FF440610F48FCF7F0FCEC
:104CA0000C48806B40F480000A4988630846806B9A
:104CB00020F4800088630846806D20F480008865B9
:104CC0002120FDF793FA2220FDF790FA38BD00006D
:104CD00000580040001002400004004810B5A8B081
:104CE00004462F492068884258D180200190C00195
:104CF000169001A8FDF790FF00BF2A48C06C40F055
:104D000002002849C8640846C06C00F00200009008
:104D100000BF00BF00BF0846C06C40F00200C8647E
:104D20000846C06C00F00200009000BF00BF4FF4C6
:104D3000406023901220249001202590032026908B
:104D40000420279023A91848FCF73EFD00BF154812
:104D5000806D40F48000134988650846806D00F43A
:104D60008000009000BF00BF0846806B40F48000C8
:104D700088630846806B20F4800088630022114617
:104D80002120FDF74EFA2120FDF73EFA00221146C0
:104D90002220FDF746FA2220FDF736FA28B010BD92
:104DA0000058004000100240000400482DE9FE4376
:104DB00004460D4616461F46DDF828904FF00008C1
:104DC0000948006833462A462146CDE90079029019
:104DD0000648FCF751FF8046B8F1000F01D0FFF7FD
:104DE0000FFF404600F004B8D4000020D42100207A
:104DF00006BCBDE8F88300002DE9FE4304460D46DD
:104E000016461F46DDF828904FF000080948006854
:104E100033462A462146CDE9007902900648FCF740
:104E2000FFFF8046B8F1000F01D0FFF7E9FE4046D2
:104E300000F004B8D4000020D421002006BCBDE856
:104E4000F88370B50546AC6A2068406840F40040BD
:104E5000216848600020A16B8863E16B886394F847
:104E60004100602806D1202084F841002046FCF74C
:104E70002CFE02E02046FCF792FE70BD10B5024603
:104E8000002001F001034BB140F0420092F84130A4
:104E900003F02803282B01D040F0B00001F00203FA
:104EA000022B09D140F0440092F8413003F028036E
:104EB000282B01D040F0B00001F00403042B01D1F5
:104EC00040F0B80001F01103112B01D140F0900027
:104ED00001F01203122B01D140F0200001F0120367
:104EE000122B01D140F0400013681B688343146803
:104EF000236010BD01688969C1F3400111B100212F
:104F0000026891620168896901F0010129B90168AB
:104F1000896941F001010268916170472DE9F0470C
:104F20000446894694F8410000F02800282850D112
:104F300020688069C0F300472068806900F47E0023
:104F4000050C20688068C0F309062068C06800F07E
:104F5000FE08E06802282DD105F00600062101EACE
:104F6000E611884216D13546A06C401CA064A06CA6
:104F7000022836D10020A06408202168C86100BF43
:104F8000002084F8400000BF2A4639462046FCF73E
:104F90009DFD26E0454604212046FFF76FFF00BF38
:104FA000002084F8400000BF2A4639462046FCF71E
:104FB0008DFD16E004212046FFF760FF00BF0020B2
:104FC00084F8400000BF2A4639462046FCF77EFDA3
:104FD00007E008202168C86100BF002084F8400075
:104FE00000BFBDE8F087000070B504460D46002004
:104FF00084F842004248E06200206085606C2843EB
:10500000606494F84100282807D094F841002928CA
:1050100003D094F841002A280BD103212046FFF742
:105020002DFF282084F8410000202063354860636C
:105030000DE007212046FFF721FF94F8410060288A
:1050400002D0202084F841000020206360632068A3
:10505000006800F48040B0F5804F19D120680068E6
:1050600020F4804021680860A06B002847D02648C3
:10507000A16B886300BF002084F8400000BFA06BD4
:10508000FCF76DF900283AD0A06B816B884736E0B9
:105090002068006800F40040B0F5004F17D1206888
:1050A000006820F4004021680860E06B38B31648BF
:1050B000E16B886300BF002084F8400000BFE06B14
:1050C000FCF74DF9D8B1E06B816B884717E094F895
:1050D000410060280BD1202084F8410000BF00204F
:1050E00084F8400000BF2046FCF7EFFC07E000BF5B
:1050F000002084F8400000BF2046FCF750FD70BD42
:105100000000FFFFA5540008434E000870B5044698
:105110000D461848E06200202063202084F84100FA
:10512000002084F84200606305F0040090B120681C
:10513000406AC1B2626A501C60621170208D48B131
:10514000208D401E2085608D401E6085606C40F083
:105150000400606407212046FFF790FE10202168BC
:10516000C86100BF002084F8400000BF2046FCF763
:1051700081FD70BD0000FFFF70B504460D46202084
:105180002168C86108202168C86107212046FFF70F
:1051900075FE2068406840F400402168486020683F
:1051A000406841490840216848602046FFF7A2FE58
:1051B0002068006800F48040B0F5804F06D0206879
:1051C000006800F40040B0F5004F12D1E06B08B960
:1051D000A06B70B12068006800F48040B0F5804F8B
:1051E00003D1A06B0068406802E0E06B0068406893
:1051F000608505F0040070B12068406AC1B2626A3F
:10520000501C60621170208D28B1208D401E2085B9
:10521000608D401E6085608D18B1606C40F00400A8
:1052200060640020206384F842006063606C60B1B9
:10523000616C2046FFF7D8FE94F84100282831D150
:1052400029462046FFF762FF2CE0E06A10F5803F18
:105250000DD01648E062202084F8410000BF0020F5
:1052600084F8400000BF2046FCF704FD1AE094F8E3
:10527000410022280BD1202084F8410000BF0020EB
:1052800084F8400000BF2046FCF73EFF0AE02020E3
:1052900084F8410000BF002084F8400000BF204691
:1052A000FCF733FF70BD000000E800FE0000FFFFC8
:1052B00010B50446002084F8420094F841002928E3
:1052C00011D1282084F841002120206301212046AB
:1052D000FFF7D4FD00BF002084F8400000BF204647
:1052E000FCF713FF14E094F841002A2810D128207D
:1052F00084F841002220206302212046FFF7BEFDF2
:1053000000BF002084F8400000BF2046FCF7FCFEF0
:1053100010BD000070B504460D4616462068806931
:10532000C0F3001000283DD017E0681CA8B1FCF7BE
:105330005DFB801BA84200D87DB9606C40F0200066
:105340006064202084F84100002084F8420000BFFF
:1053500084F8400000BF012070BD20688069C0F360
:1053600040100028E1D010202168C8612020216869
:10537000C8612046FFF7BEFD206840680A49084022
:1053800021684860606C40F004006064202084F86C
:105390004100002084F8420000BF84F8400000BFB4
:1053A0000120D9E70020D7E700E800FE2DE9F84307
:1053B0000446894615461E46DDE908781948F2B2CA
:1053C000002349460090204600F00CF94246394639
:1053D000204600F07BF910B10120BDE8F883012ED2
:1053E00003D1E8B2216888620EE0C5F30720216886
:1053F000886242463946204600F068F908B101202B
:10540000EBE7E8B2216888623B4600224021204653
:10541000CDF8008000F000F908B10120DDE70020A0
:10542000DBE70000002000802DE9F84304468946B0
:1054300015461E46DDE908781948F2B2C30249460E
:105440000090204600F0CEF842463946204600F053
:105450003DF910B10120BDE8F883012E03D1E8B277
:10546000216888620EE0C5F3072021688862424601
:105470003946204600F02AF908B10120EBE7E8B2EE
:10548000216888623B46002280212046CDF80080BA
:1054900000F0C2F808B10120DDE70020DBE70000E2
:1054A0000020008070B504460D46164600BF94F8F3
:1054B0004000012801D1022070BD012084F8400085
:1054C00000BF05F0100098B306F0100080B3608DA7
:1054D00030BBE06AB0F1007F03D0E06AB0F1007F3A
:1054E00008D194F84100282804D129462046FFF726
:1054F0000DFE66E0E06A10F5803F0DD094F84100A3
:10550000292809D110202168C8612046FFF7F2FC44
:105510002046FFF7CDFE54E010202168C86150E01E
:1055200010202168C861606C40F00400606448E0AD
:10553000FFE705F00400D8B106F00400C0B1608DAB
:1055400060B12068406AC1B2626A501C606211702A
:10555000208D401E2085608D401E6085608D30BB93
:10556000E06A10F5803F2CD02046FFF7A1FE28E02E
:1055700005F0080038B106F0080020B129462046A1
:10558000FFF7CCFC1DE005F0020080B106F0020040
:1055900068B1608D60B1616A481C606208782168FA
:1055A0008862608D401E6085208D401E208508E049
:1055B000E06AB0F1807F01D0E06A10B92046FFF7C1
:1055C00077FE05F0200030B106F0200018B1294622
:1055D0002046FFF7D1FD00BF002084F8400000BF47
:1055E00000BF69E7F0B5059C05686D684FF48066FB
:1055F00006EA545666F0FC2646F4C046B543C1F3AD
:1056000009064FF47F0707EA02473E431E4326433D
:10561000354306687560F0BD2DE9F04104460E463D
:1056200017461D46DDF8188019E0681CB8B1FCF774
:10563000DDF9A0EB0800A84200D885B9606C40F005
:1056400020006064202084F84100002084F842009B
:1056500000BF84F8400000BF0120BDE8F081206851
:1056600080693040B04201D1012000E00020B84202
:10567000DBD00020F1E770B504460D4616461DE06C
:10568000324629462046FFF745FE08B1012070BD8D
:10569000FCF7ACF9801BA84200D87DB9606C40F0E3
:1056A00020006064202084F84100002084F842003B
:1056B00000BF84F8400000BF0120E8E7206880694F
:1056C000C0F340100028DBD00020E0E770B50446AE
:1056D0000D4616461FE0324629462046FFF71AFEC1
:1056E00008B1012070BD681CA8B1FCF77FF9801BD0
:1056F000A84200D87DB9606C40F020006064202092
:1057000084F84100002084F8420000BF84F8400083
:1057100000BF0120E6E720688069C0F34000002850
:10572000D9D00020DEE700008168024A1140491C00
:1057300081607047C0FFFF7F0146886800F0E0701D
:105740007047024602F1600000EB8103186800F028
:10575000F840704701468868C0F300707047014602
:105760008868C0F38000704701468868C0F38000F5
:10577000704700008168024A1140091D816070472E
:10578000C0FFFF7F70B501F000744FF0007595FA0F
:10579000A5F5B5FA85F5EC4000F1140505EB840399
:1057A00001F0F8754FF0F87696FAA6F6B6FA86F696
:1057B000F5400726AE401C68B44301F0F8754FF081
:1057C000F87696FAA6F6B6FA86F6F54002FA05F5E8
:1057D0002C431C6070BD826822F0E0720A43826034
:1057E000704710B500F1600404EB81031C6824F0DD
:1057F000004414431C6010BD00B589B032483349E1
:1058000008604FF480104860002130488160C1601A
:105810000121016104214161002181610121C161F6
:105820000321016200214162012181620021C162E4
:10583000016341638163C163FBF738FA20B14FF420
:10584000007123A001F0E5FB0020069006A91F4887
:10585000FAF7FCFE20B14FF402711DA001F0D9FB54
:105860001F4800900620019002907F2003900420A2
:1058700004900020059069461448FAF78BFF20B188
:1058800040F2152112A001F0C4FB164800900C2034
:10589000019069460D48FAF77DFF20B140F21E21C4
:1058A0000BA001F0B6FB1048009012200190694651
:1058B0000648FAF76FFF20B140F2272104A001F05B
:1058C000A8FB09B000BD000000000450202100200A
:1058D0002E2E2F5372632F6D61696E2E63000000B0
:1058E00002003004040060080800900C08B500BFF6
:1058F0000A48806C40F00200084988640846806CC1
:1059000000F00200009000BF00BF002211463820C6
:10591000FCF787FC3820FCF777FC08BD001002403C
:1059200000B587B000BF5448C06C40F01000524929
:10593000C8640846C06C00F01000019000BF00BFB2
:1059400000BF0846C06C40F00400C8640846C06C44
:1059500000F00400019000BF00BF00BF0846C06C0B
:1059600040F00100C8640846C06C00F001000190DE
:1059700000BF00BF00BF0846C06C40F00200C86412
:105980000846C06C00F00200019000BF00BF00BFDD
:105990000846C06C40F00800C8640846C06C00F0BF
:1059A0000800019000BF00BF002247F28831334851
:1059B000FCF716F800224FF460413148FCF710F86C
:1059C00000224FF638712F48FCF70AF800224FF4F6
:1059D000FE512D48FCF704F847F288300290012070
:1059E000039000200490059002A92448FBF7ECFEE8
:1059F0004FF440600290254803900020049002A9D3
:105A00001E48FBF7E1FE4FF4604002900120039036
:105A100000200490059002A91948FBF7D5FE4FF627
:105A2000387002900120039000200490059002A994
:105A30001448FBF7C9FE4FF4FE500290012003907A
:105A400000200490059002A90F48FBF7BDFEC62078
:105A5000029000200390049002A90A48FBF7B4FECC
:105A60003820029000200390049002A90448FBF71C
:105A7000ABFE07B000BD000000100240001000485F
:105A800000040048000C0048000800480000111005
:105A900010B5164816490860164848600021144899
:105AA00081600121C1600021016141618161C161A9
:105AB0000162FCF779F820B140F23B210EA001F021
:105AC000A8FA00210A48FBF797FF20B140F24221D3
:105AD00009A001F09EFA00210548FBF7C2FF20B1A2
