:020000040800F2
:10000000802800209D01000817490008113B0008C6
:1000100015490008970700088956000800000000ED
:10002000000000000000000000000000714D00080A
:10003000DF0700080000000039490008734D000880
:10004000B7010008B7010008B7010008B7010008B0
:10005000B7010008B7010008B7010008B7010008A0
:10006000B7010008B7010008B7010008B701000890
:10007000B7010008B7010008B7010008B701000880
:10008000B7010008B7010008B7010008B701000870
:10009000B7010008B7010008B7010008B701000860
:1000A000B7010008B7010008B7010008B701000850
:1000B000B7010008B7010008B7010008213B00089C
:1000C000153B0008393B00082D3B0008B70100082C
:1000D000B7010008B7010008B7010008B701000820
:1000E000B7010008B7010008B7010008B701000810
:1000F000B7010008B7010008B7010008B701000800
:10010000B7010008B7010008B7010008B7010008EF
:10011000B7010008B7010008B7010008B7010008DF
:10012000A5070008B7010008B7010008B7010008DB
:10013000B7010008B7010008B7010008B7010008BF
:10014000B7010008B7010008B7010008B7010008AF
:10015000B7010008B7010008B7010008B70100089F
:10016000B7010008B7010008394C0008B7010008C2
:10017000B7010008B7010008B7010008000000003F
:10018000B7010008B7010008DFF80CD000F09EF9B5
:10019000004800471D5A0008802800200648804774
:1001A00006480047FEE7FEE7FEE7FEE7FEE7FEE75C
:1001B000FEE7FEE7FEE7FEE7314E00088901000892
:1001C0002DE9F05F0546002092469B46884606468C
:1001D000814640241BE0284641464746224600F01F
:1001E000D0F853465A46C01A914110D311461846CA
:1001F000224600F0B7F82D1A67EB01084F46224659
:100200000120002100F0AEF817EB00094E41201E3E
:10021000A4F10104DFDC484631462A46434600F09B
:1002200000B830BCBDE8C09F2DE9FE4F81EA030451
:1002300004F0004421F0004100944FF0000B23F043
:10024000004350EA01045ED052EA03045BD0C3F3DA
:100250000A54C1F30A552C44A4F2F3340194A0FBD0
:100260000254C1F3130141F48011C3F3130343F4A7
:10027000801301FB024400FB034E840A970A44EA00
:10028000815447EA8357A4FB076802958D0A05FB52
:1002900007854FEA932C04FB0C542705029D4FEA77
:1002A000065847EA1637B5EB08056EEB070C870EC4
:1002B000920E47EA811742EA8312A7FB0201B6EBCE
:1002C0000B0164EB00042B0D43EA0C335E1844EB86
:1002D0001C50DA465146E7FB0201C5F313044FEA0E
:1002E0000B3343EA14534FEA0432019C43EA0603FA
:1002F000A4F10C040294009CCDE900B400F097F83E
:1003000003B000F003B800200146F9E730BCBDE8B7
:10031000C08F0EB540F2334102910021CDE90011AA
:100320000A460B4600F083F803B000BD01F000431D
:1003300030B421F0004150EA010206D00A0DA2F5C6
:100340006072C1F31301002A02DC30BC0020704748
:10035000440F44EAC104C100E01830BC00EBC250B5
:1003600000F01FB8202A04DB203A00FA02F1002036
:1003700070479140C2F1200320FA03F319439040E3
:100380007047202A04DB203A21FA02F0002170474E
:1003900021FA02F3D040C2F12002914008431946ED
:1003A00070470029A8BF7047401C490008BF20F0D3
:1003B0000100704710B4B0FA80FC00FA0CF050EA6B
:1003C000010404BF10BC704749B1CCF1200421FAEC
:1003D00004F411FA0CF118BF012121430843A3EBE7
:1003E0000C01CB1D4FEA00614FEA102042BF0020F4
:1003F00010BC704700EBC35010440029A4BF10BCD0
:100400007047401C490008BF20F0010010BC704735
:1004100010B5141E73F1000408DA401C41F100010C
:1004200092185B411A4301D120F0010010BD2DE963
:10043000F04D92469B4611B1B1FA81F202E0B0FA5A
:1004400080F220329046FFF78DFF04460F4640EAC7
:100450000A0041EA0B0153465A46084313D011469D
:1004600053EA010019D0C8F140025046FFF789FF56
:1004700005460E46504659464246FFF773FF08436D
:1004800005D0012004E020463946BDE8F08D00206B
:10049000054346EAE0762C4337430A986305E40AAD
:1004A000A0EB08000022FD0A44EA47540A3002D5B6
:1004B00000200146E9E7010510196941DDE9084519
:1004C00000196941BDE8F04DA2E70000064C074D58
:1004D00006E0E06840F0010394E807009847103414
:1004E000AC42F6D3FFF754FEC0600008E06000089D
:1004F00070B5044600680022836813F00C0F52D0D8
:10050000C3689B0105D5E369012B02D1A369012BC7
:1005100024D002290ED020688268520708D582684C
:10052000920705D48268214B1A4042F01002826083
:1005300001290ED020688268120706D582689207CA
:1005400003D4826842F020028260022915D0032978
:1005500011D0042501F006F9064620E00121144BD4
:1005600002E09A4211D2521C0568ED436D06F8D4A0
:1005700040220260CFE70C25ECE70825EAE700BF40
:1005800001F0F0F8801B052809D9A06D40F010009B
:10059000A065E06D40F00100E065012070BD2068BD
:1005A00080682842ECD1002070BD0000C0FFFF7FB2
:1005B000000040A370B504460068816801F00301A3
:1005C000012926D10168C90723D0816801F00D01F6
:1005D000012910D18168104A1140891C816021686D
:1005E0000320086001F0BEF805460EE001F0BAF8FD
:1005F000401B022809D9A06D40F01000A065E06DF5
:1006000040F00100E065012070BD20688068C007EF
:10061000ECD1002070BD0000C0FFFF7FF8B504469C
:10062000002000902068816801F00301012902D1B7
:100630000168C90735D181681B4A114222D18168FE
:10064000D5432940491C8160184819490068B0FB0E
:10065000F1F000EB8000400000E0401E0090002818
:10066000FBD101F07FF8064616E0816811F0010F1A
:1006700003D181682940491C816001F073F8801B17
:10068000022809D9A06D40F01000A065E06D40F08F
:100690000100E0650120F8BD20680168C943C90771
:1006A000E3D10020F8BD00003F000080880000205A
:1006B00080841E001F4810B5C16C86B041F0100147
:1006C000C164C06C1C4C00F010000590012001902A
:1006D0007C2000900220029003200390694620466F
:1006E00000F04CFF00220421204601F035F80022E2
:1006F0000821204601F030F800221021204601F0A8
:100700002BF800222021204601F026F8002240216B
:10071000204601F021F8094801F0D6F8002807D05A
:1007200006484C3001F07AF804484C3003F036FAB1
:1007300006B010BD0010024000100048E423002065
:1007400010B5094C00220821204601F005F80520CB
:1007500000F05CFE01220821204600F0FDFFBDE80C
:100760001040052000F052BE001000481CB50022C9
:100770008DF80420012201AB009203F09BFA9DF852
:1007800004001CBD07B582B0012204AB009203F047
:10079000A7FA05B000BDFEE710B5FFF7F3FF002094
:1007A00010BD0000014800F03CBD00009C2300206B
:1007B00030B590F8444004F01C050124AC40056CB1
:1007C0006C60046863608368102B036803D09960D1
:1007D0000068C26030BD9A600068C16030BD70477B
:1007E000F0B5044690F8540000269BB00D46012851
:1007F0000DD0012084F85400324920680027884237
:1008000008D13149009103F023FE58B10EE00220D7
:100810001BB0F0BDA06D40F02000A06584F85470BE
:100820000120F5E7009803F013FE48B1A06D40F0F9
:100830002000A0655FF0010684F854703046E7E7B9
:1008400022482A6840F61F71002A826822F460421A
:100850001FD0636B42EA43326B681A43826022689E
:10086000936803F00303012B02D11268D207E3D18E
:10087000009A926802F00302012A03D1009A1268DA
:10088000D207D9D1AB682A681A4383688B431A43CD
:1008900015E082602268936803F00303012B02D104
:1008A0001268D207C8D1009A926802F00302012AA6
:1008B00003D1009A1268D207BED182688A4382604F
:1008C000BAE7000000000450000104500003045087
:1008D0002DE9F84300270446009790F85400DFF80C
:1008E000D4930D46B846012811D0012684F85460EF
:1008F000206803F0A9FD60B1A06D40F02000A06564
:100900005FF0010784F854803846BDE8F883022080
:10091000FBE76868052812D8022807D0032807D00B
:10092000042807D0052807D0062007E00C2005E0A2
:10093000122003E0182001E04FF480706860A9885D
:100940004FF4407C01F440739CFAACFCBCFA8CFC84
:10095000206823FA0CF300EB83002A6801F01F01E2
:100960004FF01F0C0CFA01FC036BC2F3846223EA04
:100970000C038A40134303632068816811F00C0F55
:100980001CD1AA68296803F067FD20686969C268FC
:10099000C2F3C102520091402A69042A0FD000EB31
:1009A00082002B68DFF810C3026E03F0F84302EAFE
:1009B0000C020B431A4342F00041016672E0002131
:1009C00003F03CFD400320684FF0000173D003F0BA
:1009D00035FD90FAA0F0B0FA80F1286842036FD09C
:1009E00090FAA0F0B0FA80F0814204D100221146C2
:1009F000206803F054FD0121206803F01FFD40032F
:100A000020684FF001015ED003F018FD90FAA0F0CD
:100A1000B0FA80F1286842035AD090FAA0F0B0FAF8
:100A200080F0814204D100220121206803F037FDCB
:100A30000221206803F002FD400320684FF002010C
:100A400049D003F0FBFC90FAA0F0B0FA80F12868DE
:100A5000420345D090FAA0F0B0FA80F0814204D170
:100A600000220221206803F01AFD0321206803F010
:100A7000E5FC400320684FF0030134D003F0DEFCB6
:100A800090FAA0F0B0FA80F12868420330D090FAD2
:100A9000A0F0B0FA80F0814204D100220321206846
:100AA00003F0FDFC2068816801F00301012925D1D4
:100AB00021E000E004E003F0C1FCC0F384618CE7B6
:100AC000C0F3846090E703F0B9FCC0F38461A1E750
:100AD000C0F38460A5E703F0B1FCC0F38461B6E71E
:100AE000C0F38460BAE703F0A9FCC0F38461CBE7EC
:100AF000C0F38460CFE70168C9077DD12A7B2968EC
:100B000050F8B03FC1F3120C23EA0C0302F0200CA2
:100B10004FF0FF3202FA0CF20A40C2F312010B430B
:100B20000360E96849456AD12868410317D090FA03
:100B3000A0F1B1FA81F1491C09294FEA40312DD8C1
:100B400000290FD090FAA0F1B1FA81F101F1010171
:100B500006FA01F609D100BFC0F3846109E0C0F3D1
:100B60008461E8E7C0F38461F0E790FAA0F1B1FA9C
:100B700081F101F1010146EA816102D1C0F3846093
:100B800003E090FAA0F0B0FA80F000EB40004FF4E0
:100B9000401202EB005041EA00012AE000290CD08B
:100BA00090FAA0F1B1FA81F101F1010106FA01F622
:100BB00006D100BFC0F3846106E0C0F38461F3E7AF
:100BC00090FAA0F1B1FA81F101F1010146EA8161E7
:100BD00002D1C0F3846003E090FAA0F0B0FA80F094
:100BE000364A00EB400002EB005041EA000141F0C0
:100BF0000071AA68206800E001E003F02DFCDFF836
:100C0000C0C029682F4D304B3048614504D18268FF
:100C100002F0E07212020FD5A94204D1826802F0FC
:100C2000E072D20108D599427FF46CAE826802F07E
:100C3000E07252023FF566AE254A264E61451CD150
:100C40002168914201D0B142EED18168826801F001
:100C5000E07141F4000122F0E0720A4382601E4814
:100C60001E490068B0FBF1F0C0EB0010C00000E0CE
:100C7000401E00900028FBD144E6A9420AD1216819
:100C8000914201D0B142F7D1816801F0E07141F0A9
:100C9000807109E09942EFD121689142ECD18168DD
:100CA00001F0E07141F48001826822F0E0720A43B1
:100CB000826027E600007F4000F0FF03000050FE46
:100CC000000052C7000084CB0100008000030450E4
:100CD00000000450000204508800002080841E00A0
:100CE0000068006C70470000F8B54FF00005040084
:100CF0002E46009502D0A06D10B107E00120F8BD8E
:100D0000204600F0FDF8E66584F8546020688168AC
:100D1000C1F3407119B18168704A11408160206847
:100D20008168C1F3007191B981686D4A114041F049
:100D3000805181606B486C490068B0FBF1F000EBBA
:100D40008000400000E0401E00900028FBD1206899
:100D50008168C1F3007141B9A16D41F01001A16535
:100D6000E16D41F00101E1650125A16DC90602D4E3
:100D700003F06AFB30B1A06D40F01000A0650125C2
:100D80002846F8BDA06D20F4807040F00200A065F8
:100D90002168886800F00300012802D10868C007B4
:100DA0003FD15248814212D1D0F8081101F003011D
:100DB000012903D1D0F80011C90732D1D0F80812A7
:100DC00001F00301012925D1D0F8000220E0484AB2
:100DD0009142816801F003010DD1012902D101681E
:100DE000C9071ED1D0F8081201F00301012907D16B
:100DF000D0F8001202E0012902D10168C90710D120
:100E0000D0F8081101F00301012903D1D0F8000145
:100E1000C00706D1374960688A6822F47C12024311
:100E20008A60E168A06BE2690843A16841EA423147
:100E30000843616A40EA0140012904D1218D2E4A0C
:100E400002EB41410843E16A29B101F47071226B60
:100E5000014342EA01002268D168284B194001434E
:100E6000D1602068816811F00C0F12D1A169626B0A
:100E7000890341EA4202C16844F2020399431143E3
:100E8000C160E06B01280CD02068016921F00101EC
:100E90000161206901282068016B21F00F0111D048
:100EA00013E0D4E910010843D4E9121211430843B6
:100EB00021680A6940F2FC739A43104340F0010034
:100EC0000861E6E7226A521E11430163A06D20F01B
:100ED000020040F00100A06552E70000C0FFFF5F84
:100EE000C0FFFF7F8800002080841E0000000450A7
:100EF00000010450000304500000FEFF07C0F0FF93
:100F000000B500680C4987B0884212D10B48C16C0B
:100F100041F40051C164C06C694600F40050059072
:100F2000072000900B20019000200290044800F060
:100F300025FB07B000BD0000000004500010024077
:100F4000000800482DE9F04104464069444D0F4631
:100F5000082822D02068A84202D0424988421ED1E7
:100F6000D5F80813C9061AD0D5F8081301F01F01E7
:100F7000052914D0D5F8081301F01F0109290ED056
:100F8000D5F80803C0F3813002280BD0D5F8080348
:100F9000C0F38130032805D00BE008260AE0C068C2
:100FA000C00706D0A06D40F02000A0650120BDE87C
:100FB000F081042600F0D6FB804611E0781C0FD0AB
:100FC0002FB100F0CFFBA0EB0800B84208D9A06D0C
:100FD00040F00400A065002084F854000320E6E7F8
:100FE000206800683042E9D0A06D40F40070A06530
:100FF0002068C16811F4406F0FD1E16969B90168D7
:1010000009070AD5A16D21F48071A165A16DC904FC
:1010100003D4A16D41F00101A165A8421BD0124982
:10102000884218D0D5F80813C90614D0D5F808138B
:1010300001F01F0105290ED0D5F8081301F01F019A
:10104000092908D0E968082E07D0490401D40C21E9
:1010500001600020ABE7C168F5E70821F8E7000070
:1010600000000450000104500002045070B5044612
:10107000006803F0E9F910B10222104670BD94F83F
:10108000540001280CD0012084F854002046FFF7BA
:10109000C5FA02004FF0000104D084F85410ECE7C8
:1010A000022070BDA06D40F60163984340F480704B
:1010B000A06527482368274D834205D0AB4203D063
:1010C000D0F80863F60603D1A66D26F48016A6654F
:1010D000A66DF60404D5E66D26F00606E66500E08A
:1010E000E1651C261E6084F85410216881421FD0DF
:1010F000A9421DD0D0F80833DB0619D0D0F8083348
:1011000003F01F03052B13D0D0F8083303F01F039F
:10111000092B0DD0A16D41F48011A165C06880013B
:10112000ABD5A06D20F4005040F48050A065A4E73A
:10113000C868800105D5A06D20F4005040F48050AF
:10114000A0658868044B1840001D886095E7000082
:101150000000045000020450C0FFFF7F10B5044699
:1011600090F85400012808D0012084F8540003218D
:101170002046FFF7BDF910B10BE0022010BD20465C
:10118000FFF718FA28B9A16D21F4885141F0010147
:10119000A165002184F8541010BDC8B101680A6827
:1011A00022F00E020A6001680A6822F001020A6059
:1011B00090F84410036C01F01C02012101FA02F2C4
:1011C0005A6080F82510002180F8241008467047E6
:1011D0000120704710B590F825100024022903D093
:1011E0000421C16301241AE001680A6822F00E029A
:1011F0000A6001680A6822F001020A6090F844104F
:10120000036C01F01C02012101FA02F25A6080F81D
:101210002510002180F82410816B01B188472046F9
:1012200010BDF0B4016C0C6801680D6890F84420A2
:1012300002F01C06042202FA06F3234211D06B07C7
:101240000FD50B689B0603D40B6823F004030B60D7
:1012500090F8441001F01C018A40016C4A60016B57
:101260001DE0022303FA06F727424FF0000C4FF06F
:10127000010218D0AF0716D50C68A40605D40C6877
:1012800024F00A040C6080F8252090F8441001F046
:101290001C018B40016C4B6080F824C0C16A00299E
:1012A0001AD0F0BC08470823B340234214D02B07C0
:1012B00012D50B6823F00E030B6090F84410036CFA
:1012C00001F01C0102FA01F15960C26380F8252087
:1012D00080F824C0416BE2E7F0BC704770B568B19C
:1012E0002B4C036814212B4AA34209D22A4C1C44DC
:1012F000B4FBF1F18900C0E910210BE0012070BDC1
:10130000234C64421C44B4FBF1F189004164204940
:1013100008390164022180F825101C6847F6F07135
:101320008C43D0E902152943D0E9045635432943BB
:1013300085692943C5692943056A29432143196001
:101340008168B1F5804F19D0036C0F21934202D10F
:1013500052F8A83F02E00E4AA032136890F84440C9
:1013600004F01C04A1408B43136090F844304168A2
:1013700003F01C0399401368194311600021C163F5
:10138000012280F8252080F82410084670BD000056
:101390000804024000000240F8FFFDBF70B504469B
:1013A00090F82400002501280CD0012084F82400A6
:1013B00094F825600020012E06D084F82400022530
:1013C000284670BD022070BD022684F82560E063C7
:1013D0002068066826F0010606602046FFF7E8F957
:1013E000206B00282068016802D041F00E0106E061
:1013F00021F0040101602068016841F00A010160E8
:101400002068016841F001010160D9E770B5044628
:1014100000F0A8F90546601C00D0641C00F0A2F999
:10142000401BA042FAD370BD2DE9F04F00230127E5
:101430000F24DFF820A186E007FA03F616EA01027E
:101440007ED005684FEA43084FF0030C0CFA08FC05
:1014500045EA0C050560DD0800EB8508C346D8F8B1
:1014600020905D074FEAD56804FA08F529EA0509D6
:10147000CBF82090856825EA0C0585604568B54362
:101480004560C56825EA0C05C560C56AB543C562F7
:1014900023F0030606EB0A05D5F808C09E07360FB1
:1014A00004FA06F909EA0C08B0F1904F06D0DFF80B
:1014B000A8C0604505D14FF0010C27E04FF0000CAB
:1014C00024E0DFF898C0604502D14FF0020C1DE027
:1014D000DFF88CC0604502D14FF0030C16E0DFF856
:1014E00084C0604502D14FF0040C0FE0DFF878C0F3
:1014F000604502D14FF0050C08E0DFF870C0604590
:1015000002D14FF0060C01E04FF0070C0CFA06FC7C
:10151000C44517D1D5F808C02CEA090CC5F808C095
:10152000134D2E6896432E602D1D2E6896432E6017
:101530002D1D2E6896432E602D1D2E68964300E0CB
:1015400000E02E605B1C31FA03F27FF475AF00F00F
:1015500011B80000000001400004004800080048E5
:10156000000C004800100048001400480018004813
:101570000004014030BCBDE8C08F00002DE9F84FE9
:10158000DFF898B100234FF0010C4FF0030A4FF041
:101590000F090BF1040EB9E00CFA03F4224070D0ED
:1015A0004D68022D01D0122D0ED1DD0800EB85080B
:1015B000D8F820505E07F70E09FA07F6B5430E6912
:1015C000BE402E43C8F8206007685E0091F8048092
:1015D0000AFA06F508F00308AF4308FA06F848EAE5
:1015E0000708C0F800804F68012F05D0022F03D0F4
:1015F000112F01D0122F13D1D0F80880CF6828EA1C
:101600000508B74047EA08078760D0F804800F79DB
:1016100028EA0408C7F300179F4047EA0807476015
:10162000D1F804806FEA0807BF0706D1C76AA7434D
:10163000C8F3C0049C403C43C462C468AC438D689A
:10164000B5402543C5604C68E4005ED5344C256E3A
:1016500045F001052566246E23F0030504F001041E
:101660000094304C2E19B4689D072F0F09FA07F526
:10167000AC43B0F1904F05D02B4DA84204D10125C9
:101680001CE042E0002519E0284DA84201D10225C6
:1016900014E0274DA84201D103250FE0254DA842B3
:1016A00001D104250AE0244DA84201D1052505E019
:1016B000224DA84201D1062500E00725BD40254363
:1016C000B560DBF800405D464E689443F60300D5F4
:1016D00014432C60DEF8004075464E689443B60310
:1016E00000D514432C600D4D08352C684E6894438A
:1016F000F60200D514432C60084D0C352C684E685A
:101700009443B60200D514432C605B1C0A6832FA7D
:1017100003F57FF441AF00F013B80000000401406E
:10172000001002400000014000040048000800488A
:10173000000C004800100048001400480018004841
:1017400018BCBDE8E08F0069084000D00120704758
:1017500042694A40426170470AB1816170478162C3
:1017600070470000014800687047000084000020B6
:1017700090F84120202A24D190F84020012A20D03E
:10178000012280F84020242280F84120026813685A
:1017900023F0010313600268136823F4805313607D
:1017A000026813680B43136001680A6842F0010283
:1017B0000A60202180F84110002180F8401008467E
:1017C00070470220704790F84120202A22D190F8DB
:1017D0004020012A1ED0012280F84020242280F8D7
:1017E00041200268136823F0010313600268136844
:1017F00023F4706343EA0121116001680A6842F032
:1018000001020A60202180F84110002180F8401078
:1018100008467047022070477047704710B50400B3
:1018200013D0242084F841002068016821F00101D0
:101830000160204600F010FA0020606484F8410046
:1018400044F8300FA074207410BD4FF40070606431
:10185000012010BD30B403689A691968D40508D511
:101860000C0606D5446C44F0010444644FF48074C3
:10187000DC61530509D50B0607D5436C43F008031B
:10188000436404684FF48063E361920509D5090657
:1018900007D5416C41F00201416402684FF40071C8
:1018A000D161416C11F00B0F03D0416C30BC02F0E0
:1018B000C5BA30BC7047026891691268436B002B4F
:1018C00000D018477047704790F8410070470000FB
:1018D00070B5040004D094F84100002528B109E057
:1018E0004FF400706064012070BD84F840502046C1
:1018F00000F0E2F9242084F841002068016821F01A
:10190000010101606068216820F070600861206852
:10191000816821F400418160E0680128A06807D057
:1019200040F4044021688860E068022803D006E0A3
:1019300040F40040F6E721684FF4006048602068FA
:101940004168114A114341602068C16821F4004197
:10195000C160D4E904010843A16940EA012021687B
:10196000C860D4E90701084321680860206801685D
:1019700041F0010101606564202084F84100256385
:1019800084F84250002070BD0080000270470000C3
:101990002DE9FF4F83B00446DDE9108790F8410040
:1019A000DDF848909A469346202873D15FEA0800F4
:1019B00014D09FB194F8400001286BD0012084F826
:1019C0004000FFF7CFFE0646012200901923D10305
:1019D000204602F0B9FC002870D103E04FF40070FB
:1019E00060646BE0222084F84100402084F84200CB
:1019F00000256564C4F8248067856563CDE9009699
:101A000053465A462046049902F09CFB10B184F8D4
:101A1000405053E0618D3448FF274FF080784FF0FD
:101A2000007AFF2904D927853A464346009005E00D
:101A3000618D2185009094F8282053462046049912
:101A400002F06CFC4B46002204212046009602F076
:101A50007BFC98BB2068416A606A421C626201702C
:101A6000208D401E81B22185608D401E6085608D75
:101A7000D8B1D1B94B46002280212046009602F011
:101A800063FCD8B9608DFF2805D927853A464346BF
:101A9000009506E026E0608D2085009594F82820CA
:101AA00053462046049902F039FC608D0028C9D1C4
:101AB00032464946204602F073FC18B1012007B0B7
:101AC00000F016B821682020C86121684A68074BD9
:101AD0001A404A6084F8410084F8425084F840502B
:101AE0000020ECE70220EAE70024008000E800FE86
:101AF00030BCBDE8C08F00002DE9FF4F83B0044625
:101B0000DDE9108790F84100DDF848909A46934649
:101B1000202870D15FEA080014D09FB194F84000EB
:101B2000012868D0012084F84000FFF71BFE06461C
:101B3000012200901923D103204602F005FC002861
:101B40006DD103E04FF40070606468E0212084F8F8
:101B50004100402084F8420000256564C4F82480D8
:101B600067856563CDE9009653465A462046049939
:101B700002F01AFB10B184F8405050E0608DFF274E
:101B80004FF080784FF0007AFF2804D927853A4635
:101B90004346009505E0608D2085009594F8282047
:101BA00053462046049902F0B9FB32464946204686
:101BB00002F01CFC98BB606A411C616221680078DD
:101BC0008862608D401E6085208D401E80B2208519
:101BD000618DD9B1D0B94B460022802120460096B4
:101BE00002F0B2FBD8B9608DFF2805D927853A46A7
:101BF0004346009506E026E0608D2085009594F828
:101C0000282053462046049902F088FB608D002866
:101C1000CBD132464946204602F0C2FB18B1012022
:101C200007B000F015B821682020C86121684A6813
:101C3000064B1A404A6084F8410084F8425084F808
:101C400040500020ECE70220EAE7000000E800FE38
:101C500030BCBDE8C08F000010B5134B02681349BB
:101C600013489A420CD18A6D22F400128A654FF40F
:101C70004071FFF7D9FB1F2000F0E6F820200EE0AE
:101C80000C4B9A420FD18A6D22F480028A654FF480
:101C90004061FFF7C9FB212000F0D6F82220BDE803
:101CA000104000F0D1B810BD0054004000100240B8
:101CB0000004004800580040F0B5264F0168122289
:101CC0000123032504262448244C87B0B9421CD1A3
:101CD00029028DE86E006946FFF750FCA06D40F4C4
:101CE0000010A065A06D002200F4001005901146C0
:101CF0001F2000F0BFF81F2000F0B1F800221146AD
:101D0000202000F0B7F820201FE0154FB9421ED167
:101D10004FF440618DE86E006946FFF72FFCA06D1F
:101D200040F48000A065A06D002200F480000590C2
:101D30001146212000F09EF8212000F090F80022AA
:101D40000121222000F096F8222000F088F807B048
:101D5000F0BD0000005400400004004800100240A4
:101D6000005800407047704702480168491C0160F4
:101D7000704700008400002010B5032000F09AF89E
:101D8000002000F005F800F017F8002010BD00005A
:101D900010B5044607484FF47A710068B0FBF1F0C3
:101DA00001F07AFC00222146501E00F063F800206A
:101DB00010BD000088000020224808B5016E41F0E7
:101DC00001010166016E01F001010091816D41F098
:101DD00080518165806D00F080500090032000F0FC
:101DE00069F8002211466FF00B0000F043F8002262
:101DF00011466FF00A0000F03DF8002211466FF026
:101E0000090000F037F800221146501F00F032F8A8
:101E100000221146101F00F02DF800221146901EDE
:101E200000F028F800221146501E00F023F8002090
:101E300001F0F4FA01F0D0FABDE80840002001F00A
:101E4000E3BA00000010024000F01F02012191409F
:101E50004009800000F1E020C0F88011704700F0D8
:101E60001F02012191404009800000F1E020C0F8EC
:101E700000117047F0B40E4B1B680C46C3F30223ED
:101E8000C3F10705042D00D90425191D072901D226
:101E9000002300E0DB1E012606FA05F1491E214061
:101EA00099409E40761E16403143F0BC02F034BD8E
:101EB0000CED00E0064900F0070208684FF6FF034A
:101EC000184040EA0220034A1043086070470000AF
:101ED0000CED00E00000FA051549B0F5007F086838
:101EE000C0F3412009D0022805D0086820F4C06062
:101EF00040F480600860002070470128FBD008682B
:101F000020F4C06040F4007008600A480A4A006883
:101F1000B0FBF2F03222504300E0401E10B14A699B
:101F20005205FAD448694005E5D503207047000002
:101F3000007000408800002040420F000248006806
:101F400000F4C06070470000007000402DE9F05FB1
:101F5000054600204FF480770346FC014FF4FA4613
:101F60004FF4007AFE49B5F5003F19D0CA68DFF892
:101F7000F49302F0030CFC4A4FF0F008BCF1010F9F
:101F800027D0D1F80CC00CF0030CBCF1020F35D0F7
:101F9000D1F80CC06FEA0C0C5FEA8C7C35D03AE0CB
:101FA000D1F8902002F44072BA4276D0524508D15E
:101FB000D1F89410890700D5304600F0FCB92046CE
:101FC000FBE7B2F5407FF8D109688903F5D5E7480A
:101FD000F3E7D1F800C05FEA8C7C1CD50B681B07C7
:101FE00003D50B6803F0F00303E0D1F8943008EA5E
:101FF00013134FEA131C59F82C300CE0D1F800C031
:102000005FEA4C5C07D5134605E0D1F800C05FEAF3
:102010008C3C00D5D64B4FF4804B4FF4806E4FF480
:10202000006C554573D02ADC102D71D013DC012DC6
:102030006FD0022D6ED0042D6DD0082DBDD1D1F8FA
:10204000883013F0C00367D0402B7DD0802B7CD02C
:10205000C02B22D0B1E7202D78D0402D77D0802D15
:1020600076D0BD42A9D1D1F8883013F44033EAD0FC
:10207000B3F5803FE9D0B3F5003FE8D09DE75D457B
:1020800067D00BDC754565D0654534D0B5F5805F0C
:1020900031D0B5F5005F90D10BE0BDE0A54272D024
:1020A000B5F5803F70D0B5F5802F02D0B5F5002F83
:1020B00083D1D1F8882002F04062B2F1406F7CD029
:1020C000B2F1006F76D0B2F1806FC3D10A6812010D
:1020D000C0D50A69D202BDD5C8680A69C0F302102A
:1020E000401CB3FBF0F0C2F30622D1F810105043AD
:1020F000C1F34151E6E09F4CD1F8882065450CD1F1
:1021000002F44002B2F5400F3FF459AF0AE018E183
:10211000A0E076E086E091E004E102F04072B2F1E6
:10212000407FF1D0B2F5000F1FD0B2F1007F1CD07C
:102130005AB3B2F5800F02D0B2F1807F8AD14A69DA
:10214000D20387D5C86806E0D1E0D1E08FE0D9E0BE
:10215000E9E099E013E1C0F30210401CB3FBF0F09A
:102160004A694969C2F306221FE0CA68D20385D5CD
:10217000C868CA68C0F30210401CB3FBF0F0C2F399
:102180000622C96811E009E1B3E001E050439BE099
:102190000A69D2039CD5C8680A69C0F30210401CC2
:1021A000B3FBF0F00969C2F30622890303D51121BC
:1021B000ECE702E013E00721E8E70A68920787D519
:1021C0000868000703D5086800F0F00003E0D1F8C4
:1021D000940008EA1010010959F82100EDE60A6898
:1021E0009201FBD5CA68D202F8D5C868CA68C0F3A4
:1021F0000210401CB3FBF0F0C2F306225043C96842
:1022000076E7D1F8883013F0030377D0012B6ED036
:10221000022B6DD0032BE1D1D1F8901089073FF547
:10222000CEAECAE6D1F8883013F00C037AD0042B76
:102230005DD0082B71D00C2BEED0BEE6D1F88830E3
:1022400013F030036ED0102B77D0202B65D0302BBD
:10225000E2D0B2E6D1F8883013F4407362D0BB42CA
:102260006BD0534559D0B3F5407FD5D0A5E6D1F812
:10227000883013F4406355D073455ED063454CD02D
:10228000B3F5406FC8D098E6D1F8882002F04052EC
:10229000B2F1405F51D0B2F1805F18D0B2F1005F6F
:1022A0009CD14A69D20199D5C8684A69C0F3021025
:1022B000401CB3FBF0F0C2F30622D1F814105043D7
:1022C000C1F34161491C4900B0FBF1F075E60A69B0
:1022D000D201A6D5C8680A69C0F30210401CB3FB3E
:1022E000F0F0C2F3062250430969E9E706E024E072
:1022F00013E0D1F8880010F0004F1ED100F05EB856
:1023000000F0E4BAD1F8883013F440534FD0B3F55D
:10231000805F12D0B3F5005F8FD1096849058CD575
:1023200010464AE643E0D1F8883013F440433ED0EB
:102330005B4502D0A342F0D03FE600F044B800F085
:10234000D5BAD1F8883013F4402330D0B3F5802FBC
:102350003FF42EAEB3F5002FDFD0B3F5402F0BE0E6
:1023600000100240886000080024F40090D00300B0
:1023700000127A0068FF1F003FF477AF1DE6D1F826
:10238000883013F4401312D0B3F5801FE0D0B3F5BA
:10239000001FC2D0B3F5401FEED00EE6D1F8883052
:1023A00013F0804303D0B3F1804FB6D005E600F0C0
:1023B0000FB800F07BBA30BCBDE8C09F30BCBDE8B0
:1023C000C05FFFF79DBF30BCBDE8C05FFFF7B7BF80
:1023D00030BCBDE8C05FFFF7ECBF00002DE9F84F4F
:1023E000044600270088E54D3E46010504F1200B18
:1023F0001DD5606E78B1B0F5800F11D0B0F5000F2B
:1024000004D0B0F5400F22D001270FE0E86840F477
:102410008030E8601BE00021201D02F0B5FA03E0E7
:102420000021584602F046FB070010D03E462088A7
:10243000C00426D5A06EC0B1B0F1807F1AD0B0F133
:10244000007F0DD0B0F1407F19D0012718E0D5F8FA
:102450008800616E20F440000843C5F88800E6E774
:10246000E86840F48030E86009E00021201D02F0B7
:102470008BFA03E00021584602F01CFB0746F7B137
:102480003E46206880033AD5A86D4FF00008C00092
:1024900009D4A86D40F08050A865A86D4FF00108E0
:1024A00000F080500090DFF8D8A2DAF8001041F474
:1024B0008071CAF80010FFF755F9814610E0D5F891
:1024C0008800A16E20F040700843C5F88800D8E766
:1024D000FFF748F9A0EB0900022801D9032705E01E
:1024E000DAF80000C005F3D5002F7CD04FEA0706CC
:1024F000B8F1000F03D0A86D20F08050A8652078B7
:10250000C00707D0D5F88800A16B20F0030008436E
:10251000C5F888002078800707D5D5F88800E16BDA
:1025200020F00C000843C5F888002078400707D544
:10253000D5F88800216C20F030000843C5F88800E9
:102540002078000707D5D5F88800616C20F0C0001E
:102550000843C5F888002078C00607D5D5F888005C
:10256000A16C20F440700843C5F8880020788006EC
:1025700007D5D5F88800E16C20F440600843C5F821
:1025800088002088800507D5D5F88800E16D20F403
:1025900040200843C5F888002088400507D5D5F8B5
:1025A0008800216E20F440100843C5F88800207888
:1025B000400607D5D5F88800216D20F44050084327
:1025C000C5F888002078000607D5D5F88800616D29
:1025D00020F440400843C5F888002088C00509D58C
:1025E000D5F8880000E01CE0A16D20F440300843DD
:1025F000C5F8880020884FF0006780044FF080689D
:102600004FD5D5F88800E16E20F040600843C5F84A
:102610008800E06EB8423CD1E86840F48010E86081
:102620003FE0D5F8900010F4407015D0D4F8841035
:10263000814211D0D5F89000D5F8901020F4407068
:1026400041F48031C5F89010D5F8901021F4803114
:10265000C5F89010C5F89000C00710D0FFF782F8B9
:10266000074641F2883906E0FFF77CF8C11B49456F
:1026700001D903263CE7D5F890008007F4D5D5F8BA
:102680009000D4F8841020F440700843C5F89000FE
:102690002EE7404505D10121201D02F075F900B15A
:1026A00006462068000317D5D5F88800216F20F072
:1026B00040600843C5F88800206FB84204D1E8683C
:1026C00040F48010E86007E0404505D10121201D5D
:1026D00002F05AF900B106462068400317D5D5F834
:1026E0008800616F20F040600843C5F88800606F83
:1026F000B84204D1E86840F48010E86007E0404543
:1027000005D10121201D02F03FF900B106462088C5
:1027100040041AD5D5F88800A16F20F04050084336
:10272000C5F88800A06FB0F1805F03D0B0F1005F02
:1027300005D00AE00221201D02F026F903E0022163
:10274000584602F0B7F900B106462088000407D5C4
:10275000D5F88800E16F20F080400843C5F8880074
:102760002068C00307D555F8880FD4F8801020F0F2
:10277000004008432860304600F004B800100240D2
:102780000070004018BCBDE8E08F00002DE9F04764
:102790000F46050058D03E4E306800F00700B842A2
:1027A00009D2306820F0070038433060306800F00C
:1027B0000700B84248D12878364CC0072CD068684A
:1027C000032811D0022812D0216898B149050029A8
:1027D0003ADAA16821F003010143A160FEF7C2FFCC
:1027E000804641F2883910E021688901EFE72168CD
:1027F0008903ECE78907EAE7FEF7B4FFA0EB0801DD
:10280000494502D90320BDE8F087A068696800F057
:102810000C00B0EB810FEFD12878800705D5A068B8
:10282000A96820F0F0000843A060306800F00700BD
:10283000B8420BD9306820F0070038433060306868
:1028400000F00700B84201D00120DCE728784007FB
:1028500005D5A068E96820F4E0600843A060287806
:10286000000706D5A068296920F4605040EAC1003D
:10287000A06000F03BF8A168074AC1F30311515C66
:10288000C840064908600020FFF782FA0020BAE736
:1028900000200240001002407860000888000020FC
:1028A000014800687047000088000020044805497E
:1028B00000688968044AC1F30221515CC84070472E
:1028C0008800002000100240B86000080448054954
:1028D00000688968044AC1F3C221515CC84070474E
:1028E0008800002000100240B860000830B52D4973
:1028F000002318468A682C4C12F00C0F4FEA64052E
:1029000014D08A68C2F38102032A04D1CA6802F093
:102910000302012A0AD08A68C2F38102012A19D06F
:102920008A68C2F38102022A16D016E00A681207EA
:1029300004D4D1F89420C2F3032202E00A68C2F35F
:1029400003121A4B53F822308A6812F00C0F04D18C
:10295000184602E0204600E028468A68C2F3810259
:10296000032A1DD1C868CA6800F00300C2F302122E
:10297000521C022804D0032805D0B3FBF2F004E077
:10298000B4FBF2F001E0B5FBF2F0CA68C968C2F32B
:1029900006225043C1F34161491C4900B0FBF1F0EC
:1029A00030BD0000001002400024F40088600008E0
:1029B0002DE9F84304007DD02078FF4DC0065DD599
:1029C000A86810F00C0F0AD0A0690028286873D0FE
:1029D00040F001002860FEF7C5FE064655E0286875
:1029E000800702D5A0690028E5D0216A2868000781
:1029F00003D5286800F0F00004E0D5F89400F02238
:102A000002EA1010814216D9084602F0D7F80028D1
:102A100050D1286840F0080028602868216A20F01A
:102A2000F000084328606868E16920F47F4040EACC
:102A30000120686015E0286840F0080028602868D8
:102A4000216A20F0F000084328606868E16920F4FA
:102A50007F4040EA01206860206A02F0AFF8002859
:102A6000D6D1FFF743FFA968D44AC1F30311515CE3
:102A7000C840D34908600020FFF78AF92CE000BF66
:102A8000FEF770FE801B02287ED828688007F7D5E5
:102A9000286840F0080028602868216A20F0F000CB
:102AA000084328606868E16920F47F4040EA01201B
:102AB000686011E0B2E0FFE720F001002860FEF757
:102AC00051FE064605E000BFFEF74CFE801B0228C3
:102AD000DAD828688007F7D42078C00748D0A868DB
:102AE000C0F3810002281DD0A868C0F3810003282C
:102AF00003D1E868C043800714D06068B0F5803F18
:102B000017D0B0F5A02F286817D020F480302860A7
:102B1000286820F4802028606068E0B1FEF722FE7B
:102B2000064614E02868800322D56068002875D026
:102B30001EE0286840F48030EDE740F480202860F3
:102B4000F7E700BFFEF70EFE801B64289CD82868BC
:102B50008003F7D50CE0FEF705FE064605E000BF52
:102B6000FEF700FE801B64288ED828688003F7D407
:102B70002078800742D5A868C0F38100012816D0CC
:102B8000A868C0F3810000E0A9E0032804D1E86848
:102B900000F0030002280AD0E068002828681DD051
:102BA00040F480702860FEF7DDFD06460BE02868E3
:102BB00040050BD5E0680028B9D007E0FEF7D2FD4C
:102BC000801B022884D828684005F7D56868217CD6
:102BD00020F0F85040EA016068600FE020F4807057
:102BE0002860FEF7BFFD064605E000BFFEF7BAFD10
:102BF000801B022873D828684005F7D42078000786
:102C000029D560690028D5F8940013D040F0010060
:102C1000C5F89400FEF7A6FD064606E0FBE000BFFF
:102C2000FEF7A0FD801B022859D8D5F89400800734
:102C3000F6D510E020F00100C5F89400FEF792FDF3
:102C4000064604E0FEF78EFD801B022847D8D5F823
:102C500094008007F6D42078400763D5A86D00263D
:102C6000C00008D4A86D40F08050A865A86D01266A
:102C700000F08050009053480168C90511D40168E4
:102C8000804641F480710160FEF76CFD074604E068
:102C9000FEF768FDC01B022821D8D8F80000C00547
:102CA000F6D5A068012815D00528D5F8900017D0D2
:102CB00020F00100C5F89000D5F8900020F0040045
:102CC000C5F89000A06841F28838C8B1FEF74AFD07
:102CD000074610E0D5F8900040F00100F0E777E0FB
:102CE00040F00400C5F89000F4E700BFFEF73AFD9D
:102CF000C11B41456CD8D5F890008007F6D50CE093
:102D0000FEF730FD074604E0FEF72CFDC11B4145F0
:102D100079D8D5F890008007F6D41EB1A86D20F0C0
:102D20008050A865A06AE0B3A968C1F381010329B6
:102D300072D00228286820F08070286011D028689E
:102D4000000106D42868800003D4E86820F003005E
:102D5000E860E8681C490840E860FEF703FD0446A7
:102D600054E0FEF7FFFC064605E000BFFEF7FAFC64
:102D7000801B022847D828688001F7D4206BE16ABD
:102D8000000110380843616BA26B0902120941EA85
:102D900042410843A18F0D4A490802EB41510843C3
:102DA00000E036E094F840104908120102EB41615E
:102DB0000843E86028680CE00010024078600008D2
:102DC0008800002000700040FFFFEEFE0000E0FFE2
:102DD00019E040F080702860E86840F08070E8609A
:102DE000FEF7C0FC044604E0FEF7BCFC001B022812
:102DF00009D828688001F7D50BE000BFFEF7B2FCC8
:102E0000001B022802D90320BDE8F883286880014E
:102E1000F4D40020F8E7FFE70120F5E72DE9F041C1
:102E2000044690F87C00002501280FD0012684F884
:102E30007C602068016889032FD5016821F4003186
:102E4000016094F87D00122803D012E00220BDE852
:102E5000F081E06E68B1FEF7A0F950B1E06EC06B92
:102E6000042806D0D4F88000012540F08000C4F882
:102E7000800094F87D0022280FD1206F68B1FEF702
:102E80008CF950B1206FC06B042806D0D4F88000B4
:102E9000012540F08000C4F8800020680027076109
:102EA0002168781E8861204601F02AFF00B10125C3
:102EB0002068416841F00801416084F87D6084F831
:102EC0007C702846C3E790F87C1001290CD00121C2
:102ED00080F87C1001680A6822F400320A60002140
:102EE00080F87C10084670470220704790F87C10EC
:102EF000012914D0012180F87C1001680A6842F48D
:102F000000320A6001680A68D20303D40A6842F4F6
:102F100080320A60002180F87C1008467047022049
:102F2000704770472DE9F041044690F87D00002875
:102F30007BD022685169106913680D0706D5050713
:102F400004D52046A16FBDE8F0410847CD074FF0FA
:102F500001060FD0C5070DD0966194F87D00222898
:102F600006D00220D4F880100143C4F8801069E034
:102F70000120F7E78D0709D5850707D50220906165
:102F8000606F002861D0BDE8F0410047304D8F06EA
:102F900028D5870626D5D4F8800040F0040029E023
:102FA000E06E68B18563E06EFEF714F940B1D4F8C5
:102FB000800040F08000C4F880002046FFF7B1FF99
:102FC000206F002841D08563206FFEF703F90028A9
:102FD0003BD0D4F8800040F0800031E02046FFF77D
:102FE0001DFF2FE04F060AD5470608D5D4F880000C
:102FF00040F00800C4F880009803EFD5D0E74F07F1
:1030000014D5470712D5D4F8800040F02000C4F84A
:1030100080009803C4D4002010612268411E916191
:1030200084F87D60A4F86A000CE00EE0C9060CD5B7
:10303000C0060AD510209061D4F8800040F010003E
:10304000C4F880002046FFF76CFFBDE8F081000067
:10305000454C00082DE9F04104000CD094F87D00A7
:10306000002620B984F87C60204600F0CDF8204688
:1030700001F046FE10B10120BDE8F081022084F885
:103080007D00E06820B101280ED002280ED000207B
:10309000A2684FF400612AB1012A09D0022A0AD09D
:1030A000032A0AD000250BE01020F1E72020EFE7EB
:1030B0004FF4806504E00D4602E00D4640F001004B
:1030C0004D4B4D4A27682033974201D09F4202D191
:1030D000494F3F1F00E0494F3860E069E8B1206880
:1030E000904201D0984201D1084601E04FF480504F
:1030F000FEF72CFFE16900EB800040004902B0FBC5
:10310000F1F10A22B1FBF2F0B1FBF2F302FB131171
:103110002062082901D9401C206260684FF40071C8
:10312000E8B3022864D0E06B012800D000212068B9
:103130000268334B1A400260226B60681043D4E986
:103140000D231A4310430843616A28430843216949
:10315000084361690843218C40EA015120680268F4
:1031600011430160206841684EF20F0291434160B3
:1031700021684868A2691043D4E90A231A4310431E
:103180004860206881681F4A11408160A16C206DF1
:10319000226C0843E16C521E1143084300E027E013
:1031A000616C6FF0FF0202EB0121084321688B681C
:1031B000184388602068C1684FF220031940C1603D
:1031C000D4E915010843E16D02EB0121B4F8602058
:1031D00041EA024108432168CA681043C860C4F844
:1031E0008060012084F87D0084F87C60002043E743
:1031F000E06B01289AD09AE704540140005801403E
:1032000010C005FF0080F8FF70B50546006824492E
:1032100086B0884241D1234C206880B92248016E93
:1032200041F400110166006E002200F400100590C8
:1032300011464A20FEF71EFE4A20FEF710FE2068C7
:103240000026401C2060742000900220CDE9010679
:103250000D20CDE9036069461448FEF78FF9154C3F
:1032600013482060012060601020C4E9020680201D
:103270002061400060618000A0612020E0610002C8
:1032800020622046FEF72AF820B14FF4F4710AA01C
:1032900002F0FBF92C67A562EC6606B070BD000079
:1032A000045401408000002000100240001000483B
:1032B000080402409C2300202E2E2F5372632F738C
:1032C000746D33326C3478785F68616C5F6D7370E5
:1032D0002E6300002DE9F04115460F460446FEF727
:1032E00041FA06462FB125B194F87D00012803D09C
:1032F0005BE00120BDE8F08194F87C00012854D007
:10330000012084F87C006766A4F86850A4F86A502D
:103310000025C4F88050122084F87D00E16E244816
:103320000863E16E2348C862E16E23484863E06E9B
:1033300085632268B4F868301C32616EE06EFEF777
:103340002DF810B184F87C50D3E70021204601F01D
:10335000F7FC21680A69104308612068016841F49C
:10336000003101604FF47A770EE000BFFEF7FAF902
:10337000801BB84208D954F8800F40F0400044F850
:10338000040903202570B5E72068406910F4E02F98
:10339000ECD020680168C90303D4016841F480318E
:1033A000016084F87C500020A4E70220A2E700001E
:1033B000F74C0008BD4C0008894C000802494FF446
:1033C00000600883704700000000002001490020D1
:1033D000088370470000002070B50A4D286B40F04C
:1033E00001002863FEF7BEF9044606E0FEF7BAF9CD
:1033F000001B0A2801D9032070BD286B0007F5D5F2
:10340000002070BD0000014003490A6B22F0020257
:1034100002430A63704700000000014003490A6B41
:1034200022F0040202430A637047000000000140DA
:103430004FF0E0210428086903D020F0040008615F
:10344000704740F00400FAE770B5904D20212846FF
:10345000FEF779F900B101208D4C8E4E0221A0704B
:103460003046FEF770F900B10120E07004213046CB
:10347000FEF769F900B10120207110212846FEF7FE
:1034800062F900B10120607140213046FEF75BF91E
:1034900000B10120A07180213046FEF754F900B13F
:1034A0000120607208212846FEF74DF908B101237A
:1034B00000E00023E371A578012233210020EDB361
:1034C0006063A56B6D1CA563322D01D3A163A0724F
:1034D000E578A5B322732064656C6D1C6564322D9C
:1034E00000D3616425795DB36273A064E56C6D1CE3
:1034F000E564322D00D3E1646579002D6ED0A273AE
:103500002065656D6D1C6565322D00D36165002BEE
:1035100077D0E2732066636E5B1C6366322B00D348
:103520006166A379002B7DD02274A065E36D5B1CDE
:10353000E365322B00D3E165637A02E012E02BE011
:103540003BE0002B7ED06274A066E26E521CE26605
:10355000322A00D3E1666178002974D0A16A491C3F
:10356000A16287E0656B6D1CC4E90D50322DAFD3AD
:10357000B5F5FA6F06D9E57A0DB1E07200E0E272B6
:10358000616307E0973D632D04D2257A0DB1207267
:1035900000E02272A2729BE7256C6D1CC4E91050FA
:1035A000322D9FD3962D9DD9257B25B1E56B85F0D6
:1035B0001005E5632073216494E7A56C6D1CC4E9D4
:1035C0001250322D98D3962D96D9657B25B1E56B97
:1035D00085F02005E5636073A1648DE7256D6D1CA2
:1035E000C4E91450322D92D3962D90D9A57B25B1E4
:1035F000E56B85F08005E563A073216587E700E052
:1036000010E0236E5B1CC4E91830322B89D3962B53
:1036100087D9E37B23B1E36B83F04003E363E0737B
:1036200021667EE7A36D5B1CC4E91630322B83D381
:10363000962B81D9237C23B1E36B83F48073E363FE
:10364000207401E002E014E0A16575E7A26E521C4F
:10365000C4E91A20322AFFF47EAF962A7FF67BAFA8
:10366000627C22B1E26B82F40072E2636074A16654
:1036700071E7A062217809B1E06A401CE062207D18
:10368000002802D0206B401C206370BD000400485D
:1036900000000020000C004810B5401EB0F1807FF3
:1036A00001D3012010BD4FF0E02460610F216017AD
:1036B00001F032F90020A06107202061002010BD38
:1036C00010B5FFF7C1FE10BD30B590F83C20012ABF
:1036D0003AD0012280F83C20CA688B6822F44072FC
:1036E0001A434B6822F480621A430B6822F400628A
:1036F0001A430B6922F480521A434B6922F4005298
:103700001A438B6A22F480421A430B8B22F47022F4
:1037100042EA03420D4D03680024AB4202D00C4D37
:10372000AB420CD18D8C22F4700242EA0552CD6975
:1037300022F080722A43096A22F000720A435A6416
:1037400080F83C40002030BD022030BD002C0140FC
:103750000034014070B590F83C20012A24D00124A7
:1037600080F83C40022280F83D200268536895684A
:103770000E4EB24202D00E4EB24203D123F4700676
:103780004B68334323F070060B688968334325F098
:103790008005294353600268916080F83D40002114
:1037A00080F83C10084670BD022070BD002C01401E
:1037B0000034014010B5040003D094F83D0010B16E
:1037C00007E0012010BD002084F83C00204600F0F6
:1037D0000DF8022084F83D00211D206801F04AFB0D
:1037E000012084F83D00002010BD000008B5124AF9
:1037F00001681248914207D1816D41F01001816545
:10380000806D00F0100009E00D4A914208D1016E70
:1038100041F400310166006E00F40030009008BDF4
:10382000084A9142FBD1016E41F480210166006E8D
:1038300000F48020F2E70000001000400010024079
:10384000004401400048014030B50D4D036800219F
:1038500002240E2285B04FF09040AB4201D14023AC
:1038600003E0084DAB4208D180230093CDE901412C
:10387000CDE903126946FDF781FE05B030BD0000B9
:10388000004401400048014070B5044690F83C00F7
:103890000D4601280ED0012684F83C60022084F8F1
:1038A0003D000C2A45D007DC5AB1042A1BD0082A57
:1038B00078D12CE0022070BD102A4ED0142A71D18C
:1038C0005DE0206801F044FB2068816941F0080157
:1038D00081612068816921F004018161206881692A
:1038E0002A69114311E0206801F080FB206881699A
:1038F00041F4006181612068816921F48061816106
:10390000206881692A6941EA022181614AE02068D0
:1039100001F0B4FB2068C16941F00801C161206871
:10392000C16921F00401C1612068C1692A6911439C
:1039300011E0206801F0EAFB2068C16941F40061F0
:10394000C1612068C16921F48061C1612068C169D9
:103950002A6941EA0221C16124E0206801F010FCDB
:103960002068416D41F0080141652068416D21F0FA
:10397000040141652068416D2A69114311E0206806
:1039800001F036FC2068416D41F40061416520681A
:10399000416D21F4806141652068416D2A6941EAE9
:1039A0000221416584F83D60002084F83C0070BD30
:1039B00010B5040003D094F83D0010B107E00120D9
:1039C00010BD002084F83C00204600F00CF80220D6
:1039D00084F83D00211D206801F04CFA012084F894
:1039E0003D00002010BD704710B50446006801225C
:1039F00001F0A0FA1248216881420BD0114881429F
:103A000008D01148814205D01048814202D01048A8
:103A1000814203D1486C40F40040486420688268C9
:103A20000C490A40062A08D082680A40B2F5803F55
:103A300003D0016841F001010160002010BD0000C9
:103A4000002C01400034014000400140004401408E
:103A5000004801400700010010B5040003D094F8AD
:103A6000710010B107E0012010BD002084F8700043
:103A7000204600F027F8242084F8710020680168AF
:103A800021F001010160204601F07CFC0128EBD00F
:103A9000606A10B1204601F0E3FB2068416821F420
:103AA000904141602068816821F02A01816020688E
:103AB000016841F0010101602046BDE8104001F0BD
:103AC00033BC000000B500680F4987B0884218D1A8
:103AD0000E48016E41F480410166006E694600F4B3
:103AE000804005904FF4F05000900220019000209B
:103AF000029003200390072004904FF09040FDF7C0
:103B00003DFD07B000BD000000380140001002403C
:103B1000FEE700000148FDF79DBE0000482100209F
:103B20000148FDF7C8BE0000482100200148FDF70C
:103B300091BE0000942100200148FDF7BCBE0000AA
:103B40009421002010B50348FDF768FEBDE8104041
:103B500000F002B83024002010B50D48FDF7B4FE87
:103B6000002813D10A480B49012201600A4941602B
:103B70000021C0E9021201614161C161016200F0EE
:103B800043F8BDE810400248FDF7A2BE10BD00009A
:103B900030240020005800402626119038B50068D7
:103BA0001649884229D1164CE06C40F00200E064CE
:103BB000E06C00F002000090E06C40F00200E06475
:103BC000E06C4FF4406100F0020000900D48FDF7FA
:103BD0002BFCA06B40F48000A063A06B20F480005D
:103BE000A063A06D20F48000A0652120FEF72CF9D1
:103BF000BDE838402220FEF727B938BD0058004004
:103C0000001002400004004810B500682649A8B022
:103C1000884246D180200090C00115906846FEF78A
:103C2000DDFB224CE06C40F00200E064E06C00F050
:103C300002002790E06C40F00200E064E06C22A9F2
:103C400000F0020027904FF4406022901220239051
:103C50000120249003202590042026901448FDF78D
:103C60008DFCA06D40F48000A065A06D00F4800084
:103C70002790A06B40F48000A063A06B20F480002C
:103C8000A063002211462120FEF7F4F82120FEF760
:103C9000E6F8002211462220FEF7ECF82220FEF77B
:103CA000DEF828B010BD00000058004000100240AF
:103CB000000400483EB5084D069C2D688DE838008C
:103CC00013460A4601460548FDF762FE040001D08E
:103CD000FFF738FF20463EBDC000002094210020A1
:103CE0003EB5084D069C2D688DE8380013460A46FF
:103CF00001460548FDF700FF040001D0FFF722FF51
:103D000020463EBDC00000209421002010B5806AEE
:103D100001684A6842F400424A60826B0021916364
:103D2000C26B916390F84110602902D0FDF7CBFD82
:103D300010BD202180F84110FDF76EFD10BD10B5BB
:103D40000022CC074FF0280306D090F841404222D1
:103D500033EA040400D0F2228C0707D590F84140E2
:103D600042F04402A34301D042F0B0024B0701D518
:103D700042F0B80211238B4301D142F0900212238A
:103D80008B4301D142F060020068016891430160F9
:103D900010BD01688A69D243920701D400228A6269
:103DA00000688169C943C90703D0816941F00101F5
:103DB000816170472DE9F041044690F841002821C7
:103DC000814320684FF000054FF0080304D0C36121
:103DD00084F84050BDE8F0818169C1F300478169F2
:103DE000FE2202EA11468168C1F30902C168D4F8D3
:103DF0000CC001F0FE01BCF1020F17D14FF0060C10
:103E000006F006060CEAD21C66450ED1A16C491CD0
:103E1000A164A16C0229DDD1A564C36184F840507E
:103E200039462046FDF7F9FCD4E70E46042120462A
:103E3000FFF785FF84F840503246F1E770B5002562
:103E4000044680F842503448E0626585606C08435F
:103E5000606494F841002026282829D094F8410075
:103E6000292825D094F841002A2821D0072120466E
:103E7000FFF765FF94F84100602801D084F84160A5
:103E800025636563206801684A04244902681AD5DD
:103E900022F480420260A06B002833D0816384F852
:103EA0004050A06BFDF796F900282BD0A06B1CE0CA
:103EB00003212046FFF743FF282084F841002563B3
:103EC00017486063DEE7120413D5026822F400424B
:103ED0000260E06B002815D0816384F84050E06BED
:103EE000FDF778F900280DD0E06B816BBDE87040DC
:103EF000084794F84100602805D084F840502046D7
:103F0000FDF7E1FC70BD84F8416084F84050204624
:103F1000FDF782FC70BD00000000FFFF0D3D0008B2
:103F20000D42000870B504461448E0620025256380
:103F3000202084F8410084F842506563480710D57A
:103F40002068416A606A421C62620170208D40B143
:103F5000401E2085608D401E6085606C40F004002E
:103F6000606407212046FFF7EAFE21681020C8613F
:103F700084F840502046FDF709FD70BD0000FFFFAA
:103F800070B50446006820250E46C56121680820EA
:103F9000C86107212046FFF7D2FE2068416841F43E
:103FA00000414160206841682E4A1140416020462E
:103FB000FFF7EFFE20680168490402D40168090494
:103FC0000AD5E16B09B9A26B32B10268520400D57F
:103FD000A16B09684968618571070BD5416A606A00
:103FE000421C62620170208D20B1401E2085608DD0
:103FF000401E6085608D18B1606C40F00400606404
:104000000020206384F842006063616C69B1616CD8
:104010002046FFF713FF94F84100282811D13146BC
:104020002046BDE87040FFF77DBFE26A0E498A4234
:1040300008D0E16284F8415084F840002046FDF742
:10404000A5FC70BD94F8411084F84150222984F8F1
:104050004000204602D0FDF786FE70BDFDF782FECF
:1040600070BD000000E800FE0000FFFF70B50025F5
:10407000044680F8425090F841102820292911D098
:1040800094F841102A290CD184F8410022202063A1
:1040900002212046FFF753FE84F840502046FDF7EA
:1040A00061FE70BD84F8410021202063012120467B
:1040B000FFF745FE84F840502046FDF754FE70BDE2
:1040C0002DE9F0410446006890460E468069C043E1
:1040D000C00633D40025202720688069C0438006AD
:1040E00015D5701CF8D0FDF73DFBA0EB0800B042E1
:1040F00001D8002EF0D154F8440F40F0200044F8CD
:1041000004096770A57025700120BDE8F081216861
:104110001020C8612068C7612046FFF73AFE54F8B6
:10412000440B4168064A11404160206840F0040099
:1041300044F820096777A5772577E5E70020E4E7CD
:1041400000E800FE2DE9F84304461646DDE908972D
:1041500014489846DAB200900023204600F0DEF8BA
:104160003A464946204600F041F9B8B9F5B2B8F1EF
:10417000010F08D02168300A88623A464946204635
:1041800000F034F950B9206885624B460022402186
:104190002046009700F0D8F8002800D00120BDE8A4
:1041A000F8830000002000802DE9F84304461646FD
:1041B00015489846DDE90897DAB2C3020090204618
:1041C00000F0ACF83A464946204600F00FF9B8B97D
:1041D000F5B2B8F1010F08D02168300A88623A467A
:1041E0004946204600F002F950B9206885624B46E6
:1041F000002280212046009700F0A6F8002800D079
:104200000120BDE8F88300000020008070B504465E
:1042100090F8400015460E46012811D0012084F880
:1042200040003D49F0062ED5E8062CD5628D1020C1
:1042300042B12168C861606C40F0040060645FE0D6
:10424000022070BDE36A4FF00072934202D0E36A2D
:10425000934203D194F84120282A09D0E26A8A4285
:1042600003D094F84110292907D02168C86147E09C
:1042700031462046FFF756FE42E02168C8612046DD
:10428000FFF787FD39E0700715D5680713D5608DF6
:1042900058B12068426A606A431C63620270208DD4
:1042A000401E2085608D401E6085608D40BBE06AA9
:1042B000884222D124E0300706D5280704D53146AC
:1042C0002046FFF777FD1BE0B00719D5A80717D5E3
:1042D000608D60B1606A411C61622168007888620B
:1042E000608D401E6085208D401E208508E0E06ABC
:1042F000B0F1807F01D0E06A10B92046FFF7B6FE2A
:10430000B00605D5A80603D531462046FFF738FE8E
:10431000002084F8400070BD0000FFFFF0B5056884
:10432000059C68684FF48066064FC1F3090106EAF0
:10433000545641EA02413E431943B04321430843E6
:104340006860F0BDFF63FF032DE9F0411D4617468D
:104350000E460446DDF8188008E0681C06D0FDF71C
:1043600001FAA0EB0800A8420BD855B1206880697B
:1043700036EA000012D00020B842EED00020BDE89E
:10438000F08154F8440F40F0200044F80409202044
:1043900060700020A07020700120F0E70120EBE7A2
:1043A00070B516460D4604460DE0324629462046B5
:1043B000FFF786FE08B1012070BDFDF7D3F9801B21
:1043C000A84207D835B120688069C0438006ECD484
:1043D000002070BD54F8440F40F0200044F8040958
:1043E000202060700020A0702070E4E770B51646B1
:1043F0000D4604460FE0324629462046FFF760FE90
:1044000008B1012070BD681C05D0FDF7ABF9801B19
:10441000A84207D835B120688069C0438007EAD434
:10442000002070BD54F8440F40F0200044F8040907
:10443000202060700020A0702070E2E700EB810077
:10444000006E00F0F84070478068C0F3800070474D
:104450008068C0F38000704770B54FF0007401F0C1
:10446000007394FAA4F4B4FA84F4E3404FF0F874BF
:1044700094FAA4F501F0F871B5FA85F500EB830024
:1044800021FA05F50726AE4094FAA4F44369B4FA7C
:1044900084F4E140B3438A401343436170BD00EBB1
:1044A0008100016E21F00041114301667047000058
:1044B00030B5254889B023490024C0E900140425FB
:1044C000456101218460C0E9034103220262C0E921
:1044D0000641C0E90941C462046344638463C46360
:1044E000FCF702FC00B1FEE706A917480694FCF7AA
:1044F00077F900B1FEE715480090062001900720EB
:1045000002907F200594CDE9030569460E48FCF72B
:10451000DFF900B1FEE70E4800900C2001906946DB
:104520000948FCF7D5F900B1FEE70A4800901220CF
:10453000019069460448FCF7CBF9002800D0FEE75B
:1045400009B030BD00000450E0200020020030041B
:10455000040060080800900C2DE9F04F454887B032
:10456000C16C41F01001C164C16C01F010010591F2
:10457000C16C41F00401C164C16C01F004010591FA
:10458000C16C41F00101C164C16C01F001010591F0
:10459000C16C41F00201C164C16C01F002010591DE
:1045A000C16C41F00801C164C06CDFF8CC9000F030
:1045B000080047F288340590002221464846FDF75E
:1045C000CBF84FF46046002231462C48FDF7C4F882
:1045D000DFF8ACA04FF63877002239465046FDF799
:1045E000BBF8DFF8A0B04FF4FE5800224146584611
:1045F000FDF7B2F80125CDE9004500240294694693
:1046000048460394FCF7BAFF4FF4406000901E4800
:10461000CDE9010469464846FCF7B0FF0096CDE9B4
:104620000154694615480394FCF7A8FF0097CDE9AB
:104630000154694650460394FCF7A0FFCDF8008072
:10464000CDE90154694658460394FCF797FFC6200C
:10465000CDE90004694650460294FCF78FFF3820EC
:10466000CDE90004694605480294FCF787FF07B0CE
:1046700000F00CB800100240001000480004004890
:10468000000C0048000800480000111030BCBDE8D4
:10469000C08F0000114810B50F49016010494160FA
:1046A00000210122C0E90212016141618161C16101
:1046B0000162FDF70DF900B1FEE700210748FDF7A3
:1046C00057F800B1FEE700210448FDF77CF8002808
:1046D00000D0FEE710BD000000540040482100203B
:1046E000EC9C9010114810B50F49016010494160D1
:1046F00000210122C0E90212016141618161C161B1
:104700000162FDF7E5F800B1FEE700210748FDF77B
:104710002FF800B1FEE700210448FDF754F8002807
:1047200000D0FEE710BD000000580040942100209A
:10473000EC9C9010174810B51549016000210163E9
:1047400080224160C0E90D21C16392018160C0E90E
:10475000042101228261C160416245F222628162CC
:10476000C261C16220220264102242641203C0E9C5
:1047700012219200C0E9142181650221C165032143
:104780000166FEF767FC002800D0FEE710BD0000C0
:1047900004540140E021002010B51E4892B01C498D
:1047A000016042F20F710024C0E901142721C0E921
:1047B000031444618461FEF7FDFF00B1FEE7154874
:1047C000FFF7F6F800B1FEE76020CDE90B040D9489
:1047D0000E940F94109400220BA90E481194FFF729
:1047E00053F800B1FEE700944FF40050CDE90440C7
:1047F0000194029403940694694606480A94FEF7CD
:1048000063FF00B1FEE70348FFF71EF812B010BDCA
:1048100000440140A422002010B51F4892B01D4959
:10482000016042F20F710024C0E901142721C0E9A0
:10483000031444618461FEF7BDFF00B1FEE7164832
:10484000FFF7B6F800B1FEE760200B900920CDE934
:104850000C040E940F94109400220BA90E4811948E
:10486000FFF712F800B1FEE700944FF40050CDE9D5
:1048700004400194029403940694694606480A94FD
:10488000FEF722FF00B1FEE70348FEF7DDFF12B09E
:1048900010BD000000480140E42200203EB50E4853
:1048A0000C490024016044F61F61C0E9011428216D
:1048B0008461C160FEF77EFF00B1FEE7202000901A
:1048C000694602940448FEF745FF002800D0FEE741
:1048D0003EBD000000100040642200200C4810B5CE
:1048E0000A4901604FF4E1314160002181600C22EE
:1048F000C160C0E904129201C0E90621016241626F
:10490000FFF7AAF8002800D0FEE710BD00380140EC
:1049100024230020FEE770470907090E002806DA65
:1049200000F00F0000F1E02080F8141D704700F146
:10493000E02080F8001470477047000070B50F4801
:104940000068016841F4803101600D4C9420A16839
:104950008847E02800D0FEE70A4D94202C67E16AE2
:104960008847286F64220121046845F2226394205D
:10497000A047002800D0FEE770BD0000E021002025
:104980008C000020000000202DE9F041444C054639
:104990008846E0680026810728680DD0E16801F0AC
:1049A0000301814216D1A8B1E0686968C0F3021022
:1049B000401C88420ED120E0012804D0022805D0F6
:1049C000032807D108E02168890701E0216849052B
:1049D000002907DB01265FE02168890302D42168F2
:1049E0004903F5E7E1686A686FF00F0321F073018E
:1049F00003EB021211430143E160206820F0806064
:104A00002060FCF7AFFE074605E000BFFCF7AAFEFA
:104A1000C01B022837D820680001F7D4B8F1000F76
:104A200018D0B8F1010F1ED0287D4FF07E4140080C
:104A300001EB4060A96840EA01202169194A114050
:104A400008432061206840F080602060FCF78AFE07
:104A500007461AE0A868E9680002090940EA4140EF
:104A60002169114AEBE7288A1049400801EB4050C0
:104A7000A96840EA012021690D4AE0E7FCF772FECF
:104A8000C01B022801D9032606E020680001F5D5E5
:104A90002069A969084320613046BDE8F081000023
:104AA00000100240FF80FFF9FF80FDFF0000E0FFE3
:104AB000FF809FFF2DE9F0413D4C06468846E068A7
:104AC0000025810730680DD0E16801F003018142C3
:104AD00016D1A8B1E0687168C0F30210401C88428A
:104AE0000ED120E0012804D0022805D0032807D1E8
:104AF00008E02168890701E021684905002907DBF2
:104B0000012551E02168890302D421684903F5E7B2
:104B1000E16872686FF00F0321F0730103EB02127A
:104B200011430143E160206820F080502060FCF7D1
:104B300019FE074605E000BFFCF714FEC01B022863
:104B400029D820688000F7D4B8F1000F15D0307C48
:104B50004FF07E41400801EB4060B16840EA01201F
:104B60006169144A114008436061206840F0805038
:104B70002060FCF7F7FD07460FE0B068F16800021F
:104B8000090940EA414061690B4AEBE7FCF7EAFD9D
:104B9000C01B022801D9032506E020688000F5D556
:104BA00060697169084360612846BDE8F0810000D2
:104BB00000100240FF80FFF9FF80FDFFF8B51C4D9B
:104BC00006460024A86DC00002D5FDF7B7F90DE038
:104BD000A86D40F08050A865A86D00F0805000904E
:104BE000FDF7ACF9A96D21F08051A965B0F5007F02
:104BF00004D0802E07D94FF003040AE0802E08D994
:104C0000A02E01D804E001D1022402E0702E00D1D0
:104C100001240848016821F0070121430160006870
:104C200000F00700A04201D00120F8BD0020F8BD2F
:104C300000100240002002400148FEF773B9000056
:104C4000E021002070B5846A2068016821F40031F9
:104C500001602068002505612168681E8861D4F81C
:104C60008000202807D0204600F04AF820684168DC
:104C700041F008014160012084F87D00A4F86A50E9
:104C80002046FEF74EF970BD10B5846AD4F8800056
:104C900040F08000C4F880002068016821F40031F1
:104CA0000160204600F02CF8012084F87D000020EF
:104CB000A4F86A002046FEF734F910BD10B5846AE6
:104CC000C069202813D00020A4F86A002068016879
:104CD00021F4003101600021204600F031F8014646
:104CE000206802698A430261012084F87D00204621
:104CF000FEF764FB10BD10B5806AFEF767FB10BDC0
:104D000010B50E4941F6583203680968B1FBF2F15B
:104D100089001C68002224F480341C6031B10368CF
:104D20001B68491EDB03F9D4104610BD50F8801FE4
:104D300041F0400101600322F6E7000088000020F6
:104D40000122012900D10922016B4068082905D1FF
:104D5000032801D0012803D142F01002032804D017
:104D6000022802D042F00400704742F06000704711
:104D7000704710B5FCF7F8FFBDE81040FEF7A0BC87
:104D800070B5B8B01020012500242290CDE9285438
:104D900060202A9002262820CDE92C65CDE92E50EE
:104DA0000720CDE9300622A83296FDF701FE00B1BA
:104DB000FEE70F2033900320CDE93404369404211C
:104DC00033A83794FDF7E2FC00B1FEE7149444F6F3
:104DD000C1001994009000071E901820CDE90250E0
:104DE0000E941120CDE90406159410480195CDE9E3
:104DF00006606846FDF7F2FA00B1FEE74FF4007076
:104E0000FDF76AF800B1FEE7FDF74AFD4FF47A714D
:104E1000B0FBF1F0FEF740FC0420FEF709FB002296
:104E20001146501EFDF726F838B070BD0000010194
:104E30000D48016841F4700101600C48016841F0BF
:104E400001010160002181600268094B1A40026083
:104E50008214C260026822F48022026081610249E9
:104E6000C00380390860704788ED00E00010024000
:104E7000FFFFF6EA2DE9F0470268264B264D274E44
:104E8000274F284C4FF0804A984209D0504507D010
:104E9000A84205D0B04203D0B84201D0A04204D10C
:104EA00022F0700C4A6842EA0C02DFF87CC0DFF89E
:104EB0007C80DFF87C9098420FD050450DD0A842FE
:104EC0000BD0B04209D0B84207D0A04205D060450F
:104ED00003D0404501D0484503D122F44075CA684B
:104EE0002A434D6922F080022A4302608A68C26226
:104EF0000A688262984207D0A04205D0604503D07C
:104F0000404501D0484501D1096901630121416152
:104F1000BDE8F087002C014000040040000800407C
:104F2000000C0040003401400040014000440140BA
:104F30000048014010B501F01F030121046A9940A7
:104F40008C430462016A9A401143016210BD000063
:104F50002DE9F043026A22F001020262056A436809
:104F600082691C4C25F0020522400C6822F00302E5
:104F700014438A68194E2A43174D194FDFF864C04D
:104F8000DFF86490A84207D0B04205D0B84203D001
:104F9000604501D0484506D122F00808CA6842EAB7
:104FA000080222F00402A84207D0B04205D0B8425D
:104FB00003D0604501D0484505D14D6923F44073C5
:104FC0001D438B692B4343608461496841630262DE
:104FD000BDE8F0838FFFFEFF002C0140003401404C
:104FE000004001400044014000480140F0B5026A21
:104FF00022F010020262056A42688369194C1B4E56
:1050000023400C6823F4407343EA042425F0200372
:105010008D6843EA0513144DA84201D0B04206D171
:10502000CF6823F0800343EA071323F04003A8422C
:105030000AD0B04208D00E4DA84205D00D4DA8426E
:1050400002D00D4DA84207D14D6922F4406242EAD8
:1050500085028D6942EA8502426084614968816304
:105060000362F0BDFF8FFFFE002C014000340140C1
:10507000004001400044014000480140F0B5026A90
:1050800022F480720262056A4368C269194C1B4EA1
:1050900022400C6822F00302144325F400728D684C
:1050A00042EA0522144DA84201D0B04206D1CF6891
:1050B00022F4006242EA072222F48062A8420AD067
:1050C000B04208D00E4DA84205D00E4DA84202D0E5
:1050D0000D4DA84207D14D6923F4405343EA05130F
:1050E0008D6943EA05134360C4614968C163026284
:1050F000F0BD00008FFFFEFF002C01400034014096
:1051000000400140004401400048014030B5026ABF
:1051100022F480520262046A4268C369124D24F488
:1051200000542B400D6823F4407343EA05238D6837
:1051300044EA05340D4DA8420BD00D4DA84208D0CD
:105140000C4DA84205D00C4DA84202D00B4DA842F0
:1051500004D14D6922F4804242EA85124260C36163
:1051600049680164046230BDFF8FFFFE002C0140DE
:10517000003401400040014000440140004801402B
:1051800030B5026A22F480320262046A4268436DDA
:10519000114D2B400D681D4324F400330C8943EA64
:1051A00004430E4CA0420BD00D4CA04208D00D4C35
:1051B000A04205D00C4CA04202D00C4CA04204D11D
:1051C0004C6922F4803242EA042242604565496813
:1051D0008165036230BD00008FFFFEFF002C01409F
:1051E00000340140004001400044014000480140BB
:1051F00030B5026A22F480120262046A4268436D8A
:10520000114D24F400142B400D6843EA05230D8949
:1052100044EA05540D4DA8420BD00D4DA84208D0CC
:105220000C4DA84205D00C4DA84202D00B4DA8420F
:1052300004D14D6922F4802242EA8522426043650E
:105240004968C165046230BDFF8FFFFE002C01403C
:10525000003401400040014000440140004801404A
:1052600090F82410C90706D001684A68836A22F4BE
:1052700000321A434A6090F82410890706D5016865
:105280004A68C36A22F480321A434A6090F82410B4
:10529000490706D501684A68036B22F480221A4345
:1052A0004A6090F82410090706D501684A68436BE4
:1052B00022F400421A434A6090F82410C90606D529
:1052C00001688A68836B22F480521A438A6090F8DE
:1052D0002410890606D501688A68C36B22F400523F
:1052E0001A438A6090F82410490611D501684A686B
:1052F000036C22F480121A434A60016CB1F5801FDE
:1053000006D101684A68436C22F4C0021A434A601D
:1053100090F82410090606D501684A68806C22F4CA
:10532000002202434A607047F8B5002604464667EB
:10533000FCF718FA0546206800686FF07E47000702
:1053400008D52B4600224FF400112046009700F0AC
:1053500069F960B92068006840070AD52B46002229
:105360004FF480012046009700F05CF908B103205B
:10537000F8BD202084F8710084F8720084F8706011
:105380000020F8BD2DE9F0410446016880682369DA
:10539000E669184363691025002733431843954A8B
:1053A0000B68954E334003430B6020684168E36807
:1053B00021F44051194341602168A069914201D014
:1053C000236A18438B6823F4306303438B608B4B51
:1053D00021688B4899420DD1D0F8880010F0030065
:1053E00006D001285AD0022856D0032859D157E0B8
:1053F000012556E0834B99420BD1D0F8880010F07C
:105400000C0047D0042849D0082845D00C2848D1A2
:1054100046E07D4B99420BD1D0F8880010F0300067
:1054200038D010283AD0202836D0302839D137E06B
:10543000764B99420BD1D0F8880010F0C00029D0EB
:1054400040282BD0802827D0C0282AD128E0704BB4
:1054500099420ED1D0F8880010F440701AD0B0F5FF
:10546000807F1BD0B0F5007F16D0B0F5407F18D1FB
:1054700016E0914215D1D0F8880010F4406009D0B0
:10548000B0F5806F0AD0B0F5006F05D0B0F5406F71
:1054900007D105E0002504E0022502E0042500E034
:1054A00008255C4B00264FF4004091423DD135B1B8
:1054B000022D07D0042D07D0082D10D107E0FDF7ED
:1054C000F5F903E0184602E0FDF710FAA8B36268A8
:1054D00002EB4201814202D8B0EB023F01D9012721
:1054E00075E0DFF834815DB1022D0CD0042D13D0AE
:1054F000082DF4D150082905401846F1000105E0B7
:10550000FDF7D4F90AE050084449F5E70023FAF71B
:1055100057FEA0F5407156E0FDF7E8F96268010E0C
:105520000302500818187141F0E7E1694FF6EF786F
:1055300081422FD1092DD2D200E048E0DFE805F00A
:1055400006092005230505052600C8E7FDF7AEF985
:1055500001E0FDF7BBF94100D4F8040001EB500174
:10556000B1FBF0F080B2A0F110014145B7D84FF681
:10557000F0710140C0F3420001432068C16026E0A1
:1055800027496068EAE7FDF7B1F9E4E74FF48031B5
:105590006068E3E7092DA2D2DFE805F006091E05E1
:1055A0002205050525009AE7FDF780F901E0FDF7E2
:1055B0008DF90146606801EB500100BFB1FBF0F0CE
:1055C00080B2A0F11001414589D82168C8602666E3
:1055D00038466666BDE8F081606803EB5001EDE790
:1055E000FDF784F9E5E7616800EB5100B0FBF1F0ED
:1055F000E6E7000000800040F369FFEF003801405B
:10560000001002400044004000480040004C0040B0
:10561000005000400024F400FFFC0F00000024F4C0
:105620000048E8012DE9F041984617460E46044629
:10563000069D1DE0681C1BD02DB1FCF793F8A0EB74
:105640000800A84214D92068016821F4D0710160D3
:105650002068816821F001018160202084F87100B8
:1056600084F87200002084F870000320BDE8F08107
:105670002068C06936EA000004D00020B842D9D0C2
:105680000020F3E70120F9E7FEE7FEE702E008C8A3
:10569000121F08C1002AFAD170477047002001E0AC
:1056A00001C1121F002AFBD17047FBF703B80000AD
:1056B0002DE9F04117460E460446FBF741F8E0B2EB
:1056C00001220221FBF768F805463048012E05D07B
:1056D000022E05D0032E57D0052102E0FA2100E06A
:1056E000AF2141704278E3B204211846FBF754F829
:1056F0000544E0B281220521FBF74EF80544E0B2F3
:1057000004220621FBF748F805443946204600F0FC
:10571000EBF80544022E11D0E0B2C0220F21FBF7B6
:105720003BF80544E0B200222421FBF735F805449C
:10573000E0B200222521FBF72FF80544E0B2002259
:105740000A21FBF729F80544E0B204220E21FBF7F9
:1057500023F80544E0B200222721FBF71DF8054499
:10576000E0B20F221F21FBF717F80544E0B20A222E
:105770001A21FBF711F80544E0B20A221B21FBF7BE
:105780000BF82844BDE8F081AA21AAE7BC0000205C
:1057900070B50546012100F055F80446E8B2012233
:1057A0000221FAF7F9FF204470BD000070B50D4EDC
:1057B000044600203178012912D1E0B206220E21E0
:1057C000FAF7EAFF05460021204600F03BF80544C1
:1057D000E0B29E220221FAF7DFFF00212844317057
:1057E00070BD0000BC00002010B50446FAF7A8FF09
:1057F000E0B20121FAF7BAFF00F0F80010BD002076
:1058000070470000F8B5002605463146009600F0C6
:1058100019F8044600960098401C0090FF28FAD31F
:105820000649E8B24A780421FAF7B6FF0444E8B220
:105830009E220221FAF7B0FF2044F8BDBC000020F0
:105840000020704770B504460129C0B212D0002272
:105850002221FAF7A1FF0546E0B200222321FAF740
:105860009BFF0C490544E0B24A780421FAF794FF03
:10587000284470BDFF220421FAF78EFF0546E0B2EE
:1058800001222221FAF788FF05440122E0B22321F8
:10589000ECE70000BC00002070B5124C01290BD0D1
:1058A000022910D0032915D00525C0B22A460421AB
:1058B000FAF772FF657070BDC0B2FA220421FAF7E0
:1058C0006BFFFA210CE0C0B2AF220421FAF764FFAB
:1058D000AF2105E0C0B2AA220421FAF75DFFAA2198
:1058E000617070BDBC00002070B50546642901D907
:1058F000642405E0C1EB01206422B0FBF2F0C4B2E5
:10590000E62901D9E73C00E01934E2B2E8B22021EF
:10591000FAF742FF0646E2B2E8B22121FAF73CFF6D
:10592000304470BD70B504460121FFF78BFF05467A
:10593000E0B204220E21FAF72FFF0544E0B29F22C5
:105940000221FAF729FF024A01212844117070BD93
:10595000BC0000202DE9F04117460D460446012207
:1059600008211348FBF7F8FE12484FF47A7627B166
:10597000012F0FD180462F1B16E0671B804607E0E2
:10598000C8F8004096FBF7F0641EE4B2FBF73EFD5A
:10599000AC42F5D2BDE8F081C8F8004096FBF7F0C4
:1059A000641CE4B2FBF732FDAC42F5D9F2E700002B
:1059B000000C0048344401402DE9F04117460D46E3
:1059C0000446012208211348FBF7C6FE12484FF493
:1059D000FA6627B1012F0FD180462F1B16E0671BF7
:1059E000804607E0C8F8004096FBF7F0641EE4B27A
:1059F000FBF70CFDAC42F5D2BDE8F081C8F80040E1
:105A000096FBF7F0641CE4B2FBF700FDAC42F5D95D
:105A1000F2E70000000C0048344401400EB5FCF7EA
:105A2000ABF9FFF7ADF941F22C05FEF795FDFE4805
:105A3000816C41F002018164806C002200F0020060
:105A4000009011463820FCF715FA3820FCF707FAC9
:105A5000FEF72EFDFEF71EFEFEF744FEFEF76AFE81
:105A6000FEF79AFEFEF7D8FEFEF738FFFEF716FFA8
:105A70000021EE48FDF7B8FFEC4800214030FDF76B
:105A8000B3FFEB4EEB4BEC4AD6E9000158405140D6
:105A9000084300D0FEE7FEF751FFE84F00204FF427
:105AA00080548119898D27F81010801CA042F8DBE2
:105AB000DFF88C9300221146D9F87000C368942057
:105AC000984700B1FEE7DD494FF4805201F50450DC
:105AD000FDF700FC00B1FEE74FF0010B89F801B0C3
