:020000040800F2
:10000000980600209D0100082B290008C52400083F
:10001000292900088D0200085D3500080000000055
:10002000000000000000000000000000412C00085B
:100030008F020008000000004D290008432C000832
:10004000B7010008B7010008B7010008B7010008B0
:10005000B7010008B7010008B7010008B7010008A0
:10006000B7010008B7010008B7010008B701000890
:10007000B7010008B7010008B7010008B701000880
:10008000B7010008B7010008B7010008B701000870
:10009000B7010008B7010008B7010008B701000860
:1000A000B7010008B7010008B7010008B701000850
:1000B000B7010008B7010008B7010008B701000840
:1000C000B7010008B7010008B7010008B701000830
:1000D000B7010008B7010008B7010008B701000820
:1000E000B7010008B7010008B7010008B701000810
:1000F000B7010008B7010008B7010008B701000800
:10010000B7010008B7010008B7010008B7010008EF
:10011000B7010008B7010008B7010008B7010008DF
:10012000B7010008B7010008B7010008B7010008CF
:10013000B7010008B7010008B7010008B7010008BF
:10014000B7010008B7010008B7010008B7010008AF
:10015000B7010008B7010008B7010008B70100089F
:10016000B7010008B7010008B7010008B70100088F
:10017000B7010008B7010008B7010008000000003F
:10018000B7010008B7010008DFF80CD000F06CF8E8
:10019000004800477D350008980600200648804743
:1001A00006480047FEE7FEE7FEE7FEE7FEE7FEE75C
:1001B000FEE7FEE7FEE7FEE7052D000889010008DF
:1001C0002DE9F05F0546002092469B46884606468C
:1001D000814640241BE0284641464746224600F01F
:1001E00032F853465A46C01A914110D31146184668
:1001F000224600F019F82D1A67EB01084F462246F7
:100200000120002100F010F817EB00094E41201EDC
:10021000A4F10104DFDC484631462A46434600F09B
:1002200000B830BCBDE8C09F202A04DB203A00FAA9
:1002300002F1002070479140C2F1200320FA03F33D
:10024000194390407047202A04DB203A21FA02F03B
:100250000021704721FA02F3D040C2F12002914000
:100260000843194670470000064C074D06E0E06859
:1002700040F0010394E8070098471034AC42F6D3ED
:10028000FFF786FF3C3800085C380008FEE770473F
:10029000F0B5044690F8540000269BB00D460128A6
:1002A0000DD0012084F8540032492068002788428C
:1002B00008D13149009102F010F958B10EE0022046
:1002C0001BB0F0BDA06D40F02000A06584F8547014
:1002D0000120F5E7009802F000F948B1A06D40F068
:1002E0002000A0655FF0010684F854703046E7E70F
:1002F00022482A6840F61F71002A826822F4604270
:100300001FD0636B42EA43326B681A4382602268F3
:10031000936803F00303012B02D11268D207E3D1E3
:10032000009A926802F00302012A03D1009A12682F
:10033000D207D9D1AB682A681A4383688B431A4322
:1003400015E082602268936803F00303012B02D159
:100350001268D207C8D1009A926802F00302012AFB
:1003600003D1009A1268D207BED182688A438260A4
:10037000BAE70000000004500001045000030450DC
:100380002DE9F84300270446009790F85400DFF861
:10039000D4930D46B846012811D0012684F8546044
:1003A000206802F096F860B1A06D40F02000A065D2
:1003B0005FF0010784F854803846BDE8F8830220D6
:1003C000FBE76868052812D8022807D0032807D061
:1003D000042807D0052807D0062007E00C2005E0F8
:1003E000122003E0182001E04FF480706860A988B3
:1003F0004FF4407C01F440739CFAACFCBCFA8CFCDA
:10040000206823FA0CF300EB83002A6801F01F0137
:100410004FF01F0C0CFA01FC036BC2F3846223EA59
:100420000C038A40134303632068816811F00C0FAA
:100430001CD1AA68296802F054F820686969C2686A
:10044000C2F3C102520091402A69042A0FD000EB86
:1004500082002B68DFF810C3026E03F0F84302EA53
:100460000C020B431A4342F00041016672E0002186
:1004700002F029F8400320684FF0000173D002F029
:1004800022F890FAA0F0B0FA80F1286842036FD009
:1004900090FAA0F0B0FA80F0814204D10022114617
:1004A000206802F041F80121206802F00CF84003B6
:1004B00020684FF001015ED002F005F890FAA0F03C
:1004C000B0FA80F1286842035AD090FAA0F0B0FA4E
:1004D00080F0814204D100220121206802F024F83A
:1004E0000221206801F0EFFF400320684FF0020175
:1004F00049D001F0E8FF90FAA0F0B0FA80F1286846
:10050000420345D090FAA0F0B0FA80F0814204D1C5
:1005100000220221206802F007F80321206801F080
:10052000D2FF400320684FF0030134D001F0CBFF2D
:1005300090FAA0F0B0FA80F12868420330D090FA27
:10054000A0F0B0FA80F0814204D10022032120689B
:1005500001F0EAFF2068816801F00301012925D13B
:1005600021E000E004E001F0AEFFC0F384618CE71D
:10057000C0F3846090E701F0A6FFC0F38461A1E7B7
:10058000C0F38460A5E701F09EFFC0F38461B6E785
:10059000C0F38460BAE701F096FFC0F38461CBE753
:1005A000C0F38460CFE70168C9077DD12A7B296841
:1005B00050F8B03FC1F3120C23EA0C0302F0200CF8
:1005C0004FF0FF3202FA0CF20A40C2F312010B4361
:1005D0000360E96849456AD12868410317D090FA59
:1005E000A0F1B1FA81F1491C09294FEA40312DD817
:1005F00000290FD090FAA0F1B1FA81F101F10101C7
:1006000006FA01F609D100BFC0F3846109E0C0F326
:100610008461E8E7C0F38461F0E790FAA0F1B1FAF1
:1006200081F101F1010146EA816102D1C0F38460E8
:1006300003E090FAA0F0B0FA80F000EB40004FF435
:10064000401202EB005041EA00012AE000290CD0E0
:1006500090FAA0F1B1FA81F101F1010106FA01F677
:1006600006D100BFC0F3846106E0C0F38461F3E704
:1006700090FAA0F1B1FA81F101F1010146EA81613C
:1006800002D1C0F3846003E090FAA0F0B0FA80F0E9
:10069000364A00EB400002EB005041EA000141F015
:1006A0000071AA68206800E001E001F01AFFDFF89D
:1006B000C0C029682F4D304B3048614504D1826855
:1006C00002F0E07212020FD5A94204D1826802F052
:1006D000E072D20108D599427FF46CAE826802F0D4
:1006E000E07252023FF566AE254A264E61451CD1A6
:1006F0002168914201D0B142EED18168826801F057
:10070000E07141F4000122F0E0720A4382601E4869
:100710001E490068B0FBF1F0C0EB0010C00000E023
:10072000401E00900028FBD144E6A9420AD121686E
:10073000914201D0B142F7D1816801F0E07141F0FE
:10074000807109E09942EFD121689142ECD1816832
:1007500001F0E07141F48001826822F0E0720A4306
:10076000826027E600007F4000F0FF03000050FE9B
:10077000000052C7000084CB010000800003045039
:1007800000000450000204501400002080841E0069
:10079000F8B54FF0000504002E46009502D0A06D7C
:1007A00010B107E00120F8BD204600F0FDF8E66535
:1007B00084F8546020688168C1F3407119B1816880
:1007C000704A1140816020688168C1F3007191B95D
:1007D00081686D4A114041F0805181606B486C49DD
:1007E0000068B0FBF1F000EB8000400000E0401E2C
:1007F00000900028FBD120688168C1F3007141B9E5
:10080000A16D41F01001A165E16D41F00101E165CB
:100810000125A16DC90602D401F05BFE30B1A06DC7
:1008200040F01000A06501252846F8BDA06D20F419
:10083000807040F00200A0652168886800F0030025
:10084000012802D10868C0073FD15248814212D125
:10085000D0F8081101F00301012903D1D0F80011EB
:10086000C90732D1D0F8081201F00301012925D1BE
:10087000D0F8000220E0484A9142816801F003016B
:100880000DD1012902D10168C9071ED1D0F8081283
:1008900001F00301012907D1D0F8001202E001297B
:1008A00002D10168C90710D1D0F8081101F0030185
:1008B000012903D1D0F80001C00706D1374960688B
:1008C0008A6822F47C1202438A60E168A06BE269C4
:1008D0000843A16841EA42310843616A40EA0140A5
:1008E000012904D1218D2E4A02EB41410843E16ADE
:1008F00029B101F47071226B014342EA01002268C0
:10090000D168284B19400143D1602068816811F0FB
:100910000C0F12D1A169626B890341EA4202C168DE
:1009200044F2020399431143C160E06B01280CD0EB
:100930002068016921F00101016120690128206816
:10094000016B21F00F0111D013E0D4E9100108432D
:10095000D4E912121143084321680A6940F2FC737A
:100960009A43104340F001000861E6E7226A521EF4
:1009700011430163A06D20F0020040F00100A0656A
:1009800052E70000C0FFFF5FC0FFFF7F14000020A0
:1009900080841E0000000450000104500003045035
:1009A0000000FEFF07C0F0FF00B500680C4987B0EB
:1009B000884212D10B48C16C41F40051C164C06C33
:1009C000694600F400500590072000900B2001902C
:1009D00000200290044800F017F807B000BD0000A6
:1009E00000000450001002400008004870B50446A2
:1009F00000F0FEF80546601C00D0641C00F0F8F81A
:100A0000401BA042FAD370BD2DE9F84FDFF898B132
:100A100000234FF0010C4FF0030A4FF00F090BF1C8
:100A2000040EB9E00CFA03F4224070D04D68022D98
:100A300001D0122D0ED1DD0800EB8508D8F820502A
:100A40005E07F70E09FA07F6B5430E69BE402E435E
:100A5000C8F8206007685E0091F804800AFA06F57D
:100A600008F00308AF4308FA06F848EA0708C0F898
:100A700000804F68012F05D0022F03D0112F01D025
:100A8000122F13D1D0F80880CF6828EA0508B740A4
:100A900047EA08078760D0F804800F7928EA04083D
:100AA000C7F300179F4047EA08074760D1F8048062
:100AB0006FEA0807BF0706D1C76AA743C8F3C00497
:100AC0009C403C43C462C468AC438D68B540254338
:100AD000C5604C68E4005ED5344C256E45F00105D8
:100AE0002566246E23F0030504F001040094304CC5
:100AF0002E19B4689D072F0F09FA07F5AC43B0F122
:100B0000904F05D02B4DA84204D101251CE042E0B6
:100B1000002519E0284DA84201D1022514E0274DF7
:100B2000A84201D103250FE0254DA84201D104259B
:100B30000AE0244DA84201D1052505E0224DA84236
:100B400001D1062500E00725BD402543B560DBF84F
:100B500000405D464E689443F60300D514432C6074
:100B6000DEF8004075464E689443B60300D5144342
:100B70002C600D4D08352C684E689443F60200D564
:100B800014432C60084D0C352C684E689443B60213
:100B900000D514432C605B1C0A6832FA03F57FF41D
:100BA00041AF00F013B80000000401400010024003
:100BB000000001400004004800080048000C004804
:100BC00000100048001400480018004818BCBDE898
:100BD000E08F0069084000D00120704742694A4018
:100BE000426170470AB181617047816270470000BD
:100BF00001480068704700001000002090F8412074
:100C0000202A24D190F84020012A20D0012280F807
:100C10004020242280F841200268136823F0010359
:100C200013600268136823F480531360026813682A
:100C30000B43136001680A6842F001020A60202138
:100C400080F84110002180F84010084670470220CB
:100C5000704790F84120202A22D190F84020012AA4
:100C60001ED0012280F84020242280F84120026812
:100C7000136823F0010313600268136823F47063A0
:100C800043EA0121116001680A6842F001020A602A
:100C9000202180F84110002180F84010084670475C
:100CA0000220704770B5040004D094F8410000257C
:100CB00028B109E04FF400706064012070BD84F831
:100CC0004050204600F04CF8242084F84100206871
:100CD000016821F0010101606068216820F0706006
:100CE00008612068816821F400418160E068012882
:100CF000A06807D040F4044021688860E0680228BA
:100D000003D006E040F40040F6E721684FF40060AD
:100D1000486020684168114A114341602068C168F9
:100D200021F40041C160D4E904010843A16940EA0B
:100D300001202168C860D4E90701084321680860E0
:100D40002068016841F0010101606564202084F899
:100D50004100256384F84250002070BD00800002ED
:100D6000F0B5164F0168122201230325042614480A
:100D7000144C87B0B9420DD129028DE86E00694646
:100D8000FFF742FEA06D40F40010A065A06D00F4D6
:100D9000001010E00C4FB9420ED14FF440618DE8C5
:100DA0006E006946FFF730FEA06D40F48000A0653C
:100DB000A06D00F48000059007B0F0BD0054004025
:100DC000000400480010024000580040024801683A
:100DD000491C0160704700001000002010B503207E
:100DE00000F07CF8002000F005F800F017F8002073
:100DF00010BD000010B5044607484FF47A71006832
:100E0000B0FBF1F001F060F900222146501E00F025
:100E100045F8002010BD0000140000201E4808B551
:100E2000016E41F001010166016E01F001010091C6
:100E3000816D41F080518165806D00F0805000909F
:100E4000032000F04BF8002211466FF00B0000F079
:100E500025F8002211466FF00A0000F01FF800226A
:100E600011466FF0090000F019F800221146501FDA
:100E700000F014F800221146101F00F00FF80022B5
:100E80001146901E00F00AF80022BDE80840114605
:100E9000501E00F003B8000000100240F0B40E4BEA
:100EA0001B680C46C3F30223C3F10705042D00D9C8
:100EB0000425191D072901D2002300E0DB1E0126AD
:100EC00006FA05F1491E214099409E40761E1640C3
:100ED0003143F0BC01F02ABD0CED00E0064900F002
:100EE000070208684FF6FF03184040EA0220034A51
:100EF00010430860704700000CED00E00000FA05A8
:100F00001549B0F5007F0868C0F3412009D00228D8
:100F100005D0086820F4C06040F4806008600020BC
:100F200070470128FBD0086820F4C06040F40070CE
:100F300008600A480A4A0068B0FBF2F032225043C7
:100F400000E0401E10B14A695205FAD448694005D4
:100F5000E5D5032070470000007000401400002019
:100F600040420F000248006800F4C0607047000073
:100F7000007000402DE9F05F054600204FF48077B7
:100F80000346FC014FF4FA464FF4007AFE49B5F5EA
:100F9000003F19D0CA68DFF8F49302F0030CFC4A52
:100FA0004FF0F008BCF1010F27D0D1F80CC00CF0C5
:100FB000030CBCF1020F35D0D1F80CC06FEA0C0C59
:100FC0005FEA8C7C35D03AE0D1F8902002F4407290
:100FD000BA4276D0524508D1D1F89410890700D58D
:100FE000304600F0FCB92046FBE7B2F5407FF8D16F
:100FF00009688903F5D5E748F3E7D1F800C05FEA4F
:101000008C7C1CD50B681B0703D50B6803F0F00321
:1010100003E0D1F8943008EA13134FEA131C59F88F
:101020002C300CE0D1F800C05FEA4C5C07D51346C9
:1010300005E0D1F800C05FEA8C3C00D5D64B4FF4F8
:10104000804B4FF4806E4FF4006C554573D02ADC12
:10105000102D71D013DC012D6FD0022D6ED0042D18
:101060006DD0082DBDD1D1F8883013F0C00367D002
:10107000402B7DD0802B7CD0C02B22D0B1E7202DFF
:1010800078D0402D77D0802D76D0BD42A9D1D1F82F
:10109000883013F44033EAD0B3F5803FE9D0B3F59C
:1010A000003FE8D09DE75D4567D00BDC754565D016
:1010B000654534D0B5F5805F31D0B5F5005F90D18E
:1010C0000BE0BDE0A54272D0B5F5803F70D0B5F51C
:1010D000802F02D0B5F5002F83D1D1F8882002F0FF
:1010E0004062B2F1406F7CD0B2F1006F76D0B2F1C5
:1010F000806FC3D10A681201C0D50A69D202BDD57A
:10110000C8680A69C0F30210401CB3FBF0F0C2F3D8
:101110000622D1F810105043C1F34151E6E09F4C34
:10112000D1F8882065450CD102F44002B2F5400F99
:101130003FF459AF0AE018E1A0E076E086E091E0E4
:1011400004E102F04072B2F1407FF1D0B2F5000F3D
:101150001FD0B2F1007F1CD05AB3B2F5800F02D07D
:10116000B2F1807F8AD14A69D20387D5C86806E088
:10117000D1E0D1E08FE0D9E0E9E099E013E1C0F3FC
:101180000210401CB3FBF0F04A694969C2F3062221
:101190001FE0CA68D20385D5C868CA68C0F30210C8
:1011A000401CB3FBF0F0C2F30622C96811E009E16C
:1011B000B3E001E050439BE00A69D2039CD5C868C4
:1011C0000A69C0F30210401CB3FBF0F00969C2F3D6
:1011D0000622890303D51121ECE702E013E0072181
:1011E000E8E70A68920787D50868000703D508680A
:1011F00000F0F00003E0D1F8940008EA10100109B3
:1012000059F82100EDE60A689201FBD5CA68D202BE
:10121000F8D5C868CA68C0F30210401CB3FBF0F0F0
:10122000C2F306225043C96876E7D1F8883013F03C
:10123000030377D0012B6ED0022B6DD0032BE1D1AD
:10124000D1F8901089073FF5CEAECAE6D1F88830C4
:1012500013F00C037AD0042B5DD0082B71D00C2B2B
:10126000EED0BEE6D1F8883013F030036ED0102BEC
:1012700077D0202B65D0302BE2D0B2E6D1F8883081
:1012800013F4407362D0BB426BD0534559D0B3F5D1
:10129000407FD5D0A5E6D1F8883013F4406355D00F
:1012A00073455ED063454CD0B3F5406FC8D098E627
:1012B000D1F8882002F04052B2F1405F51D0B2F133
:1012C000805F18D0B2F1005F9CD14A69D20199D5F4
:1012D000C8684A69C0F30210401CB3FBF0F0C2F3C7
:1012E0000622D1F814105043C1F34161491C490052
:1012F000B0FBF1F075E60A69D201A6D5C8680A69A3
:10130000C0F30210401CB3FBF0F0C2F306225043BE
:101310000969E9E706E024E013E0D1F8880010F05D
:10132000004F1ED100F05EB800F0E4BAD1F888306A
:1013300013F440534FD0B3F5805F12D0B3F5005F84
:101340008FD1096849058CD510464AE643E0D1F8AB
:10135000883013F440433ED05B4502D0A342F0D026
:101360003FE600F044B800F0D5BAD1F8883013F465
:10137000402330D0B3F5802F3FF42EAEB3F5002FCD
:10138000DFD0B3F5402F0BE0001002400438000816
:101390000024F40090D0030000127A0068FF1F00C0
:1013A0003FF477AF1DE6D1F8883013F4401312D024
:1013B000B3F5801FE0D0B3F5001FC2D0B3F5401FD6
:1013C000EED00EE6D1F8883013F0804303D0B3F1AD
:1013D000804FB6D005E600F00FB800F07BBA30BC05
:1013E000BDE8C09F30BCBDE8C05FFFF79DBF30BC0B
:1013F000BDE8C05FFFF7B7BF30BCBDE8C05FFFF717
:10140000ECBF00002DE9F84F044600270088E54DA9
:101410003E46010504F1200B1DD5606E78B1B0F594
:10142000800F11D0B0F5000F04D0B0F5400F22D0DE
:1014300001270FE0E86840F48030E8601BE00021FD
:10144000201D01F085FA03E00021584601F016FB4B
:10145000070010D03E462088C00426D5A06EC0B13B
:10146000B0F1807F1AD0B0F1007F0DD0B0F1407F95
:1014700019D0012718E0D5F88800616E20F44000EB
:101480000843C5F88800E6E7E86840F48030E86083
:1014900009E00021201D01F05BFA03E0002158461D
:1014A00001F0ECFA0746F7B13E46206880033AD5D2
:1014B000A86D4FF00008C00009D4A86D40F080501E
:1014C000A865A86D4FF0010800F080500090DFF88B
:1014D000D8A2DAF8001041F48071CAF80010FFF7C2
:1014E00087FB814610E0D5F88800A16E20F040709F
:1014F0000843C5F88800D8E7FFF77AFBA0EB09009E
:10150000022801D9032705E0DAF80000C005F3D569
:10151000002F7CD04FEA0706B8F1000F03D0A86D6A
:1015200020F08050A8652078C00707D0D5F8880043
:10153000A16B20F003000843C5F8880020788007DD
:1015400007D5D5F88800E16B20F00C000843C5F8FA
:1015500088002078400707D5D5F88800216C20F056
:1015600030000843C5F888002078000707D5D5F873
:101570008800616C20F0C0000843C5F8880020781E
:10158000C00607D5D5F88800A16C20F44070084348
:10159000C5F888002078800607D5D5F88800E16C6A
:1015A00020F440600843C5F888002088800507D5EE
:1015B000D5F88800E16D20F440200843C5F8880084
:1015C0002088400507D5D5F88800216E20F440100A
:1015D0000843C5F888002078400607D5D5F888006C
:1015E000216D20F440500843C5F88800207800069B
:1015F00007D5D5F88800616D20F440400843C5F850
:1016000088002088C00509D5D5F8880000E01CE0D6
:10161000A16D20F440300843C5F8880020884FF0C1
:10162000006780044FF080684FD5D5F88800E16EE0
:1016300020F040600843C5F88800E06EB8423CD115
:10164000E86840F48010E8603FE0D5F8900010F4BE
:10165000407015D0D4F88410814211D0D5F8900094
:10166000D5F8901020F4407041F48031C5F8901006
:10167000D5F8901021F48031C5F89010C5F890008D
:10168000C00710D0FFF7B4FA074641F2883906E0E8
:10169000FFF7AEFAC11B494501D903263CE7D5F84F
:1016A00090008007F4D5D5F89000D4F8841020F489
:1016B00040700843C5F890002EE7404505D1012150
:1016C000201D01F045F900B106462068000317D53A
:1016D000D5F88800216F20F040600843C5F88800E5
:1016E000206FB84204D1E86840F48010E86007E059
:1016F000404505D10121201D01F02AF900B106461F
:101700002068400317D5D5F88800616F20F040604D
:101710000843C5F88800606FB84204D1E86840F417
:101720008010E86007E0404505D10121201D01F04F
:101730000FF900B10646208840041AD5D5F8880074
:10174000A16F20F040500843C5F88800A06FB0F1A9
:10175000805F03D0B0F1005F05D00AE00221201DB8
:1017600001F0F6F803E00221584601F087F900B1D4
:1017700006462088000407D5D5F88800E16F20F0E0
:1017800080400843C5F888002068C00307D555F895
:10179000880FD4F8801020F00040084328603046BD
:1017A00000F004B8001002400070004018BCBDE812
:1017B000E08F00002DE9F0470F46050058D03E4E5F
:1017C000306800F00700B84209D2306820F0070006
:1017D00038433060306800F00700B84248D12878BC
:1017E000364CC0072CD06868032811D0022812D0CC
:1017F000216898B1490500293ADAA16821F003016E
:101800000143A160FFF7F4F9804641F2883910E006
:1018100021688901EFE721688903ECE78907EAE796
:10182000FFF7E6F9A0EB0801494502D90320BDE81E
:10183000F087A068696800F00C00B0EB810FEFD171
:101840002878800705D5A068A96820F0F000084333
:10185000A060306800F00700B8420BD9306820F073
:10186000070038433060306800F00700B84201D00C
:101870000120DCE72878400705D5A068E96820F456
:10188000E0600843A0602878000706D5A0682969B1
:1018900020F4605040EAC100A06000F03BF8A1686D
:1018A000074AC1F30311515CC84006490860002093
:1018B000FFF7A0FA0020BAE7002002400010024023
:1018C000F437000814000020014800687047000049
:1018D000140000200448054900688968044AC1F3DF
:1018E0000221515CC84070471400002000100240E3
:1018F000343800080448054900688968044AC1F37F
:10190000C221515CC8407047140000200010024002
:101910003438000830B52D49002318468A682C4C0D
:1019200012F00C0F4FEA640514D08A68C2F38102EA
:10193000032A04D1CA6802F00302012A0AD08A6885
:10194000C2F38102012A19D08A68C2F38102022AF5
:1019500016D016E00A68120704D4D1F89420C2F316
:10196000032202E00A68C2F303121A4B53F8223032
:101970008A6812F00C0F04D1184602E0204600E0FD
:1019800028468A68C2F38102032A1DD1C868CA6842
:1019900000F00300C2F30212521C022804D00328F4
:1019A00005D0B3FBF2F004E0B4FBF2F001E0B5FBCC
:1019B000F2F0CA68C968C2F306225043C1F341611C
:1019C000491C4900B0FBF1F030BD0000001002409E
:1019D0000024F400043800082DE9F84304007DD009
:1019E0002078FF4DC0065DD5A86810F00C0F0AD016
:1019F000A0690028286873D040F001002860FFF734
:101A0000F7F8064655E02868800702D5A069002847
:101A1000E5D0216A2868000703D5286800F0F000A7
:101A200004E0D5F89400F02202EA1010814216D9A1
:101A3000084601F0A7F8002850D1286840F00800B7
:101A400028602868216A20F0F00008432860686850
:101A5000E16920F47F4040EA0120686015E02868D1
:101A600040F0080028602868216A20F0F000084350
:101A700028606868E16920F47F4040EA01206860DE
:101A8000206A01F07FF80028D6D1FFF743FFA9684C
:101A9000D44AC1F30311515CC840D3490860002007
:101AA000FFF7A8F92CE000BFFFF7A2F8801B02287F
:101AB0007ED828688007F7D5286840F0080028609D
:101AC0002868216A20F0F000084328606868E1690E
:101AD00020F47F4040EA0120686011E0B2E0FFE7B7
:101AE00020F001002860FFF783F8064605E000BFFC
:101AF000FFF77EF8801B0228DAD828688007F7D421
:101B00002078C00748D0A868C0F3810002281DD003
:101B1000A868C0F38100032803D1E868C0438007A8
:101B200014D06068B0F5803F17D0B0F5A02F2868BA
:101B300017D020F480302860286820F480202860A6
:101B40006068E0B1FFF754F8064614E028688003A7
:101B500022D56068002875D01EE0286840F48030E7
:101B6000EDE740F480202860F7E700BFFFF740F87A
:101B7000801B64289CD828688003F7D50CE0FFF709
:101B800037F8064605E000BFFFF732F8801B6428EF
:101B90008ED828688003F7D42078800742D5A868BB
:101BA000C0F38100012816D0A868C0F3810000E0CE
:101BB000A9E0032804D1E86800F0030002280AD055
:101BC000E068002828681DD040F480702860FFF786
:101BD0000FF806460BE0286840050BD5E0680028A2
:101BE000B9D007E0FFF704F8801B022884D82868E2
:101BF0004005F7D56868217C20F0F85040EA016084
:101C000068600FE020F480702860FEF7F1FF064660
:101C100005E000BFFEF7ECFF801B022873D82868A0
:101C20004005F7D42078000729D560690028D5F849
:101C3000940013D040F00100C5F89400FEF7D8FFDF
:101C4000064606E0FBE000BFFEF7D2FF801B02283D
:101C500059D8D5F894008007F6D510E020F001009F
:101C6000C5F89400FEF7C4FF064604E0FEF7C0FF87
:101C7000801B022847D8D5F894008007F6D4207836
:101C8000400763D5A86D0026C00008D4A86D40F0B9
:101C90008050A865A86D012600F080500090534840
:101CA0000168C90511D40168804641F48071016062
:101CB000FEF79EFF074604E0FEF79AFFC01B0228CE
:101CC00021D8D8F80000C005F6D5A068012815D0A5
:101CD0000528D5F8900017D020F00100C5F8900035
:101CE000D5F8900020F00400C5F89000A06841F2FB
:101CF0008838C8B1FEF77CFF074610E0D5F89000A1
:101D000040F00100F0E777E040F00400C5F89000F3
:101D1000F4E700BFFEF76CFFC11B41456CD8D5F856
:101D200090008007F6D50CE0FEF762FF074604E05E
:101D3000FEF75EFFC11B414579D8D5F890008007BA
:101D4000F6D41EB1A86D20F08050A865A06AE0B35B
:101D5000A968C1F38101032972D00228286820F004
:101D60008070286011D02868000106D4286880009F
:101D700003D4E86820F00300E860E8681C490840E4
:101D8000E860FEF735FF044654E0FEF731FF0646F3
:101D900005E000BFFEF72CFF801B022847D828680B
:101DA0008001F7D4206BE16A000110380843616BB1
:101DB000A26B0902120941EA42410843A18F0D4A70
:101DC000490802EB4151084300E036E094F8401026
:101DD0004908120102EB41610843E86028680CE001
:101DE00000100240F437000814000020007000408A
:101DF000FFFFEEFE0000E0FF19E040F08070286079
:101E0000E86840F08070E860FEF7F2FE044604E007
:101E1000FEF7EEFE001B022809D828688001F7D5DE
:101E20000BE000BFFEF7E4FE001B022802D90320EE
:101E3000BDE8F88328688001F4D40020F8E7FFE7C4
:101E40000120F5E72DE9F04104000CD094F87D0065
:101E5000002620B984F87C60204600F0CDF82046AA
:101E600000F0CEFE10B10120BDE8F081022084F820
:101E70007D00E06820B101280ED002280ED000209D
:101E8000A2684FF400612AB1012A09D0022A0AD0BF
:101E9000032A0AD000250BE01020F1E72020EFE70D
:101EA0004FF4806504E00D4602E00D4640F001006D
:101EB0004D4B4D4A27682033974201D09F4202D1B3
:101EC000494F3F1F00E0494F3860E069E8B12068A2
:101ED000904201D0984201D1084601E04FF4805071
:101EE000FFF748F8E16900EB800040004902B0FBD1
:101EF000F1F10A22B1FBF2F0B1FBF2F302FB131194
:101F00002062082901D9401C206260684FF40071EA
:101F1000E8B3022864D0E06B012800D000212068DB
:101F20000268334B1A400260226B60681043D4E9A8
:101F30000D231A4310430843616A2843084321696B
:101F4000084361690843218C40EA01512068026816
:101F500011430160206841684EF20F0291434160D5
:101F600021684868A2691043D4E90A231A43104340
:101F70004860206881681F4A11408160A16C206D13
:101F8000226C0843E16C521E1143084300E027E035
:101F9000616C6FF0FF0202EB0121084321688B683E
:101FA000184388602068C1684FF220031940C1605F
:101FB000D4E915010843E16D02EB0121B4F860207A
:101FC00041EA024108432168CA681043C860C4F866
:101FD0008060012084F87D0084F87C60002043E765
:101FE000E06B01289AD09AE7045401400058014060
:101FF00010C005FF0080F8FF00B50068104987B0E9
:1020000088421AD10F4A116841B90F48036E43F450
:1020100000130366006E00F400100590491C116067
:1020200074200090022001900020029003900D2067
:10203000049069460548FEF7E7FC07B000BD0000C4
:10204000045401400C000020001002400010004821
:102050004FF0E0210428086903D020F00400086153
:10206000704740F00400FAE770B520211448FEF7ED
:10207000B0FD08B1012100E00021124897230022A1
:10208000017041B142608168491C8160962901D389
:102090008360427070BD4168491CC0E901129629F5
:1020A000F8D341F288350124A94202D982704360F5
:1020B00004E040F2DC52914200D98470447070BD5B
:1020C000000400480000002010B5401EB0F1807FE1
:1020D00001D3012010BD4FF0E02460610F21601793
:1020E00000F024FC0020A06107202061002010BD2A
:1020F00010B5FFF7B9FF10BD30B590F83C20012AAC
:102100003AD0012280F83C20CA688B6822F44072E1
:102110001A434B6822F480621A430B6822F400626F
:102120001A430B6922F480521A434B6922F400527D
:102130001A438B6A22F480421A430B8B22F47022DA
:1021400042EA03420D4D03680024AB4202D00C4D1D
:10215000AB420CD18D8C22F4700242EA0552CD695B
:1021600022F080722A43096A22F000720A435A64FC
:1021700080F83C40002030BD022030BD002C0140E2
:102180000034014010B5040003D094F83D0010B1B4
:1021900007E0012010BD002084F83C00204600F03C
:1021A0000DF8022084F83D00211D206800F0CCFDD0
:1021B000012084F83D00002010BD000008B50C4A45
:1021C00001680C48914207D1016E41F4003101666B
:1021D000006E00F4003009E0074A914207D1016E19
:1021E00041F480210166006E00F48020009008BD5B
:1021F00000440140001002400048014030B50D4D40
:102200000368002102240E2285B04FF09040AB42BB
:1022100001D1402303E0084DAB4208D18023009355
:10222000CDE90141CDE903126946FEF7EDFB05B0AA
:1022300030BD0000004401400048014070B5044634
:1022400090F83C000D4601280ED0012684F83C6031
:10225000022084F83D000C2A45D007DC5AB1042A3C
:102260001BD0082A78D12CE0022070BD102A4ED055
:10227000142A71D15DE0206800F0D4FD20688169E6
:1022800041F0080181612068816921F004018161C8
:10229000206881692A69114311E0206800F010FE6E
:1022A0002068816941F4006181612068816921F4BD
:1022B00080618161206881692A6941EA0221816126
:1022C0004AE0206800F044FE2068C16941F008013E
:1022D000C1612068C16921F00401C1612068C16940
:1022E0002A69114311E0206800F07AFE2068C16974
:1022F00041F40061C1612068C16921F48061C1615C
:102300002068C1692A6941EA0221C16124E020688C
:1023100000F0A0FE2068416D41F008014165206891
:10232000416D21F0040141652068416D2A69114326
:1023300011E0206800F0C6FE2068416D41F40061A4
:1023400041652068416D21F4806141652068416DDF
:102350002A6941EA0221416584F83D60002084F841
:102360003C0070BD10B5040003D094F83D0010B1DE
:1023700007E0012010BD002084F83C00204600F05A
:102380000CF8022084F83D00211D206800F0DCFCE0
:10239000012084F83D00002010BD704710B50446B0
:1023A0000068012200F030FD1248216881420BD004
:1023B0001148814208D01148814205D0104881421D
:1023C00002D01048814203D1486C40F40040486478
:1023D000206882680C490A40062A08D082680A40B0
:1023E000B2F5803F03D0016841F001010160002097
:1023F00010BD0000002C01400034014000400140AD
:1024000000440140004801400700010010B50400ED
:1024100003D094F8710010B107E0012010BD002036
:1024200084F87000204600F027F8242084F871001A
:102430002068016821F001010160204600F00CFFD6
:102440000128EBD0606A10B1204600F073FE2068CE
:10245000416821F4904141602068816821F02A019F
:1024600081602068016841F0010101602046BDE8FB
:10247000104000F0C3BE000000B500680F4987B0EF
:10248000884218D10E48016E41F480410166006E09
:10249000694600F4804005904FF4F050009002200F
:1024A00001900020029003200390072004904FF039
:1024B0009040FEF7A9FA07B000BD000000380140C7
:1024C00000100240FEE700EB8100006E00F0F840D3
:1024D00070478068C0F3800070478068C0F3800058
:1024E000704770B54FF0007401F0007394FAA4F4D3
:1024F000B4FA84F4E3404FF0F87494FAA4F501F0D0
:10250000F871B5FA85F500EB830021FA05F5072689
:10251000AE4094FAA4F44369B4FA84F4E140B343BE
:102520008A401343436170BD00EB8100016E21F0CE
:10253000004111430166704730B51A4889B0184907
:102540000024C0E9001484600425C460C0E9044587
:1025500001218461C0E90741C0E90941C462046303
:1025600044638463C463FEF713F900B1FEE706A970
:102570000C480694FDF78CFE00B1FEE70A48009077
:102580000620CDE901047F200594CDE903056946C5
:102590000448FDF7F5FE002800D0FEE709B030BD85
:1025A0000000045018000020020030042DE9F04F14
:1025B000494887B0C16C41F01001C164C16C01F0A1
:1025C00010010591C16C41F00401C164C16C01F0BE
:1025D00004010591C16C41F00101C164C16C01F0BD
:1025E00001010591C16C41F00201C164C16C01F0AF
:1025F00002010591C16C41F00801C164C06CDFF8B3
:10260000DCA000F0080047F2883405900022214643
:102610005046FEF7E7FA4FF460470022394630484B
:10262000FEF7E0FADFF8BCB04FF6387800224146FA
:102630005846FEF7D7FA4FF4FE59002249462A4879
:10264000FEF7D0FA0125CDE9004500240294694641
:1026500050460394FEF7D8F9244E4FF44060CDE97C
:102660000006694602945046FEF7CEF90097CDE980
:10267000015469461A480394FEF7C6F9CDF8008064
:10268000CDE90154694658460394FEF7BDF9CDF8EB
:102690000090CDE90154694613480394FEF7B4F95C
:1026A000C620CDE90006694602945846FEF7ACF90B
:1026B0001820CDE90006694602940948FEF7A4F9FE
:1026C0002020CDE90004694605480294FEF79CF9F4
:1026D00007B000F00DB800000010024000100048E4
:1026E00000040048000C00480008004800001110D9
:1026F00030BCBDE8C08F0000114810B50F49016023
:102700001049416000210122C0E9021201614161CA
:102710008161C1610162FEF7C5FA00B1FEE70021E7
:102720000748FEF76BFA00B1FEE700210448FEF708
:1027300090FA002800D0FEE710BD000000540040D1
:1027400080000020EC9C9010114810B50F490160EA
:102750001049416000210122C0E90212016141617A
:102760008161C1610162FEF79DFA00B1FEE70021BF
:102770000748FEF743FA00B1FEE700210448FEF7E0
:1027800068FA002800D0FEE710BD000000580040A5
:10279000CC000020EC9C9010134810B5114901604A
:1027A00000210163C0224160C0E90D21C163816045
:1027B00001610E4A4161C0E90612C1604162816255
:1027C00008220264C1620122C0E91121C1640165CD
:1027D0004165C0E916120166FFF734FB002800D0FE
:1027E000FEE710BD045401401801002000EE020075
:1027F00010B51E4892B01C49016042F210710024CD
:10280000C0E901142821C0E9031444618461FFF781
:10281000B9FC00B1FEE71548FFF7A4FD00B1FEE7E3
:102820006020CDE90B040D940E940F9410940022B7
:102830000BA90E481194FFF701FD00B1FEE70094CB
:102840004FF40050CDE9044001940294039406949F
:10285000694606480A94FFF74FFC00B1FEE70348BB
:10286000FFF7CCFC12B010BD004401409C010020D9
:1028700030B51E481C4993B002C042F210710024CA
:10288000282532C040F81049446184611748FFF799
:1028900079FC00B1FEE71548FFF764FD00B1FEE7E3
:1028A0006020CDE90C540B900E940F9410940022EC
:1028B0000BA90E481194FFF7C1FC00B1FEE700948C
:1028C0004FF40050CDE9044001940294039406941F
:1028D000694606480A94FFF70FFC00B1FEE703487B
:1028E000FFF78CFC13B030BD00480140DC01002034
:1028F0000C4810B50A4901604FF4E13141600021F4
:1029000081600C22C160C0E904129201C0E9062175
:1029100001624162FFF77AFD002800D0FEE710BD9A
:10292000003801401C020020FEE770470907090E2D
:10293000002806DA00F00F0000F1E02080F8141DF6
:10294000704700F1E02080F80014704770470000E5
:102950002DE9F041444C05468846E0680026810791
:1029600028680DD0E16801F00301814216D1A8B1B9
:10297000E0686968C0F30210401C88420ED120E074
:10298000012804D0022805D0032807D108E02168D7
:10299000890701E021684905002907DB01265FE07E
:1029A0002168890302D421684903F5E7E1686A6870
:1029B0006FF00F0321F0730103EB02121143014387
:1029C000E160206820F080602060FEF711F9074682
:1029D00005E000BFFEF70CF9C01B022837D82068BD
:1029E0000001F7D4B8F1000F18D0B8F1010F1ED0D4
:1029F000287D4FF07E41400801EB4060A96840EA25
:102A000001202169194A114008432061206840F0E3
:102A100080602060FEF7ECF807461AE0A868E968D5
:102A20000002090940EA41402169114AEBE7288A7E
:102A30001049400801EB4050A96840EA0120216993
:102A40000D4AE0E7FEF7D4F8C01B022801D903269F
:102A500006E020680001F5D52069A96908432061D6
:102A60003046BDE8F081000000100240FF80FFF911
:102A7000FF80FDFF0000E0FFFF809FFF2DE9F04198
:102A80003D4C06468846E0680025810730680DD039
:102A9000E16801F00301814216D1A8B1E0687168D4
:102AA000C0F30210401C88420ED120E0012804D05F
:102AB000022805D0032807D108E02168890701E032
:102AC00021684905002907DB012551E021688903B8
:102AD00002D421684903F5E7E16872686FF00F03DB
:102AE00021F0730103EB021211430143E1602068FE
:102AF00020F080502060FEF77BF8074605E000BF1D
:102B0000FEF776F8C01B022829D820688000F7D489
:102B1000B8F1000F15D0307C4FF07E41400801EB3A
:102B20004060B16840EA01206169144A11400843DD
:102B30006061206840F080502060FEF759F8074639
:102B40000FE0B068F1680002090940EA414061699C
:102B50000B4AEBE7FEF74CF8C01B022801D903250E
:102B600006E020688000F5D56069716908436061FE
:102B70002846BDE8F081000000100240FF80FFF908
:102B8000FF80FDFFF8B51C4D06460024A86DC0006F
:102B900002D5FEF7E7F90DE0A86D40F08050A8657A
:102BA000A86D00F080500090FEF7DCF9A96D21F0CF
:102BB0008051A965B0F5007F04D0802E07D94FF071
:102BC00003040AE0802E08D9A02E01D804E001D128
:102BD000022402E0702E00D101240848016821F08F
:102BE000070121430160006800F00700A04201D006
:102BF0000120F8BD0020F8BD001002400020024076
:102C000010B50E4941F6583203680968B1FBF2F17C
:102C100089001C68002224F480341C6031B10368F0
:102C20001B68491EDB03F9D4104610BD50F8801F05
:102C300041F0400101600322F6E70000140000208B
:102C4000704710B5FEF7C2F8BDE81040FFF750BA64
:102C50002DE9F041B8B001250024CDE928544FF00A
:102C600010080226CDF888806020CDE92C652A90D6
:102C700028200727CDE92E50CDE93076329622A8BC
:102C8000FEF7AAFE00B1FEE70F2033900320CDE946
:102C900034043694042133A83794FEF78BFD00B139
:102CA000FEE7149444F6C1001994009000071E90AA
:102CB000159413480195CDE906600E94CDE904768C
:102CC000CDE902586846FEF79DFB00B1FEE74FF4E0
:102CD0000070FEF715F900B1FEE7FEF7F5FD4FF4C1
:102CE0007A71B0FBF1F0FFF7EFF90420FFF7B0F9CC
:102CF00000221146501EFEF7D1F838B0BDE8F08131
:102D0000000001010D48016841F4700101600C48A8
:102D1000016841F001010160002181600268094BF6
:102D20001A4002608214C260026822F480220260AB
:102D300081610249C00380390860704788ED00E076
:102D400000100240FFFFF6EA2DE9F0470268264B2B
:102D5000264D274E274F284C4FF0804A984209D0E5
:102D6000504507D0A84205D0B04203D0B84201D0A8
:102D7000A04204D122F0700C4A6842EA0C02DFF84B
:102D80007CC0DFF87C80DFF87C9098420FD0504503
:102D90000DD0A8420BD0B04209D0B84207D0A04213
:102DA00005D0604503D0404501D0484503D122F409
:102DB0004075CA682A434D6922F080022A430260A6
:102DC0008A68C2620A688262984207D0A04205D02F
:102DD000604503D0404501D0484501D109690163F0
:102DE00001214161BDE8F087002C01400004004052
:102DF00000080040000C0040003401400040014049
:102E0000004401400048014010B501F01F030121BA
:102E1000046A99408C430462016A9A40114301623A
:102E200010BD00002DE9F043026A22F001020262A7
:102E3000056A436882691C4C25F0020522400C6833
:102E400022F0030214438A68194E2A43174D194F82
:102E5000DFF864C0DFF86490A84207D0B04205D024
:102E6000B84203D0604501D0484506D122F0080899
:102E7000CA6842EA080222F00402A84207D0B0421F
:102E800005D0B84203D0604501D0484505D14D6911
:102E900023F440731D438B692B434360846149686D
:102EA00041630262BDE8F0838FFFFEFF002C01400A
:102EB000003401400040014000440140004801400E
:102EC000F0B5026A22F010020262056A4268836964
:102ED000194C1B4E23400C6823F4407343EA04242E
:102EE00025F020038D6843EA0513144DA84201D054
:102EF000B04206D1CF6823F0800343EA071323F0E2
:102F00004003A8420AD0B04208D00E4DA84205D0D6
:102F10000D4DA84202D00D4DA84207D14D6922F4B3
:102F2000406242EA85028D6942EA8502426084611C
:102F3000496881630362F0BDFF8FFFFE002C0140F2
:102F4000003401400040014000440140004801407D
:102F5000F0B5026A22F480720262056A4368C269AF
:102F6000194C1B4E22400C6822F00302144325F436
:102F700000728D6842EA0522144DA84201D0B04289
:102F800006D1CF6822F4006242EA072222F480626E
:102F9000A8420AD0B04208D00E4DA84205D00E4D2E
:102FA000A84202D00D4DA84207D14D6923F44053E9
:102FB00043EA05138D6943EA05134360C461496818
:102FC000C1630262F0BD00008FFFFEFF002C0140D4
:102FD00000340140004001400044014000480140ED
:102FE00030B5026A22F480520262046A4268C36900
:102FF000124D24F400542B400D6823F4407343EA2F
:1030000005238D6844EA05340D4DA8420BD00D4DC3
:10301000A84208D00C4DA84205D00C4DA84202D0C1
:103020000B4DA84204D14D6922F4804242EA851238
:103030004260C36149680164046230BDFF8FFFFED6
:10304000002C014000340140004001400044014098
:103050000048014030B5026A22F480320262046AFC
:103060004268436D114D2B400D681D4324F400331D
:103070000C8943EA04430E4CA0420BD00D4CA042F5
:1030800008D00D4CA04205D00C4CA04202D00C4CF4
:10309000A04204D14C6922F4803242EA0422426008
:1030A000456549688165036230BD00008FFFFEFF02
:1030B000002C014000340140004001400044014028
:1030C0000048014030B5026A22F480120262046AAC
:1030D0004268436D114D24F400142B400D6843EAFF
:1030E00005230D8944EA05540D4DA8420BD00D4D22
:1030F000A84208D00C4DA84205D00C4DA84202D0E1
:103100000B4DA84204D14D6922F4802242EA852267
:10311000426043654968C165046230BDFF8FFFFEB0
:10312000002C0140003401400040014000440140B7
:103130000048014090F82410C90706D001684A6889
:10314000836A22F400321A434A6090F824108907F7
:1031500006D501684A68C36A22F480321A434A607D
:1031600090F82410490706D501684A68036B22F4D9
:1031700080221A434A6090F82410090706D5016896
:103180004A68436B22F400421A434A6090F82410C4
:10319000C90606D501688A68836B22F480521A43F7
:1031A0008A6090F82410890606D501688A68C36B86
:1031B00022F400521A438A6090F82410490611D56F
:1031C00001684A68036C22F480121A434A60016C59
:1031D000B1F5801F06D101684A68436C22F4C00231
:1031E0001A434A6090F82410090606D501684A6817
:1031F000806C22F4002202434A607047F8B5002632
:1032000004464667FDF7F4FC0546206800686FF049
:103210007E47000708D52B4600224FF400112046B8
:10322000009700F069F960B92068006840070AD586
:103230002B4600224FF480012046009700F05CF9F5
:1032400008B10320F8BD202084F8710084F87200D2
:1032500084F870600020F8BD2DE9F0410446016853
:1032600080682369E66918436369102500273343A2
:103270001843954A0B68954E334003430B60206812
:103280004168E36821F44051194341602168A06915
:10329000914201D0236A18438B6823F430630343BF
:1032A0008B608B4B21688B4899420DD1D0F88800F8
:1032B00010F0030006D001285AD0022856D0032867
:1032C00059D157E0012556E0834B99420BD1D0F8F4
:1032D000880010F00C0047D0042849D0082845D0B9
:1032E0000C2848D146E07D4B99420BD1D0F888009C
:1032F00010F0300038D010283AD0202836D03028AE
:1033000039D137E0764B99420BD1D0F8880010F0D4
:10331000C00029D040282BD0802827D0C0282AD10F
:1033200028E0704B99420ED1D0F8880010F440701C
:103330001AD0B0F5807F1BD0B0F5007F16D0B0F565
:10334000407F18D116E0914215D1D0F8880010F4D2
:10335000406009D0B0F5806F0AD0B0F5006F05D09D
:10336000B0F5406F07D105E0002504E0022502E03A
:10337000042500E008255C4B00264FF400409142F4
:103380003DD135B1022D07D0042D07D0082D10D125
:1033900007E0FEF79FFA03E0184602E0FEF7BAFAEC
:1033A000A8B3626802EB4201814202D8B0EB023F4F
:1033B00001D9012775E0DFF834815DB1022D0CD011
:1033C000042D13D0082DF4D150082905401846F1DA
:1033D000000105E0FEF77EFA0AE050084449F5E7EF
:1033E0000023FCF7EDFEA0F5407156E0FEF792FADF
:1033F0006268010E0302500818187141F0E7E16994
:103400004FF6EF7881422FD1092DD2D200E048E06B
:10341000DFE805F006092005230505052600C8E7B5
:10342000FEF758FA01E0FEF765FA4100D4F804000F
:1034300001EB5001B1FBF0F080B2A0F11001414569
:10344000B7D84FF6F0710140C0F342000143206845
:10345000C16026E027496068EAE7FEF75BFAE4E727
:103460004FF480316068E3E7092DA2D2DFE805F070
:1034700006091E052205050525009AE7FEF72AFA2A
:1034800001E0FEF737FA0146606801EB500100BF2A
:10349000B1FBF0F080B2A0F11001414589D821685C
:1034A000C860266638466666BDE8F081606803EB52
:1034B0005001EDE7FEF72EFAE5E7616800EB5100F9
:1034C000B0FBF1F0E6E7000000800040F369FFEF99
:1034D0000038014000100240004400400048004015
:1034E000004C0040005000400024F400FFFC0F009E
:1034F000000024F40048E8012DE9F0419846174601
:103500000E460446069D1DE0681C1BD02DB1FDF73C
:103510006FFBA0EB0800A84214D92068016821F4D1
:10352000D07101602068816821F001018160202054
:1035300084F8710084F87200002084F87000032081
:10354000BDE8F0812068C06936EA000004D00020A0
:10355000B842D9D00020F3E70120F9E7FEE702E006
:1035600008C8121F08C1002AFAD17047704700200E
:1035700001E001C1121F002AFBD17047FDF72EFCAC
:10358000FFF766FBFFF712F8FEF7D6FFFFF7B4F878
:10359000FFF7DAF8FFF700F9FFF72AF9FFF768F904
:1035A000FFF7A6F900211648FEF7F8FE144800219F
:1035B0004030FEF7F3FE01250026124CDFF848806C
:1035C0002F034FF4FA79A07858B1012239464046CA
:1035D000FDF708FBE0780028F5D100F08BF8E570E6
:1035E000F1E7E07808B100F011F8002239464046D2
:1035F000FDF7F8FA4846FDF7F9F9E670E3E7000051
:103600009C01002000000020001000482DE9F0413E
:10361000344E354F354D2824012220212846FDF710
:10362000E1FA012210212846FDF7DCFA01220821E7
:103630002846FDF7D7FA3460FA20641FFDF7D6F963
:103640000F2C4AD0142C2FD0232C28D0002CE3DCB4
:1036500000244FF47A7620212846FDF7BFFA102186
:103660002846FDF7BBFA08212846FDF7B7FA304691
:10367000FDF7BCF9641CE4B2042CECD30022202139
:103680002846FDF7AFFA002210212846FDF7AAFAD6
:103690002846BDE8F04100220821FDF7A3BA002228
:1036A0004FF48051284615E000224FF48041104825
:1036B000FDF798FA4FF48078002241462846FDF73E
:1036C00091FA00224FF400412846FDF78BFA0022C0
:1036D000414605E0FDF786FA9EE700224FF40061BF
:1036E0003846F7E73444014000080048000C004821
:1036F000000400482DE9F05F374F0025DFF8DCA01B
:10370000374C4FF480584FF48049BE154FF4004BAE
:10371000012220212046FDF765FA012210212046D2
:10372000FDF760FA012208212046FDF75BFA3D60B3
:10373000FA206D1DFDF75AF90F2D2ED0192D30D01E
:10374000282D43D0E4DB00BF4FF000054FF47A761C
:103750004FF020012046FDF741FA10212046FDF7E9
:103760003DFA08212046FDF739FA3046FDF73EF9CB
:103770006D1CEDB2042DEBD3012220212046FDF774
:1037800031FA012210212046FDF72CFA204600F0E4
:103790002BB801220821FDF725BA01224146204617
:1037A00011E0012249465046FDF71CFA012231463C
:1037B0002046FDF717FA012259462046FDF712FA76
:1037C000012231460748FDF70DFAA1E70122D10297
:1037D0000448FDF707FAB7E7344401400004004805
:1037E000000C00480008004830BCBDE8C05FFFF78F
:1037F000D0BF000000000000000000000102030430
:1038000006070809A0860100400D0300801A060083
:1038100000350C0040420F0080841E0000093D006E
:1038200000127A000024F40000366E010048E8011E
:10383000006CDC0200000000010203045C38000898
:1038400000000020180000005E35000874380008F1
:1038500018000020800600006E35000800000000FF
:103860000000000000000000000000000000000058
:0438700000093D000E
:040000050800018965
:00000001FF
