:020000040800F2
:10000000582900209D0100085D620008A94F0008E2
:1000100059620008810900081B74000800000000F4
:100020000000000000000000000000000768000859
:10003000E109000800000000996200080968000852
:10004000B7010008B7010008B7010008B7010008B0
:10005000B7010008B7010008B7010008B7010008A0
:10006000B7010008B7010008B7010008B701000890
:10007000B7010008B7010008B7010008B701000880
:10008000B7010008B7010008B7010008B701000870
:10009000B7010008B7010008B7010008B701000860
:1000A000B7010008B7010008B7010008B701000850
:1000B000B7010008B7010008B7010008DD4F0008CC
:1000C000CD4F0008FD4F0008ED4F0008B7010008B4
:1000D000B7010008B7010008B7010008B701000820
:1000E000B7010008B7010008B7010008B701000810
:1000F000B7010008B7010008B7010008B701000800
:10010000B7010008B7010008B7010008B7010008EF
:10011000B7010008B7010008B7010008B7010008DF
:10012000A1090008B7010008B7010008B7010008DD
:10013000B7010008B7010008B7010008B7010008BF
:10014000B7010008B7010008B7010008B7010008AF
:10015000B7010008B7010008B7010008B70100089F
:10016000B7010008B70100089D660008B701000844
:10017000B7010008B7010008B7010008000000003F
:10018000B7010008B7010008DFF80CD000F038FA1A
:100190000048004789780008582900200648804711
:1001A00006480047FEE7FEE7FEE7FEE7FEE7FEE75C
:1001B000FEE7FEE7FEE7FEE709690008890100089F
:1001C0002DE9F05F0546002092469B46884606468C
:1001D000814640241BE0284641464746224600F01F
:1001E0006AF953465A46C01A914110D3114618462F
:1001F000224600F051F92D1A67EB01084F462246BE
:100200000120002100F048F917EB00094E41201EA3
:10021000A4F10104DFDC484631462A46434600F09B
:1002200000B830BCBDE8C09F2DE9FE4F81EA030451
:1002300004F0004421F0004100944FF0000B23F043
:10024000004350EA01045ED052EA03045BD0C3F3DA
:100250000A54C1F30A552C44A4F2F3340194A0FBD0
:100260000254C1F3130141F48011C3F3130343F4A7
:10027000801301FB024400FB034E840A970A44EA00
:10028000815447EA8357A4FB076802958D0A05FB52
:1002900007854FEA932C04FB0C542705029D4FEA77
:1002A000065847EA1637B5EB08056EEB070C870EC4
:1002B000920E47EA811742EA8312A7FB0201B6EBCE
:1002C0000B0164EB00042B0D43EA0C335E1844EB86
:1002D0001C50DA465146E7FB0201C5F313044FEA0E
:1002E0000B3343EA14534FEA0432019C43EA0603FA
:1002F000A4F10C040294009CCDE900B400F031F9A3
:1003000003B000F003B800200146F9E730BCBDE8B7
:10031000C08F2DE9F04D81EA030404F0004B21F079
:10032000004514464FF0000A23F0004150EA050250
:1003300020D054EA01021DD0C5F30A570246C5F386
:100340001303C1F31300C1F30A5640F4801543F4BC
:100350008013A7EB0608101BD64608F2FD3873EB96
:10036000050002D308F1010801E092185B41B8F1E1
:10037000000F03DA00200146BDE8F08D00204FF4A5
:100380008011064684460EE0171B73EB050705D364
:10039000121B63EB050306434CEA010C49084FEAC4
:1003A000300092185B4150EA0107EDD152EA030098
:1003B00012D082EA040083EA0501084305D0101B2D
:1003C000AB4106D20122002306E000224FF0004399
:1003D00002E06FF0010253101AEB06004CEB0851DB
:1003E00010EB0A0041EB0B01BDE8F04D00F0AAB89C
:1003F0000EB540F2334102910021CDE900110A46C9
:100400000B4600F0AEF803B000BD00F0004230F043
:1004100000400AD0C10D01F56071C0F3160042EA38
:100420000151C20840071143704700200146704740
:1004300030B5041E71F1000404DB4FF0004440426B
:1004400064EB0101141E73F1000405DB1C464FF040
:100450000043524263EB0403994208BF904230BD0F
:1004600001F0004330B421F0004150EA010206D00F
:100470000A0DA2F56072C1F31301002A02DC30BC40
:1004800000207047440F44EAC104C100E01830BCAA
:1004900000EBC25000F01FB8202A04DB203A00FA1B
:1004A00002F1002070479140C2F1200320FA03F3CB
:1004B000194390407047202A04DB203A21FA02F0C9
:1004C0000021704721FA02F3D040C2F1200291408E
:1004D0000843194670470029A8BF7047401C4900CF
:1004E00008BF20F00100704710B4B0FA80FC00FA99
:1004F0000CF050EA010404BF10BC704749B1CCF1C4
:10050000200421FA04F411FA0CF118BF012121434F
:100510000843A3EB0C01CB1D4FEA00614FEA10200A
:1005200042BF002010BC704700EBC35010440029AC
:10053000A4BF10BC7047401C490008BF20F0010058
:1005400010BC704710B5141E73F1000408DA401C8B
:1005500041F1000192185B411A4301D120F00100E2
:1005600010BD2DE9F04D92469B4611B1B1FA81F2D2
:1005700002E0B0FA80F220329046FFF78DFF044689
:100580000F4640EA0A0041EA0B0153465A46084327
:1005900013D0114653EA010019D0C8F14002504669
:1005A000FFF789FF05460E46504659464246FFF77B
:1005B00073FF084305D0012004E020463946BDE81A
:1005C000F08D0020054346EAE0762C4337430A9835
:1005D0006305E40AA0EB08000022FD0A44EA475440
:1005E0000A3002D500200146E9E7010510196941EA
:1005F000DDE9084500196941BDE8F04DA2E70000BA
:10060000064C074D06E0E06840F0010394E807005F
:1006100098471034AC42F6D3FFF7BAFD547F000878
:10062000747F00082DE9F04104460D460027B846C6
:1006300000262068806800F00C0008B1012000E06E
:100640000020002873D02068C06800F00070B0F16E
:10065000007F1FD1E06901281CD1A069012819D1B0
:1006600001250EE0334886420AD3A06D40F0100009
:10067000A065E06D40F00100E0650120BDE8F0817B
:10068000761C20680068C0F380100028EAD0402063
:1006900021680860022D13D02068806800F00400F3
:1006A00004280DD12068806800F0020040B920685D
:1006B0008168214A114041F01001816000BF00BFF4
:1006C000012D10D02068806800F0080008280AD1A9
:1006D0002068806800F0020028B92068806840F037
:1006E000200021688860022D03D0032D03D10C2740
:1006F00003E0082701E0042700BF00BF01F042FB30
:1007000080460FE001F03EFBA0EB0800052809D968
:10071000A06D40F01000A065E06D40F00100E065C4
:100720000120ABE72068806838400028EAD100202B
:10073000A4E70000000040A3C0FFFF7F70B504469F
:1007400000252068806800F00300012806D1206899
:10075000006800F0010008B1012000E0002080B333
:100760002068806800F00D00012800D100E0002022
:1007700050B120688168174A1140891C816000BF10
:1007800003202168086009E0A06D40F01000A0651A
:10079000E06D40F00100E065012070BD01F0F2FA6B
:1007A00005460FE001F0EEFA401B02280AD9A06DC1
:1007B00040F01000A065E06D40F00100E065012010
:1007C000EBE705E02068806800F001000028E9D12F
:1007D0000020E2E7C0FFFF7F38B504460025002077
:1007E00000902068806800F00300012806D120688E
:1007F000006800F0010008B1012000E0002000289E
:1008000046D1206880682349084008B9012000E0EB
:10081000002048B9A06D40F01000A065E06D40F0E8
:100820000100E065012038BD206805F083F91A4811
:1008300000681A49B0FBF1F000EB80004000009026
:1008400002E00098401E009000980028F9D101F0C5
:1008500099FA054616E02068816801F0010111B996
:10086000206805F067F901F08DFA401B022809D9CC
:10087000A06D40F01000A065E06D40F00100E06563
:100880000120D0E72068006800F001000028E2D0D5
:100890000020C8E73F0000809000002080841E00F8
:1008A00000B587B000BF1B48C06C40F0100019496C
:1008B000C8640846C06C00F01000019000BF00BF83
:1008C000012003907C2002900220049003200590D8
:1008D00002A9114801F044F9002204210E4801F058
:1008E0004BFA002208210C4801F046FA00221021A0
:1008F000094801F041FA00222021074801F03CFAA2
:1009000000224021044801F037FA04F04FFB07B001
:1009100000BD0000001002400010004810B5002289
:100920000821074801F028FA052001F065F80122A6
:100930000821034801F020FA052001F05DF810BD00
:10094000001000487CB504460D46002001900120AF
:1009500001AB024629460090204604F02DFC9DF88C
:1009600004007CBD37B582B004460D46012004ABBF
:10097000024629460090204604F044FC05B030BDF4
:1009800000BFFEE72DE9F04105460E46174600245C
:100990003A4631462846FFF7E5FF2046BDE8F0819C
:1009A00010B5024800F0D5FE10BD0000B8220020AE
:1009B00030B590F8444004F01C050124AC40056CAF
:1009C0006C60046863608468102C04D10468A260C1
:1009D0000468E16003E00468A1600468E26030BD7F
:1009E00070470000F0B59BB004460E460027306803
:1009F00000B100BF00BF94F85400012802D10220CA
:100A00001BB0F0BD012084F8540000BF44492068A9
:100A1000884202D14348019001E0002001900198F2
:100A200050B9A06D40F02000A06500BF002084F800
:100A3000540000BF0120E3E7206805F09BF8002880
:100A400062D1019805F096F800285DD1364D3068E6
:100A500088B37168606B41EA4030A96821F4604155
:100A60000843A8602068806800F00300012806D1D0
:100A70002068006800F0010008B1012000E00020BB
:100A8000002846D10198806800F00300012806D1B3
:100A90000198006800F0010008B1012000E000208A
:100AA00088BBB16830680843A96840F61F7291435B
:100AB0000843A8602DE0FFE7A86820F46040A86024
:100AC0002068806800F00300012806D120680068D3
:100AD00000F0010008B1012000E0002098B9019861
:100AE000806800F00300012806D10198006800F03A
:100AF000010008B1012000E0002020B9A86840F6FC
:100B00001F718843A86004E0A06D40F02000A0653C
:100B1000012700BF002084F8540000BF38466FE76B
:100B20000000045000010450000304502DE9F84374
:100B300005460C46002700200090FE49E0688842E8
:100B400000D000E000BF00BF95F85400012802D19A
:100B50000220BDE8F883012085F8540000BF286812
:100B600005F003F8002876D1606805281AD8606877
:100B7000022806D0032807D0042808D005280DD164
:100B800008E00C2060600CE01220606009E0182092
:100B9000606006E04FF48070606002E006206060F4
:100BA00000BF00BF2968D4E9002000F4407C4FF466
:100BB000407898FAA8F8B8FA88F82CFA08FC01F1FD
:100BC000300808EB8C0300F01F094FF01F0808FAEB
:100BD00009F8D3F800C02CEA080C00F01F09C2F392
:100BE000846808FA09F84CEA080CC3F800C000BF92
:100BF0002868806800F00C0008B1012000E00020A7
:100C0000002827D1A2682168286804F0C1FF606924
:100C10002968C968C1F3C101490000FA01F62069D9
:100C2000042819D028682268216900F1600C0CEBB7
:100C30008103DFF80483D3F800C00CEA080C02F04B
:100C4000F84848F0004848EA06084CEA080CC3F89F
:100C500000C000BFA8E0D4E10021286804F077FFBD
:100C6000C0F3120030B90021286804F070FFC0F30F
:100C7000846007E00021286804F069FF90FAA0F082
:100C8000B0FA80F02168C1F3120119B92168C1F3EB
:100C9000846104E0216891FAA1F1B1FA81F18842FE
:100CA00004D100221146286804F0A1FF0121286820
:100CB00004F04DFFC0F3120030B90121286804F0A0
:100CC00046FFC0F3846007E00121286804F03FFF7D
:100CD00090FAA0F0B0FA80F02168C1F3120119B9BE
:100CE0002168C1F3846104E0216891FAA1F1B1FAAD
:100CF00081F1884204D100220121286804F077FFA5
:100D00000221286804F023FFC0F3120030B9022149
:100D1000286804F01CFFC0F3846007E00221286803
:100D200004F015FF90FAA0F0B0FA80F02168C1F34A
:100D3000120119B92168C1F3846104E0216891FAB4
:100D4000A1F1B1FA81F1884204D100220221286880
:100D500004F04DFF0321286804F0F9FEC0F31200EF
:100D600030B90321286804F0F2FEC0F3846007E084
:100D70000321286804F0EBFE90FAA0F0B0FA80F0AE
:100D80002168C1F3120119B92168C1F3846104E03B
:100D9000216891FAA1F1B1FA81F1884204D10022CF
:100DA0000321286804F023FF2868806800F003000E
:100DB000012806D12868006800F0010008B1012070
:100DC00000E0002000287CD12868E2682168D0F883
:100DD000B030C1F3120C23EA0C03C1F3120C02F081
:100DE0002009DFF8588108FA09F80CEA080C43EAF0
:100DF0000C03C0F8B03000BF4E49E068884260D1B3
:100E00002368C3F312031BB92368C3F3846304E0AC
:100E1000236893FAA3F3B3FA83F35B1C092B38D846
:100E20002368C3F312031BB92368C3F3846304E08C
:100E3000236893FAA3F3B3FA83F35B1C4FF0010C1E
:100E40000CFA03FC2368C3F312031BB92368C3F332
:100E5000846304E0236893FAA3F3B3FA83F35B1C7F
:100E60004CEA836C2368C3F312031BB92368C3F3F2
:100E7000846304E0236893FAA3F3B3FA83F35B1C5F
:100E800003EB43034FF0000848EA03534CEA030323
:100E900039E02368C3F312031BB92368C3F38463E7
:100EA00004E0236893FAA3F3B3FA83F35B1C4FF0D7
:100EB000010C0CFA03FC2368C3F312032BB923685B
:100EC00000E025E0C3F3846304E0236893FAA3F30E
:100ED000B3FA83F35B1C4CEA836C2368C3F31203FD
:100EE0001BB92368C3F3846304E0236893FAA3F374
:100EF000B3FA83F3093B03EB43034FF0007848EA6E
:100F000003534CEA03031946A268286804F040FE24
:100F10000B492068884205D10A4804F013FE00F40A
:100F2000000000B308492068884212D1054804F047
:100F300009FE0BE000007F4000F0FF03FFFF070009
:100F4000000052C700030450000084CB00F0807002
:100F500048B132492068884258D1314804F0F2FD46
:100F600000F4800020BB2F492068884221D12E49FF
:100F70002868884203D02D492868884246D12848ED
:100F800004F0E0FD40F400084146254804F029FE45
:100F9000274800682749B0FBF1F0C0EB0010C00003
:100FA000009002E00098401E009000980028F9D1BF
:100FB0002CE021492068884211D11B4928688842C9
:100FC00003D01A492868884220D1154804F0BAFD98
:100FD00040F080784146124804F003FE16E00F49C5
:100FE0002068884212D11049286888420ED10C48E6
:100FF00004F0A8FD40F480084146094804F0F1FDE2
:1010000004E0A86D40F02000A865012700BF002083
:1010100085F8540000BF38469BE5000001000080C1
:1010200000030450000052C70000045000020450A6
:101030009000002080841E00000084CB01460868D8
:10104000006C7047F8B5044600260025002000908B
:101050000CB90120F8BD206918B1606A012800D1DF
:1010600000BFA06D30B9204600F060F90020E065B7
:1010700084F8540020688168C1F3407131B1206860
:101080008168A24A1140816000BF00BF206804F05F
:1010900067FDB8B9206881689D4A114041F08051D0
:1010A000816000BF9B4800689B49B0FBF1F000EBFA
:1010B00080004000009002E00098401E00900098E0
:1010C0000028F9D1206804F04BFD40B9A06D40F034
:1010D0001000A065E06D40F00100E0650126A06D04
:1010E00000F01000002877D1206804F03EFD0028B1
:1010F000F9D1A06D20F4807040F00200A065206856
:10110000806800F00300012806D12068006800F024
:10111000010008B1012000E00020002871D17F49C2
:101120002068884223D17E48006800F0030001282F
:1011300007D17B480838006800F0010008B10120A1
:1011400000E0002078B97748006800F0030001282B
:1011500007D174480838006800F0010008B1012088
:1011600000E0002008B101204DE000204BE06C4978
:1011700008392068884222D16848806800F003005E
:10118000012806D16548006800F0010008B101207F
:1011900000E0002078B96348006800F003000128EF
:1011A00007D160480838006800F0010008B101204C
:1011B00000E0002008B1012010E000200EE05748B8
:1011C000806800F00300012807D15448006800F04F
:1011D000010010B1012001E090E0002078B95048F2
:1011E000006800F00300012807D14D480838006866
:1011F00000F0010008B1012000E0002010B1012042
:1012000001E00DE0002058B960684649F83189686E
:1012100021F47C110143434AF832916000BF00BFC2
:10122000A16BE06941EA4030E1680843A1680843E6
:10123000A18C40EA0145606A012803D1208D401E3F
:1012400045EA4045E06A28B1A08D00F47070216B3A
:10125000084305432068C068334908402843216893
:10126000C8602068806800F00C0008B1012000E030
:10127000002010BB0021A06941EA8031606B41EA87
:1012800040052068C06844F2020188432843216871
:10129000C860E06B012811D1206C40F00101606C46
:1012A0000843A16C0843E16C08432168096940F2D6
:1012B000FC72914308432168086105E020680069D9
:1012C00020F00100216808612069012809D1206807
:1012D000006B20F00F00216A491E08432168086353
:1012E00005E02068006B20F00F0021680863A06D06
:1012F00020F0020040F00100A06504E0A06D40F085
:101300001000A06501263046A4E60000C0FFFF5F84
:10131000C0FFFF7F9000002080841E00000004506A
:10132000080104500802045007C0F0FF10B586B051
:1013300004460F492068884217D100BF0D48C06C91
:1013400040F400500B49C8640846C06C00F40050DB
:10135000009000BF00BF072001900B2002900020EA
:10136000039001A9044800F0FBFB06B010BD00008B
:101370000000045000100240000800482DE9F0472A
:1013800004460D4600270026B0466069082801D1B2
:10139000082641E05C492068884203D05B49206808
:1013A000884214D15A48006800F01F0068B15848BC
:1013B000006800F01F00052807D05548006800F0BD
:1013C0001F00092801D0012002E0002000E00020D9
:1013D00068B92068C06800F0010030B1A06D40F02D
:1013E0002000A0650120BDE8F087042614E04848ED
:1013F000006800F44040B0F5004F06D04448006853
:1014000000F44040B0F5404F05D1A06D40F0200001
:10141000A0650120E7E7042600F0B4FC074612E0CF
:10142000681C80B125B100F0ADFCC01BA8420AD9F0
:10143000A06D40F00400A06500BF002084F85400B7
:1014400000BF0320CFE72068006830400028E7D0C5
:10145000A06D40F40070A0652068C06800F4406092
:1014600098B9E06988B92068006800F00800082889
:101470000BD1A06D20F48070A065A06D00F48050A9
:1014800018B9A06D40F00100A0651F49206888428E
:1014900003D020492068884201D1012013E01C4874
:1014A000006800F01F0058B11948006800F01F00E4
:1014B000052805D01648006800F01F00092801D152
:1014C000012000E0002018B12068D0F80C800DE069
:1014D0000D492068884203D00E492068884201D116
:1014E000206800E008488146D9F80C80082E03D116
:1014F00008202168086005E008F4804010B90C203D
:101500002168086000206EE70000045000010450CC
:10151000080304500002045070B5044600252068FA
:1015200004F023FB002871D100BF94F85400012877
:1015300001D1022070BD012084F8540000BF204674
:10154000FFF74AF90546002D7DD1A06D40F60161F7
:10155000884340F48070A0653F492068884203D0EA
:101560003E492068884201D1012007E03C480068DC
:1015700000F01F0008B9012000E0002018B1A06DA4
:1015800020F48010A065A06D00F48050B0F5805F5D
:1015900004D1E06D20F00600E06501E00020E06588
:1015A0001C202168086000BF002084F8540000BFA0
:1015B00029492068884203D028492068884201D1FF
:1015C000012013E02648006800F01F0058B12448AD
:1015D000006800F01F00052805D02148006800F0D1
:1015E0001F00092801D1012000E0002078B1206807
:1015F000C06800F0007028B1A06D20F4005040F4E5
:101600008050A065206804F0BBFA22E020E0A06DC5
:1016100040F48010A06510492068884203D00F492B
:101620002068884202D1206801E00CE00A480646A2
:10163000F06800F0007060B1A06D20F4005040F43C
:101640008050A06505E000BF002084F8540000E051
:10165000022528466EE700000000045000020450F6
:101660000803045070B50446002500BF94F85400E8
:10167000012801D1022070BD012084F8540000BF70
:1016800003212046FEF7CEFF054655B92046FFF759
:1016900055F805462DB9A06D20F4885040F00100A2
:1016A000A06500BF002084F8540000BF2846E2E790
:1016B0000146002209B9012070470868006820F03F
:1016C0000E000B6818600868006820F001000B68C5
:1016D000186091F8440000F01C03012098400B6C46
:1016E0005860012081F8250000BF002081F8240007
:1016F00000BF1046E0E770B50446002594F82500C9
:10170000022803D00420E063012520E0206800685F
:1017100020F00E00216808602068006820F00100B9
:101720002168086094F8440000F01C010120884002
:10173000216C4860012084F8250000BF002084F857
:10174000240000BFA06B10B12046A16B884728463B
:1017500070BD70B50446206C05682068066894F872
:10176000440000F01C01042088402840E0B106F04D
:101770000400C8B12068006800F0200028B9206883
:10178000006820F004002168086094F8440000F02C
:101790001C0104208840216C4860206B002856D032
:1017A0002046216B884752E094F8440000F01C0169
:1017B00002208840284018B306F0020000B32068D9
:1017C000006800F0200040B92068006820F00A009E
:1017D00021680860012084F8250094F8440000F096
:1017E0001C0102208840216C486000BF002084F862
:1017F000240000BFE06A50B32046E16A884726E033
:1018000094F8440000F01C01082088402840F0B102
:1018100006F00800D8B12068006820F00E002168AA
:10182000086094F8440000F01C0101208840216CFD
:1018300048600120E06384F8250000BF002084F8A0
:10184000240000BF606B10B12046616B884770BDFB
:1018500010B5014609B9012010BD3E4B08689842F9
:101860000BD23D4B0868C01A1423B0FBF3F0800084
:1018700048643948083808640AE0364B0868C01ADA
:101880001423B0FBF3F08000486432480838086441
:10189000022081F825000868026847F6F07082434C
:1018A000D1E9020318430B6918434B6918438B694C
:1018B0001843CB6918430B6A184302430868026057
:1018C0008868B0F5804F3AD0234B083B086C9842AB
:1018D0001BD1D0F8A80091F8443003F01C040F236A
:1018E000A34098431C4BA033186091F8443003F098
:1018F0001C0348689840184B083BD3F8A83018439D
:10190000154B083BC3F8A80019E01248A030006846
:1019100091F8443003F01C040F23A34098430D4B6F
:10192000A033186091F8443003F01C0348689840D5
:10193000084BA0331B681843064BA03318600020E7
:10194000C863012081F82500002081F8240000BF31
:1019500082E7000008040240080002402DE9F0413F
:1019600004460D4616461F464FF0000800BF94F887
:101970002400012802D10220BDE8F081012084F872
:10198000240000BF94F8250001282CD1022084F8FF
:1019900025000020E0632068006820F00100216835
:1019A00008603B46324629462046FFF701F8206B87
:1019B00030B12068006840F00E00216808600BE03C
:1019C0002068006820F00400216808602068006832
:1019D00040F00A00216808602068006840F00100BB
:1019E0002168086006E000BF002084F8240000BFE2
:1019F0004FF002084046BFE770B5044600F0C2F958
:101A000006462546681C00B16D1C00BF00F0BAF9FF
:101A1000801BA842FAD370BDF0B50B46002100220E
:101A2000002487E001258D4005EA0302002A7DD0CD
:101A300005684F000326BE4035430560CE0800F11F
:101A4000200555F826504E07F70E0F26BE40B54329
:101A5000CF0800F1200646F8275085684F0003267E
:101A6000BE40B5438560466801258D40AE43466063
:101A7000C5684F000326BE40B543C560C66A012550
:101A80008D40AE43C6622E4D8E0855F826408D0718
:101A90002E0F0F25B5402C40B0F1904F01D10025FD
:101AA0001EE0284DA84201D1012519E0264DA8428B
:101AB00001D1022514E0254DA84201D103250FE0F4
:101AC000234DA84201D104250AE0224DA84201D1AC
:101AD000052505E0204DA84201D1062500E0072597
:101AE0008E07360FB540A54223D18D072E0F0F2547
:101AF00005FA06F4124D8E0855F82650A543104EEF
:101B00008F0846F82750154D2D689543134E3560C4
:101B1000351D2D689543361D3560351D2D6895435F
:101B2000361D3560351D2D68954300E001E0361DFA
:101B30003560491C23FA01F5002D7FF473AFF0BD29
:101B4000080001400004004800080048000C00485C
:101B5000001000480014004800180048000401402C
:101B600078B50346002200240020E5E001269640D7
:101B70000D6805EA0604002C7DD04D68022D02D0C8
:101B80004D68122D13D1D60803F1200555F8260013
:101B90005507EE0E0F25B540A8435607F60E0D6902
:101BA000B5402843D60803F1200545F826001868FB
:101BB00056000325B540A8430D7905F003055600EE
:101BC000B540284318604D68012D08D04D68022D9E
:101BD00005D04D68112D02D04D68122D13D1986893
:101BE00056000325B540A8435600CD68B5402843AC
:101BF0009860586801259540A8430D79C5F30015F4
:101C00009540284358600D7905F00305032D09D14F
:101C1000D86A01259540A8430D79C5F3C0059540C4
:101C20002843D862D86856000325B540A84356001B
:101C30008D68B5402843D8604D6805F08055B5F1F2
:101C4000805F78D100BF3F4D2D6E45F001053D4EC0
:101C5000356635462D6E05F00105009500BF00BFC5
:101C60004FEAB635960855F8260095072E0F0F2532
:101C7000B540A84300E05EE0B3F1904F01D10025EC
:101C80001EE0314DAB4201D1012519E02F4DAB4291
:101C900001D1022514E02E4DAB4201D103250FE006
:101CA0002C4DAB4201D104250AE02B4DAB4201D1B2
:101CB000052505E0294DAB4201D1062500E00725A9
:101CC0009607360FB5402843254D960845F826005F
:101CD000244D2868A0434D6805F48035B5F5803F54
:101CE00000D120431F4D28602D1D2868A0434D685A
:101CF00005F40035B5F5003F00D12043194D2D1DE9
:101D000028602D1D2868A0434D6805F48015B5F5A1
:101D1000801F00D12043134D083528602D1D2868F1
:101D2000A0434D6805F40015B5F5001F00D1204310
:101D30000C4D0C352860521C0D68D540002D7FF4E9
:101D400015AF78BD001002400004004800080048AC
:101D5000000C00480010004800140048001800481B
:101D60000800014000040140024613690B400BB11A
:101D7000012000E0002070470AB1816100E081622B
:101D80007047000001480068704700008C00002088
:101D9000024692F8410020282DD100BF92F8400061
:101DA000012801D102207047012082F8400000BFC5
:101DB000242082F841001068006820F001001368B8
:101DC00018601068006820F480501368186010686C
:101DD00000680843136818601068006840F001004C
:101DE00013681860202082F8410000BF002082F8AC
:101DF000400000BFD7E70220D5E710B502460B46EA
:101E000092F8410020282AD100BF92F84000012812
:101E100001D1022010BD012082F8400000BF242023
:101E200082F841001068006820F00100146820600A
:101E30001068016821F4706141EA032110680160B3
:101E40001068006840F0010014682060202082F8CB
:101E5000410000BF002082F8400000BFDAE7022006
:101E6000D8E77047704710B5044624B94FF40070A6
:101E70006064012010BD242084F8410020680068BF
:101E800020F0010021680860204600F063FA00207D
:101E9000606484F84100206384F8420000BF84F845
:101EA000400000BF00BFE5E770B5044620688569C3
:101EB0002068066805F4807050B106F0800038B1E3
:101EC000606C40F0010060644FF480702168C8616C
:101ED00005F4806050B106F0800038B1606C40F0CD
:101EE000080060644FF480602168C86105F40070E8
:101EF00050B106F0800038B1606C40F002006064C0
:101F00004FF400702168C861606C00F00B0018B1DC
:101F1000616C204603F06EFA70BD70B5044620680F
:101F2000856920680668606B20B1324629462046E4
:101F3000636B984770BD7047014691F84100704748
:101F400010B5044624B94FF400706064012010BD40
:101F500094F8410028B9002084F84000204600F0A1
:101F60002FFA242084F841002068006820F0010046
:101F700021680860606820F070602168086120684E
:101F8000806820F4004021688860E068012805D15D
:101F9000A06840F400402168886004E0A06840F434
:101FA000044021688860E068022802D1800221682C
:101FB00048602068406814490843216848602068E8
:101FC000C06820F400402168C860D4E904010843D7
:101FD000A16940EA01202168C860D4E907010843EB
:101FE000216808602068006840F0010021680860EE
:101FF00000206064202084F841000020206384F8E1
:10200000420000BFA3E7000000800002704700000C
:102010002DE9FC5F0446894692469B46DDE90C7833
:102020000E9E94F8410020287ED117B1B8F1000F20
:1020300005D14FF400706064012000F0B9B800BF12
:1020400094F84000012801D10220F6E7012084F82D
:10205000400000BFFFF796FE054619230122D10379
:102060002046009503F0DEFC08B10120E5E72220C0
:1020700084F84100402084F84200002060646762D8
:10208000A4F82A8060635B46524649462046CDE963
:10209000006503F091FB30B100BF002084F84000E0
:1020A00000BF0120C9E7608DFF280CD9FF202085E3
:1020B0003D48009094F828204FF080734946204610
:1020C00003F096FC0BE0608D20853748009094F873
:1020D00028204FF000734946204603F089FC00BFDA
:1020E0003346002204212046009503F09BFC08B1F2
:1020F0000120A2E72068406AC1B2626A501C606297
:102100001170208D401E2085608D401E6085608D81
:1021100048B3208D38BB33460022802120460095ED
:1021200003F080FC18B100E03CE0012085E7608D01
:10213000FF280CD9FF2020850020009094F828204B
:102140004FF080734946204603F052FC0BE0608D4F
:1021500020850020009094F828204FF00073494615
:10216000204603F045FC608D0028B9D12A4631464F
:10217000204603F086FC08B101205EE7202021689C
:10218000C8612068406809490840216848602020EB
:1021900084F84100002084F8420000BF84F8400029
:1021A00000BF4AE7022048E70024008000E800FE64
:1021B0003CBCBDE8C09F00002DE9FC5F0446894699
:1021C00092469B46DDE90C780E9E94F8410020284B
:1021D0007CD117B1B8F1000F05D14FF400706064E5
:1021E000012000F0B3B800BF94F84000012801D1ED
:1021F0000220F6E7012084F8400000BFFFF7C2FD8F
:10220000054619230122D1032046009503F00AFC5C
:1022100008B10120E5E7212084F84100402084F83E
:102220004200002060646762A4F82A8060635B4615
:10223000524649462046CDE9006503F0FBFA30B12D
:1022400000BF002084F8400000BF0120C9E7608D76
:10225000FF280CD9FF2020850020009094F828202A
:102260004FF080734946204603F0C2FB0BE0608DBF
:1022700020850020009094F828204FF000734946F4
:10228000204603F0B5FB00BF2A463146204603F046
:1022900023FC08B10120A4E7616A481C6062087849
:1022A00021688862608D401E6085208D401E2085DB
:1022B000608D40B3208D30BB334600228021204604
:1022C000009503F0AFFB10B101208AE73AE0608D82
:1022D000FF280CD9FF2020850020009094F82820AA
:1022E0004FF080734946204603F082FB0BE0608D7F
:1022F00020850020009094F828204FF00073494674
:10230000204603F075FB608D0028BDD12A4631467A
:10231000204603F0B6FB08B1012062E720202168C7
:10232000C86120684068084908402168486020204A
:1023300084F84100002084F8420000BF84F8400087
:1023400000BF4EE702204CE700E800FE3CBCBDE8C1
:10235000C09F000010B5044615492068884211D17D
:102360001448806D20F40010124988654FF44071C4
:102370001148FFF751FB1F2000F00CF9202000F05E
:1023800009F914E00D492068884210D10948806D90
:1023900020F48000074988654FF440610648FFF744
:1023A0003BFB212000F0F6F8222000F0F3F810BDEE
:1023B0000054004000100240000400480058004053
:1023C00010B586B004463249206888422DD14FF4BA
:1023D000407001901220029001200390032004908D
:1023E0000420059001A92B48FFF7BAFB00BF2A483B
:1023F000806D40F40010284988650846806D00F41F
:102400000010009000BF00BF002211461F2000F006
:10241000DCF81F2000F0CCF800221146202000F04C
:10242000D4F8202000F0C4F830E01C49206888422D
:102430002CD14FF4406001901220029001200390B3
:10244000032004900420059001A91248FFF788FB9F
:1024500000BF1148806D40F480000F498865084630
:10246000806D00F48000009000BF00BF0022114684
:10247000212000F0AAF8212000F09AF80022012182
:10248000222000F0A2F8222000F092F806B010BD41
:102490000054004000040048001002400058004072
:1024A0007047704702480068401C01490860704747
:1024B0008C00002010B5032000F0C8F8002000F0C8
:1024C00005F800F017F8002010BD000070B50446B4
:1024D000074800684FF47A71B0FBF1F5284602F026
:1024E0009FFA00222146501E00F06FF8002070BDB8
:1024F0009000002008B500BF2548006E40F00100A4
:10250000234908660846006E00F00100009000BFF5
:1025100000BF00BF0846806D40F0805088650846C7
:10252000806D00F08050009000BF00BF032000F0DD
:102530008DF8002211466FF00B0000F046F80022E3
:1025400011466FF00A0000F040F8002211466FF0CB
:10255000090000F03AF800221146501F00F035F84B
:1025600000221146101F00F030F800221146901E84
:1025700000F02BF800221146501E00F026F8002033
:1025800001F0F6FF01F0CCFF002001F0E7FF08BDED
:102590000010024000BF00F01F0201219140034AD9
:1025A000430942F8231000BF7047000080E100E0BB
:1025B00000BF00F01F02012191404209920002F188
:1025C000E022C2F8001100BF70472DE9F05F80469D
:1025D0000D461646002703F043FE074639462A46B5
:1025E000334601F00700C0F1070ABAF1040F02D91F
:1025F0004FF0040A01E0C0F1070AD14600F1040AD5
:10260000BAF1070F02D24FF0000A01E0A0F1030A6D
:10261000D4464FF0010A0AFA09FAAAF1010A0AEAB5
:10262000020A0AFA0CFA4FF0010B0BFA0CFBABF1A1
:10263000010B0BEA030B4AEA0B042146404603F068
:1026400017FE00F000B830BCBDE8C09F00BF00F02E
:102650000702064B19684FF6FF031940044B0B4362
:1026600043EA0221014B196000BF70470CED00E006
:102670000000FA0502460021B2F5007F29D11D486D
:10268000006800F4C060B0F5007F31D019480068E0
:1026900020F4C06040F40070164B186016480068C3
:1026A000164BB0FBF3F0322300FB03F100E0491EB0
:1026B00031B11048406900F48060B0F5806FF6D009
:1026C0000C48406900F48060B0F5806F10D10320A1
:1026D00070470848006800F4C060B0F5806F07D00C
:1026E0000448006820F4C06040F48060014B18602A
:1026F0000020EDE7007000409000002040420F00F5
:102700000248006800F4C06070470000007000409C
:102710002DE9F04780464FF00009002400250026EF
:102720000027B8F5003F2DD1F948006800F4407447
:10273000B4F5807F08D1F648006800F00200022856
:1027400002D14FF40049EBE3B4F5007F09D1F04822
:10275000001D006800F00200022802D14FF4FA497F
:10276000F1E7B4F5407F0AD1E9489038006800F4F9
:102770000030B0F5003F02D1DFF89893E3E74FF067
:102780000009E0E7E2489038C06800F00300012843
:102790001FD1DF489038006800F00200022816D1EF
:1027A000DB489038006800F0080028B1D84890381D
:1027B000006800F0F00005E0D548001D006800F456
:1027C000706000090009D44951F8205028E0002524
:1027D00026E0CF489038C06800F0030002280BD1F3
:1027E000CB489038006800F48060B0F5806F01D16C
:1027F000CA4D15E0002513E0C5489038C06800F0C8
:10280000030003280BD1C2489038006800F4003060
:10281000B0F5003F01D1C24D02E0002500E00025E7
:10282000B8F5007F7AD01DDCB8F1100F77D00CDC42
:10283000B8F1010F74D0B8F1020F72D0B8F1040FE3
:1028400070D0B8F1080F6ED1E5E1B8F1200F6BD070
:10285000B8F1400F69D0B8F1800F67D0B8F5807F2C
:10286000F1D1FAE2B8F5804F7ED00CDCB8F5806F7C
:102870007BD0B8F5006F13D0B8F5805F11D0B8F5F4
:10288000005FE0D1ADE0B8F5004F6FD0B8F5803F04
:102890006DD0B8F5802F6BD0B8F5002FD3D1A2E062
:1028A00000BFB8F5006F0AD199480838006800F4F5
:1028B0004004B4F5400F0CD1DFF8689209E0944869
:1028C0000838006800F04074B4F1407F01D1DFF8AF
:1028D0005492B9F1000F2FD1B4F5000F02D0B4F12A
:1028E000007F2AD18A489038C06800F4803018B33D
:1028F00087489038C068C0F30210401CB5FBF0F563
:1029000083489038C068C0F306268FB98048903855
:10291000C06800F4003050B1112709E0BEE2A5E123
:10292000EBE022E14CE141E3CEE154E274E207271F
:1029300005FB06F0B0FBF7F952E03CBB7448903859
:10294000006900F4803000B371489038C068C0F36B
:102950000210401CB5FBF0F56D4890380069C0F3DB
:10296000062677B96A4804E0DCE1CBE203E324E21F
:1029700038E09038006900F4003008B1112700E019
:10298000072705FB06F0B0FBF7F929E0B4F5800F47
:1029900002D0B4F1807F21D15D489038406900F4C5
:1029A0008030E8B15A489038C068C0F30210401C2B
:1029B000B5FBF0F5564890384069C0F3062647B994
:1029C00053489038406900F4003008B1112700E006
:1029D000072705FB06F0B0FBF7F901E04FF000090F
:1029E000E5E200BF00BF4A480838006800F04064D4
:1029F000B4F1406F20D146489038006800F00200E2
:102A0000022816D142489038006800F0080028B12A
:102A10003F489038006800F0F00005E03C48001D99
:102A2000006800F47060000900093B4951F82090EB
:102A300062E04FF000095FE0B4F1006F2BD1344841
:102A40009038006800F00070B0F1007F20D130486D
:102A50009038C06800F48010B0F5801F18D12C4861
:102A60009038C068C0F30210401CB5FBF0F5284850
:102A70009038C068C0F3062605FB06F0244990395B
:102A8000C968C1F34151491C4900B0FBF1F933E079
:102A90004FF0000930E0B4F1806F2BD11C48903822
:102AA000006800F00060B0F1006F20D11848903845
:102AB000006900F48010B0F5801F18D114489038D8
:102AC000C068C0F30210401CB5FBF0F51048903808
:102AD0000069C0F3062605FB06F00D499039096927
:102AE000C1F34151491C4900B0FBF1F904E04FF03A
:102AF000000901E04FF0000959E205480838006874
:102B000000F0030484B900F091FD81462CE0000040
:102B10009010024090D00300247F00080024F400AD
:102B200000127A0068FF1F00012C03D100F08EFD17
:102B3000814619E0022C09D1F748006800F4806052
:102B4000B0F5806F02D1DFF8D4930DE0032C09D1EA
:102B5000F1489030006800F00200022802D14FF4E2
:102B6000004901E04FF0000921E2EB48883000689D
:102B700000F00C041CB900F049FD81461FE0042C54
:102B800003D100F063FD814619E0082C09D1E24829
:102B9000006800F48060B0F5806F02D1DFF87C93AC
:102BA0000DE00C2C09D1DC489030006800F00200E8
:102BB000022802D14FF4004901E04FF00009F6E18C
:102BC000D5488830006800F030041CB900F01EFDC4
:102BD00081461FE0102C03D100F038FD814619E03A
:102BE000202C09D1CC48006800F48060B0F5806FDB
:102BF00002D1DFF828930DE0302C09D1C64890307F
:102C0000006800F00200022802D14FF4004901E000
:102C10004FF00009CBE1C0488830006800F0C004E4
:102C20001CB900F0F3FC81461FE0402C03D100F0FA
:102C30000DFD814619E0802C09D1B748006800F4E9
:102C40008060B0F5806F02D1DFF8D0920DE0C02C2B
:102C500009D1B1489030006800F00200022802D18A
:102C60004FF4004901E04FF00009A0E1AA48883084
:102C7000006800F440741CB900F0C8FC814622E0F2
:102C8000B4F5807F03D100F0E1FC81461BE0B4F590
:102C9000007F09D1A048006800F48060B0F5806F23
:102CA00002D1DFF878920EE0B4F5407F09D19A485E
:102CB0009030006800F00200022802D14FF4004971
:102CC00001E04FF0000972E193488830006800F499
:102CD00040641CB900F09AFC814622E0B4F5806F94
:102CE00003D100F0B3FC81461BE0B4F5006F09D1BD
:102CF0008948006800F48060B0F5806F02D1DFF889
:102D00001C920EE0B4F5406F09D183489030006802
:102D100000F00200022802D14FF4004901E04FF018
:102D2000000944E17C488830006800F04054B4F168
:102D3000405F03D100F08AFC81463DE0B4F1805F42
:102D40001AD17548006900F0807090B37248C0686D
:102D5000C0F30210401CB5FBF0F56F480069C0F3EA
:102D6000062605FB06F06C490969C1F34161491C5F
:102D70004900B0FBF1F91FE0B4F1005F1AD16648D9
:102D8000406900F08070A0B16348C068C0F30210D1
:102D9000401CB5FBF0F560484069C0F3062605FB12
:102DA00006F05D494969C1F34161491C4900B0FB26
:102DB000F1F901E04FF00009F9E057488830006868
:102DC00000F000441CB900F031FC814602E000F044
:102DD0003DFC8146EBE050488830006800F44054E8
:102DE0001CB900F013FC814615E0B4F5805F03D1F7
:102DF00000F02CFC81460EE0B4F5005F09D1464896
:102E0000006800F48060B0F5806F02D1DFF80C91AB
:102E100001E04FF00009CAE03F488830006800F444
:102E200040441CB900F0F2FB814615E0B4F5804F38
:102E300003D100F00BFC81460EE0B4F5004F09D140
:102E40003548006800F48060B0F5806F02D1DFF88B
:102E5000CC9001E04FF00009A9E02F4888300068CD
:102E600000F440341CB900F0D1FB814615E0B4F504
:102E7000803F03D100F0EAFB81460EE0B4F5003F4D
:102E800009D12548006800F48060B0F5806F02D158
:102E9000DFF8889001E04FF0000988E01E48883094
:102EA000006800F440241CB900F0B0FB814628E023
:102EB000B4F5802F09D118489430006800F0020062
:102EC000022802D14FF4FA491BE0B4F5002F09D1D2
:102ED0001148006800F48060B0F5806F02D1DFF81F
:102EE0003C900EE0B4F5402F09D10B4890300068BB
:102EF00000F00200022802D14FF4004901E04FF037
:102F0000000954E004488830006800F4401444B9D3
:102F100000F07CFB81462DE0001002400024F4000C
:102F200046E0B4F5801F08D12348006800F0020095
:102F3000022802D14FF4FA491CE0B4F5001F0AD16F
:102F40001D489438006800F48060B0F5806F02D1AD
:102F5000DFF868900EE0B4F5401F09D11648001F55
:102F6000006800F00200022802D14FF4004901E09D
:102F70004FF000091BE010480C38006800F0804456
:102F80001CB900F043FB81460FE0B4F1804F0AD139
:102F900009489438006800F48060B0F5806F02D171
:102FA000DFF8189001E04FF0000900E000BF00BF1B
:102FB0004846BDE8F0870000941002400024F40069
:102FC0002DE9F8430446002600270025A84620885E
:102FD00000F40060B0F5006F30D1606E80B1B0F5E4
:102FE000800F13D0B0F5000F03D0B0F5400F15D10E
:102FF00013E0FA48C06840F48030F849C8600FE038
:103000000021201D03F082F9054609E0002104F1AA
:10301000200003F041FA054602E001E0012500BF6F
:1030200000BF55B9ED488830006820F44000616E5B
:103030000843EA49C1F8880000E0A846208800F467
:103040008050B0F5805F30D1A06E80B1B0F1807F4C
:1030500013D0B0F1007F03D0B0F1407F15D113E061
:10306000DE48C06840F48030DC49C8600FE00021D1
:10307000201D03F04BF9054609E0002104F1200072
:1030800003F00AFA054602E001E0012500BF00BF97
:1030900055B9D2488830006820F04070A16E0843CE
:1030A000CE49C1F8880000E0A846206800F400304E
:1030B000B0F5003F76D14FF00009C848806D00F0B0
:1030C000805078B900BFC548806D40F08050C3493A
:1030D00088650846806D00F08050009000BF00BFFA
:1030E0004FF00109BE48006840F48070BC49086098
:1030F000FEF748FE074606E0FEF744FEC01B022826
:1031000001D9032505E0B648006800F48070002866
:10311000F2D000BF85BBB1489030006800F4407623
:10312000D6B1D4F88400B04216D0AC4890300068D4
:1031300020F44076A948D0F8900040F48030A749A8
:10314000C1F890000846D0F8900020F48030C1F813
:1031500090000846C0F8906006F00100A8B1FEF7A4
:1031600011FE074609E0FEF70DFEC01B41F2883153
:10317000884202D9032507E017E09848903000689C
:1031800000F002000028EED000BF65B993489030EF
:10319000006820F44070D4F8841008438F49C1F8C7
:1031A000900003E00CE0A84600E0A846B9F1010F4A
:1031B00005D18A48806D20F080508849886500BF1D
:1031C000207800F0010048B184488830006820F081
:1031D0000300A16B08438149C1F88800207800F002
:1031E0000200022809D17D488830006820F00C00D8
:1031F000E16B08437949C1F88800207800F00400A9
:10320000042809D175488830006820F03000216C0E
:1032100008437249C1F88800207800F008000828A7
:1032200009D16E488830006820F0C000616C084306
:103230006A49C1F88800207800F01000102809D1F0
:1032400066488830006820F44070A16C08436349E8
:10325000C1F88800207800F02000202809D15F48BC
:103260008830006820F44060E16C08435B49C1F895
:103270008800208800F40070B0F5007F09D157481D
:103280008830006820F44020E16D08435349C1F8BC
:103290008800208800F48060B0F5806F09D14F4825
:1032A0008830006820F44010216E08434B49C1F873
:1032B0008800207800F04000402809D14748883035
:1032C000006820F44050216D08434449C1F888004B
:1032D000207800F08000802809D1404888300068BC
:1032E00020F44040616D08433C49C1F888002088C3
:1032F00000F48070B0F5807F09D1384888300068CC
:1033000020F44030A16D08433449C1F8880020887A
:1033100000F40050B0F5005F1FD1304888300068DD
:1033200020F04060E16E08432C4988310860E06E6F
:10333000B0F1006F06D12948C06840F480102749D9
:10334000C8600AE0E06EB0F1806F06D10121201D57
:1033500002F0DCFF054605B1A846206800F4002015
:10336000B0F5002F1FD11D488830006820F0406064
:10337000216F0843194988310860206FB0F1006F50
:1033800006D11648C06840F480101449C8600AE0AD
:10339000206FB0F1806F06D10121201D02F0B6FF31
:1033A000054605B1A846206800F48020B0F5802FBE
:1033B00023D10A488830006820F04060616F0843DC
:1033C000064988310860606FB0F1006F0AD1034888
:1033D000C06840F480100149C8600EE0001002404F
:1033E00000700040606FB0F1806F06D10121201D98
:1033F00002F08CFF054605B1A846208800F4804005
:10340000B0F5804F1FD12248006820F04050A16FD6
:1034100008431F490860A06FB0F1805F07D1022107
:10342000201D02F073FF05466DB1A8460BE0A06FAA
:10343000B0F1005F07D1022104F1200003F02CF865
:10344000054605B1A846208800F40040B0F5004FBD
:1034500009D10F48006820F08040E16F08430C4913
:103460008839C1F88800206800F48030B0F5803FCA
:103470000AD10748006820F00040D4F880100843C3
:1034800003498839C1F888004046BDE8F883000048
:103490008810024070B504460D460CB9012070BD7D
:1034A0005348006800F00700A8420ED25048006858
:1034B00020F0070028434E4908600846006800F0E5
:1034C0000700A84201D00120E9E7207800F00100C0
:1034D000002840D06068032806D14648006800F004
:1034E0000070D8B90120DAE76068022806D14148A7
:1034F000006800F4003088B90120D0E7606830B976
:103500003C48006800F0020040B90120C7E7394894
:10351000006800F4806008B90120C0E73548806881
:1035200020F003006168084332498860FEF72AFCF6
:10353000064608E0FEF726FC801B41F288318842EF
:1035400001D90320ABE72B48806800F00C006168CC
:10355000B0EB810FEED1207800F00200022807D1F5
:103560002448806820F0F000A16808432149886061
:103570001F48006800F00700A8420ED91C480068E8
:1035800020F0070028431A4908600846006800F048
:103590000700A84201D0012081E7207800F0040054
:1035A000042807D11348806820F4E060E1680843EC
:1035B00010498860207800F00800082808D10D48DC
:1035C000806820F46050216940EAC10009498860A0
:1035D00000F03CF807498968C1F30311064A515CC1
:1035E000C840064908600020FEF770FF002056E73B
:1035F00000200240001002400C7F000890000020D4
:1036000001480068704700009000002000B5FFF7F7
:10361000F7FF04498968C1F30221034A515CC8409D
:1036200000BD0000001002401C7F000800B5FFF73D
:10363000E7FF04498968C1F3C221034A515CC840CD
:1036400000BD0000001002401C7F0008F0B5002102
:10365000002300240225022200203B4EB66806F01B
:103660000C065EB1384EB66806F00C060C2E1ED164
:10367000354EF66806F00306012E18D1324E366834
:1036800006F008062EB9304E94363668C6F303218C
:1036900003E02D4E3668C6F303112C4E56F8211068
:1036A000294EB66806F00C0686B908460EE0264E8E
:1036B000B66806F00C06042E01D1254806E0224E1D
:1036C000B66806F00C06082E00D122481E4EB668D9
:1036D00006F00C060C2E36D11B4EF66806F00304DD
:1036E000194EF668C6F30216721C012C19D0022C72
:1036F00002D0032C14D109E0154EB6FBF2F6124F9E
:10370000FF68C7F3062706FB07F313E0114EB6FB6D
:10371000F2F60D4FFF68C7F3062706FB07F309E033
:1037200000BFB1FBF2F6084FFF68C7F3062706FBA0
:1037300007F300BF00BF044EF668C6F34166761C6F
:103740007500B3FBF5F0F0BD00100240247F0008C7
:103750000024F40000127A00F8B504460CB90120E8
:10376000F8BD207800F0100010286ED1F84880686D
:1037700000F00C00002869D1F548006800F0020054
:1037800018B1A06908B90120EAE7F148216A006888
:1037900000F0080020B1EE48006800F0F00005E0FD
:1037A000EB489430006800F47060000981421FD932
:1037B000206A02F023FF08B10120D1E700BFE448EE
:1037C000006840F00800E24908600846006820F000
:1037D000F000216A0843DE49086000BF08464068DF
:1037E00020F47F40E16940EA0120D94948601EE0A9
:1037F00000BFD748006840F00800D5490860084677
:10380000006820F0F000216A0843D149086000BF39
:103810000846406820F47F40E16940EA0120CC4935
:103820004860206A02F0EAFE08B1012098E7FFF73D
:103830000DFFC7498968C1F30311C64A515CC840EE
:10384000C54908600020FEF741FE4AE0A06980B348
:10385000BF48006840F00100BD490860FEF792FAD9
:10386000054606E0FEF78EFA401B022801D9032028
:1038700076E7B748006800F002000028F2D000BFE9
:10388000B348006840F00800B14908600846006885
:1038900020F0F000216A0843AD49086000BF0846E7
:1038A000406820F47F40E16940EA0120A84948606F
:1038B00017E0FFE7A648006820F00100A44908606F
:1038C000FEF760FA054606E0FEF75CFA401B0228A8
:1038D00001D9032044E79E48006800F00200002858
:1038E000F2D1207800F00100002868D09848806864
:1038F00000F00C0008280BD09548806800F00C0000
:103900000C280ED19248C06800F00300032808D1AB
:103910008F48006800F4003088B3606878BB0120ED
:103920001EE700BF6068B0F5803F06D18848006898
:1039300040F48030864908601AE06068B0F5A02F36
:103940000BD18348006840F4802081490860084614
:10395000006840F4803008600AE07D48006820F488
:1039600080307B4908600846006820F480200860A9
:1039700000BF606890B1FEF705FA054607E01EE05B
:10398000FEF700FA401B642801D90320E8E67048DE
:10399000006800F400300028F2D010E0FEF7F2F9E1
:1039A000054606E0FEF7EEF9401B642801D9032026
:1039B000D6E66748006800F400300028F2D120788D
:1039C00000F0020002285ED16148806800F00C001F
:1039D00004280BD05E48806800F00C000C2818D139
:1039E0005B48C06800F00300022812D15848006804
:1039F00000F4806018B1E06808B90120B0E65448CE
:103A0000406820F0F850217C40EA0160504948604D
:103A100039E0E06800B34E48006840F480704C49DB
:103A20000860FEF7AFF9054606E0FEF7ABF9401B6C
:103A3000022801D9032093E64548006800F480601D
:103A40000028F2D04248406820F0F850217C40EA3B
:103A500001603F49486016E03D48006820F48070EE
:103A60003B490860FEF78EF9054606E0FEF78AF945
:103A7000401B022801D9032072E63548006800F493
:103A800080600028F2D1207800F00800082836D1A4
:103A90006069D0B12E489430006840F001002C4994
:103AA000C1F89400FEF76EF9054606E0FEF76AF9E4
:103AB000401B022801D9032052E6254894300068B3
:103AC00000F002000028F1D019E02148943000688D
:103AD00020F001001E49C1F89400FEF753F9054695
:103AE00006E0FEF74FF9401B022801D9032037E614
:103AF00017489430006800F002000028F1D12078C7
:103B000000F0040004286ED100261148806D00F0FA
:103B1000805070B900BF0E48806D40F080500C4955
:103B200088650846806D00F08050009000BF00BF9F
:103B300001260A48006800F48070F0B90748006860
:103B400040F4807005490860FEF71CF905460EE058
:103B5000001002400C7F0008900000200070004020
:103B6000FEF710F9401B022801D90320F8E581482F
:103B7000006800F480700028F2D000BFA06801281F
:103B800008D17D48006840F001007B499039C1F8B8
:103B9000900021E0A06805280FD17748006840F028
:103BA000040075499039C1F890000846D0F890009B
:103BB00040F00100C1F890000EE06F48006820F06E
:103BC00001006D499039C1F890000846D0F8900086
:103BD00020F00400C1F8900000BFA068A0B1FEF77B
:103BE000D1F8054609E02DE0FEF7CCF8401B41F284
:103BF0008831884201D90320B2E55F48006800F0AF
:103C000002000028F0D012E0FEF7BCF8054608E0FC
:103C1000FEF7B8F8401B41F28831884201D90320F1
:103C20009EE55548006800F002000028F0D1012E02
:103C300007D151489038806D20F080504E4990391E
:103C4000886500BFA06AE8B34B489038806800F0F0
:103C50000C000C2879D0A06A022853D1464890382D
:103C6000006820F08070444990390860FEF78AF8B7
:103C7000054606E0FEF786F8401B022801D903201E
:103C80006EE53D489038006800F000700028F1D1E2
:103C9000206B401E0101606B41EA0021A06B00090E
:103CA00041EA4040E16A0843A18F0122C2EB510181
:103CB00040EA41514020005DC2EB500041EA4060C3
:103CC0002D4900E053E09039C8600846006840F094
:103CD000807008600846C06840F08070C860FEF7D9
:103CE00051F8054606E0FEF74DF8401B022801D9C1
:103CF000032035E520489038006800F00070002867
:103D0000F1D034E01C489038006820F080701A49E7
:103D1000903908600846006800F0006048B908461D
:103D2000006800F0005020B90846C06820F0030089
:103D3000C86011489038C068104908400E49903951
:103D4000C860FEF71FF8054607E00EE0FEF71AF818
:103D5000401B022801D9032002E50748903800687B
:103D600000F000700028F1D101E00120F8E400200B
:103D7000F6E400000070004090100240FFFFEEFEED
:103D800070B50446002500BF94F87C00012801D1DD
:103D9000022070BD012084F87C0000BF206800680C
:103DA00000F40030B0F5003F2FD12068006820F407
:103DB00000302168086094F87D00122810D1E06E70
:103DC00070B1E06EFDF774FC50B1E06EC06B04287A
:103DD00006D00125D4F8800040F08000C4F88000AF
:103DE00094F87D00222810D1206F70B1206FFDF76C
:103DF0005FFC50B1206FC06B042806D00125D4F8B9
:103E0000800040F08000C4F8800000202168086134
:103E1000401E21688861204602F0B0FC00B10125F7
:103E20002068406840F0080021684860012084F85C
:103E30007D0000BF002084F87C0000BF2846A8E772
:103E4000014600BF91F87C00012801D10220704793
:103E5000012081F87C0000BF0868006820F4003071
:103E60000A68106000BF002081F87C0000BF00BF1E
:103E7000EDE7014600BF91F87C00012801D1022046
:103E80007047012081F87C0000BF0868006840F49A
:103E900000300A6810600868006800F4803028B9B3
:103EA0000868006840F480300A68106000BF002095
:103EB00081F87C0000BF00BFE2E770472DE9F041C8
:103EC000044694F87D00002876D020684569206873
:103ED00006692068076805F00800082807D106F081
:103EE0000800082803D12046A16F884708E105F0A3
:103EF0000100B8B106F00100A0B10120216888617D
:103F000094F87D00222801D1012000E002208046A3
:103F1000D4F8800040EA0800C4F880002046FFF78B
:103F2000CCFFEDE005F0020002280BD106F0020004
:103F3000022807D121688861606F0028D6D0606FA1
:103F40008047DDE005F0200020283DD106F020006C
:103F5000202839D1D4F8800040F00400C4F8800053
:103F600007F40030B0F5003F27D1E06E78B1664825
:103F7000E16E8863E06EFDF7BEFB40B1D4F88000CF
:103F800040F08000C4F880002046FFF796FF206FC5
:103F90000028ABD05C48216F8863206FFDF7ABFB36
:103FA0000028A3D0D4F8800040F08000C4F880003E
:103FB0002046FFF782FFA3E0A3E02046FFF7E0FEE4
:103FC0002046FFF77AFF9BE005F0400040283CD1F7
:103FD00006F04000402838D1D4F8800040F00800B6
:103FE000C4F8800007F40030B0F5003F26D1E06E41
:103FF00078B14548E16E8863E06EFDF77CFB40B127
:10400000D4F8800040F08000C4F880002046FFF71C
:1040100054FF206F002873D03B48216F8863206FC6
:10402000FDF769FB00286BD0D4F8800040F08000D9
:10403000C4F880002046FFF740FF61E02046FFF70C
:104040009FFE2046FFF739FF5AE005F004000428E0
:1040500043D106F0040004283FD1D4F8800040F09A
:104060002000C4F8800007F40030B0F5003F24D1F0
:10407000E06E78B12448E16E8863E06EFDF73BFBAB
:1040800040B1D4F8800040F08000C4F880002046A1
:10409000FFF713FF206FF8B11B48216F8863206F73
:1040A000FDF729FBC0B1D4F8800040F08000C4F8CF
:1040B00080002046FFF701FF22E000202168086110
:1040C000401E21688861012084F87D000020A4F84A
:1040D0006A002046FFF7F1FE12E005F010001028FC
:1040E0000ED106F0100010280AD121688861D4F89A
:1040F000800040F01000C4F880002046FFF7DDFE8D
:1041000000BFBDE8F0810000AD6600082DE9F04772
:10411000044614B90120BDE8F08794F87D0028B961
:10412000002084F87C00204600F0F4F8204602F0DD
:1041300025FB08B10120EEE7022084F87D00E0684D
:1041400020B1012804D0022806D103E0002505E0B3
:10415000102503E0202501E0002500BF00BFA06876
:1041600030B1012806D0022807D003280DD107E07E
:1041700000260CE04FF4806609E04FF4006606E08C
:104180004FF4006645F0010501E0002600BF00BFC6
:104190005C492068884204D05A492031206888420E
:1041A00003D15848001F056001E057480560E069E9
:1041B00040B354492068884204D0524920312068D5
:1041C000884205D14FF40060FEF7A2FA074604E0EA
:1041D0004FF48050FEF79CFA074607EB870041003A
:1041E000E0694002B1FBF0F80A20B8FBF0F121626F
:1041F000B8FBF0F100FB1180082802D9206A401CAE
:10420000206200BF606810B16068022808D1E06BCE
:10421000012801D1002001E04FF40070814606E042
:10422000E06B012801D1400200E0002081462068B7
:1042300000683649084021680860216B60680843BF
:10424000616B0843A16B084340EA09003043616A8F
:1042500008432169084361690843218C40EA015001
:1042600021680968084321680860206840684EF2A8
:104270000F01884321684860A16AA0690843E16A88
:1042800008432168496808432168486020688068BD
:104290001F49084021688860206C401E216D08433A
:1042A000A16C0843E16C0843616C491E40EA01209F
:1042B000216889680843216888602068C0684FF2D7
:1042C000200108402168C860D4E915010843602135
:1042D000095B40EA0141E06D401E41EA002021688F
:1042E000C96808432168C8600020C4F88000012024
:1042F00084F87D0000BF002084F87C0000BF00BF70
:1043000009E70000045401400058014010C005FFB7
:104310000080F8FF10B586B004462B49206888421B
:104320004FD12A480068A8B900BF2948006E40F460
:104330000010274908660846006E00F4001000903F
:1043400000BF00BF002211464A20FEF73EF94A2076
:10435000FEF72EF91D480068401C1C4908607420B7
:104360000190022002900020039004900D200590FF
:1043700001A91848FDF7F4FB174818490860012007
:1043800048601021154881600021C16080210161D1
:1043900049004161890081612021C16109020162F6
:1043A000FDF756FA20B14FF4F4710DA003F037F881
:1043B00000BF0A482067846200BF00BFE0668462D5
:1043C00000BF06B010BD000004540140880000206A
:1043D000001002400010004808040240B8220020EB
:1043E0002E2E2F5372632F73746D33326C347878A2
:1043F0005F68616C5F6D73702E6300002DE9F041A2
:1044000004460E461546FDF7BDFC074606B115B934
:104410000120BDE8F08194F87D0001286AD100BF39
:1044200094F87C00012801D10220F2E7012084F8F1
:104430007C0000BF44F8646FA580E5800020E06147
:10444000122060762C48A16808632C48A168C862D5
:104450002B48A16848630020A1688863A38854F8AA
:1044600064CC0CF11C022168A068643CFDF776FA6C
:1044700030B100BF002084F87C0000BF0120C8E7F5
:104480000021204602F0A2F9216809690843216849
:1044900008612068006840F400302168086012E07C
:1044A000FDF770FCC01BB0F57A7F0CD9D4F8800002
:1044B00040F04000C4F8800000BF002084F87C0079
:1044C00000BF0320A5E72068406900F4E020002831
:1044D000E6D02068006800F4803028B920680068C1
:1044E00040F480302168086000BF002084F87C0020
:1044F00000BF8EE702208CE76F6700083167000875
:10450000F96600084FF40061014A1180704700000D
:10451000000000200021014A1180704700000020A7
:1045200010B500240C48006B40F001000A490863F4
:10453000FDF728FC044606E0FDF724FC001B0A28D2
:1045400001D9032010BD0448006B00F008000028CA
:10455000F2D00020F6E70000000001400349096B9B
:1045600021F002010143014A11637047000001403C
:104570000349096B21F004010143014A11637047AB
:1045800000000140042808D14FF0E021096941F002
:1045900004014FF0E022116107E04FF0E0210969CA
:1045A00021F004014FF0E0221161704710B5202185
:1045B000F648FDF7D9FB08B1012000E00020F449DE
:1045C00008700221F348FDF7CFFB08B1012000E09D
:1045D0000020F14908700421EE48FDF7C5FB08B141
:1045E000012000E00020ED4908701021E748FDF7A8
:1045F000BBFB08B1012000E00020E9490870402120
:10460000E448FDF7B1FB08B1012000E00020E549D6
:1046100008708021DF48FDF7A7FB08B1012000E00A
:104620000020E14908700821D848FDF79DFB08B13A
:10463000012000E00020DD490870D54800780128FD
:104640003CD0DB480068401CD94908600020D949AB
:104650000860D7480068322841D3D5480068B0F5D3
:10466000FA6F0DD9D448007818B10020D2490870EB
:1046700002E00120D04908703320CD49086019E0DC
:10468000CB480068962801D9012000E00020C849E5
:104690000968FA2901D2012100E00021084048B14F
:1046A000C648007818B10020C449087002E0012013
:1046B000C24908700120C249087010E00020BC49BE
:1046C0000860BC480068401CBA4908600846006899
:1046D000322804D3332008600020B9490870AE485E
:1046E000007801281FD0B7480068401CB549086011
:1046F0000020B5490860B3480068322824D3B14887
:104700000068962820D9B148007840B1B0480068C8
:1047100080F01000AE4908600020AC4908703320DA
:10472000A849086010E00120A84908700020A549A8
:104730000860A5480068401CA34908600846006856
:10474000322801D3332008609448007801281FD014
:10475000A0480068401C9F49086000209E490860EE
:104760009C480068322824D39A480068962820D9AB
:104770009A48007840B19648006880F0200094493B
:10478000086000209549087033209249086010E0C5
:1047900001209249087000208E4908608E48006808
:1047A000401C8D49086008460068322801D3332038
:1047B00008607B48007801281FD089480068401CA9
:1047C00087490860002087490860854800683228CA
:1047D00024D383480068962820D98348007840B1C4
:1047E0007B48006880F080007949086000207E499D
:1047F000087033207A49086010E001207A49087077
:1048000000207749086077480068401C75490860B7
:1048100008460068322801D33320086063480078D6
:1048200001281FD071480068401C704908600020B2
:104830006F4908606D480068322824D36B480068CF
:10484000962820D96B48007840B16148006880F014
:1048500040005F49086000206649087033206349C2
:10486000086010E001206349087000205F4908607B
:104870005F480068401C5E490860084600683228AE
:1048800001D3332008604748007801281FD05A48D8
:104890000068401C58490860002058490860564884
:1048A0000068322824D354480068962820D95448F8
:1048B000007840B14648006880F480704449086040
:1048C00000204F49087033204B49086010E0012058
:1048D0004B49087000204849086048480068401C5F
:1048E0004649086008460068322801D33320086032
:1048F0002D48007801281FD042480068401C4149DB
:1049000008600020404908603E480068322824D3EF
:104910003C480068962820D93C48007840B12C4893
:10492000006880F400702A49086000203749087048
:1049300033203449086010E0012034490870002019
:104940003049086030480068401C2F49086008461C
:104950000068322801D3332008602D48007828B140
:104960002C480068401C2B49086002E000202949BF
:1049700008602948007828B128480068401C274969
:10498000086002E000202549086010BD00040048CE
:104990002A000020000C00482B0000202C000020E2
:1049A0002D0000202E000020310000202F000020CC
:1049B0004000002044000020330000203000002090
:1049C000320000205000002054000020340000205D
:1049D00048000020580000205C0000203500002026
:1049E00060000020640000203600002070000020DD
:1049F0007400002037000020680000206C000020B8
:104A000038000020800000208400002039000020B1
:104A10002900002014000020280000201800002099
:104A200070B504462546681EB0F1807F01D3012091
:104A30000FE0681E4FF0E02148610F214FF0FF307A
:104A400001F016FC00204FF0E0218861072008618A
:104A5000002070BD10B5FFF7A9FD10BD10B50346CD
:104A6000002200BF93F83C00012801D1022010BDB4
:104A7000012083F83C0000BF22F0FF00CC6840EA30
:104A8000040222F440708C6840EA040222F4806040
:104A90004C6840EA040222F400600C6840EA040218
:104AA00022F480500C6940EA040222F400504C6960
:104AB00040EA040222F480408C6A40EA040222F4B4
:104AC00070200C8B40EA04420F4C1868A04203D0BF
:104AD0000E4C1868A0420ED122F470008C8C40EA73
:104AE000045222F08070CC6940EA040222F0007087
:104AF0000C6A40EA04021868426400BF002083F890
:104B00003C0000BF00BFB2E7002C01400034014070
:104B100030B502460B4600BF92F83C00012801D197
:104B2000022030BD012082F83C0000BF022082F844
:104B30003D001068416810688468114D1068A842F3
:104B400003D0104D1068A84203D121F470015868B9
:104B5000014321F070011868014324F08004986833
:104B600004431068416010688460012082F83D00B1
:104B700000BF002082F83C0000BF00BFD1E700006A
:104B8000002C01400034014010B504460CB901204E
:104B900010BD94F83D0028B9002084F83C00204660
:104BA00000F00CF8022084F83D00211D206801F07F
:104BB000D3FE012084F83D000020E9E708B51B4A38
:104BC000016891420DD100BF1949896D41F0100172
:104BD000174A91651146896D01F01001009100BFDF
:104BE00023E0144A016891420DD100BF1049096EBB
:104BF00041F400310E4A11661146096E01F400318C
:104C0000009100BF11E00C4A016891420DD100BF34
:104C10000749096E41F48021054A11661146096E63
:104C200001F48021009100BF00BF08BD00100040CA
:104C300000100240004401400048014010B586B019
:104C400004461349206888420ED14020019002207A
:104C500002900020039004900E20059001A94FF0CF
:104C60009040FCF77DFF11E00A49206888420DD191
:104C700080200190022002900020039004900E20DA
:104C8000059001A94FF09040FCF76AFF06B010BDF7
:104C9000004401400048014070B504460D461646E8
:104CA00000BF94F83C00012801D1022070BD012012
:104CB00084F83C0000BF022084F83D000C2E51D047
:104CC00005DC4EB1042E1ED0082E7AD133E0102E12
:104CD00060D0142EF9D175E02946206801F0B4FEA9
:104CE0002068806940F00800216888612068806938
:104CF00020F00400216888612068806929690843E0
:104D00002168886177E02946206801F0F3FE206879
:104D1000806940F40060216888612068806920F41F
:104D200080602168886120688069296940EA0120E3
:104D3000216888615FE02946206801F035FF20681E
:104D4000C06940F008002168C8612068C06920F08F
:104D500004002168C8612068C06929690843216886
:104D6000C86148E02946206801F078FF2068C069E2
:104D700040F400602168C8612068C06920F4806048
:104D80002168C8612068C069296940EA012021685A
:104D9000C86130E02946206801F09AFF2068406D24
:104DA00040F00800216848652068406D20F004004C
:104DB000216848652068406D296908432168486575
:104DC00019E017E02946206801F0BAFF2068406D1D
:104DD00040F40060216848652068406D20F48060E0
:104DE000216848652068406D296940EA01202168F2
:104DF000486500E000BF00BF012084F83D0000BF0F
:104E0000002084F83C0000BF00BF4FE710B5044607
:104E10000CB9012010BD94F83D0028B9002084F899
:104E20003C00204600F00CF8022084F83D00211DD3
:104E3000206801F091FD012084F83D000020E9E7A1
:104E40007047000030B504460D460122294620680F
:104E500001F0E8FD1A49206888420FD019492068FE
:104E600088420BD018492068884207D0174920682B
:104E7000884203D016492068884201D1012000E011
:104E8000002028B12068406C40F40040216848644C
:104E9000206880680F490840062805D0206880688F
:104EA0000840B0F5803F01D1012000E0002028B982
:104EB0002068006840F0010021680860002030BDD3
:104EC000002C0140003401400040014000440140FA
:104ED000004801400700010010B504460CB901204C
:104EE00010BDA06900B100E000BF94F8710028B9BE
:104EF000002084F87000204600F02AF8242084F86E
:104F000071002068006820F00100216808602046D8
:104F100002F004F8012800D1E2E7606A10B12046EF
:104F200001F046FF2068406820F490402168486006
:104F30002068806820F02A00216888602068006866
:104F400040F0010021680860204601F0ADFFC7E78E
:104F500010B586B004461249206888421DD100BFB2
:104F60001048006E40F480400E4908660846006E06
:104F700000F48040009000BF00BF4FF4F05001905B
:104F80000220029000200390032004900720059047
:104F900001A94FF09040FCF7E3FD06B010BD000002
:104FA000003801400010024000BFFEE710B5054880
:104FB000FCF7C2FF28B10448FCF755FF024800F097
:104FC0004FF810BDBC2400200825002010B5024871
:104FD000FCF76AFF10BD00009C21002010B50248BC
:104FE000FCF79BFF10BD00009C21002010B502487B
:104FF000FCF75AFF10BD0000E821002010B5024860
:10500000FCF78BFF10BD0000E821002010B503481D
:10501000FCF729FF00F004F810BD0000082500206F
:1050200010B50C48FCF788FF98B90B48094908608F
:105030000A4848600021074881600121C1600021C1
:1050400001614161C161016200F04EF80148FCF765
:1050500077FF10BD0825002000580040262611903B
:1050600038B504461D492068884235D100BF1C4828
:10507000C06C40F002001A49C8640846C06C00F0D9
:105080000200009000BF00BF00BF0846C06C40F0A7
:105090000200C8640846C06C00F00200009000BF27
:1050A00000BF4FF440610F48FCF7B6FC0C48806B22
:1050B00040F480000A4988630846806B20F4800031
:1050C00088630846806D20F4800088652120FDF704
:1050D00061FA2220FDF75EFA38BD0000005800405A
:1050E000001002400004004810B5A8B004462F4943
:1050F0002068884258D180200190C001169001A8F4
:10510000FDF75EFF00BF2A48C06C40F0020028494E
:10511000C8640846C06C00F00200009000BF00BFE9
:1051200000BF0846C06C40F00200C8640846C06C6E
:1051300000F00200009000BF00BF4FF440602390D9
:1051400012202490012025900320269004202790EF
:1051500023A91848FCF704FD00BF1548806D40F4F2
:105160008000134988650846806D00F48000009037
:1051700000BF00BF0846806B40F48000886308468B
:10518000806B20F480008863002211462120FDF707
:105190001CFA2120FDF70CFA002211462220FDF70F
:1051A00014FA2220FDF704FA28B010BD0058004080
:1051B00000100240000400482DE9FE4304460D465D
:1051C00016461F46DDF828904FF000080948006891
:1051D00033462A462146CDE9007902900648FCF77D
:1051E00017FF8046B8F1000F01D0FFF70FFF4046D0
:1051F00000F004B8E8000020E821002006BCBDE86B
:10520000F88300002DE9FE4304460D4616461F466E
:10521000DDF828904FF000080948006833462A4618
:105220002146CDE9007902900648FCF7C5FF80468B
:10523000B8F1000F01D0FFF7E9FE404600F004B8D6
:10524000E8000020E821002006BCBDE8F88370B526
:105250000546AC6A2068406840F400402168486018
:105260000020A16B8863E16B886394F8410060289B
:1052700006D1202084F841002046FCF7F2FD02E030
:105280002046FCF758FE70BD10B50246002001F024
:1052900001034BB140F0420092F8413003F0280383
:1052A000282B01D040F0B00001F00203022B09D1FD
:1052B00040F0440092F8413003F02803282B01D03D
:1052C00040F0B00001F00403042B01D140F0B8001D
:1052D00001F01103112B01D140F0900001F01203F5
:1052E000122B01D140F0200001F01203122B01D14A
:1052F00040F0400013681B6883431468236010BDAE
:1053000001688969C1F3400111B10021026891620D
:105310000168896901F0010129B90168896941F0D1
:1053200001010268916170472DE9F0470446894602
:1053300094F8410000F02800282850D120688069A6
:10534000C0F300472068806900F47E00050C2068E7
:105350008068C0F309062068C06800F0FE08E068B5
:1053600002282DD105F00600062101EAE611884247
:1053700016D13546A06C401CA064A06C022836D122
:105380000020A06408202168C86100BF002084F8C4
:10539000400000BF2A4639462046FCF763FD26E060
:1053A000454604212046FFF76FFF00BF002084F828
:1053B000400000BF2A4639462046FCF753FD16E060
:1053C00004212046FFF760FF00BF002084F8400062
:1053D00000BF2A4639462046FCF744FD07E0082076
:1053E0002168C86100BF002084F8400000BFBDE80C
:1053F000F087000070B504460D46002084F8420096
:105400004248E06200206085606C2843606494F844
:105410004100282807D094F84100292803D094F8A7
:1054200041002A280BD103212046FFF72DFF282019
:1054300084F8410000202063354860630DE00721B7
:105440002046FFF721FF94F84100602802D0202079
:1054500084F841000020206360632068006800F445
:105460008040B0F5804F19D12068006820F480405A
:1054700021680860A06B002847D02648A16B88638C
:1054800000BF002084F8400000BFA06BFCF733F998
:1054900000283AD0A06B816B884736E0206800680E
:1054A00000F40040B0F5004F17D12068006820F4E8
:1054B000004021680860E06B38B31648E16B8863F0
:1054C00000BF002084F8400000BFE06BFCF713F938
:1054D000D8B1E06B816B884717E094F841006028F1
:1054E0000BD1202084F8410000BF002084F8400048
:1054F00000BF2046FCF7B5FC07E000BF002084F8A1
:10550000400000BF2046FCF716FD70BD0000FFFF05
:10551000B15800084F52000870B504460D461848AF
:10552000E06200202063202084F84100002084F8FD
:105530004200606305F0040090B12068406AC1B287
:10554000626A501C60621170208D48B1208D401E2F
:105550002085608D401E6085606C40F004006064B2
:1055600007212046FFF790FE10202168C86100BF88
:10557000002084F8400000BF2046FCF747FD70BDC6
:105580000000FFFF70B504460D4620202168C86169
:1055900008202168C86107212046FFF775FE2068B2
:1055A000406840F4004021684860206840684149F4
:1055B0000840216848602046FFF7A2FE2068006886
:1055C00000F48040B0F5804F06D02068006800F4F9
:1055D0000040B0F5004F12D1E06B08B9A06B70B17C
:1055E0002068006800F48040B0F5804F03D1A06BC4
:1055F0000068406802E0E06B00684068608505F084
:10560000040070B12068406AC1B2626A501C6062D6
:105610001170208D28B1208D401E2085608D401E88
:105620006085608D18B1606C40F0040060640020FB
:10563000206384F842006063606C60B1616C204656
:10564000FFF7D8FE94F84100282831D1294620469A
:10565000FFF762FF2CE0E06A10F5803F0DD016489E
:10566000E062202084F8410000BF002084F8400060
:1056700000BF2046FCF7CAFC1AE094F8410022283B
:105680000BD1202084F8410000BF002084F84000A6
:1056900000BF2046FCF704FF0AE0202084F8410008
:1056A00000BF002084F8400000BF2046FCF7F9FE50
:1056B00070BD000000E800FE0000FFFF10B50446CA
:1056C000002084F8420094F84100292811D12820B4
:1056D00084F841002120206301212046FFF7D4FDFA
:1056E00000BF002084F8400000BF2046FCF7D9FE30
:1056F00014E094F841002A2810D1282084F84100B1
:105700002220206302212046FFF7BEFD00BF0020BB
:1057100084F8400000BF2046FCF7C2FE10BD000028
:1057200070B504460D46164620688069C0F3001027
:1057300000283DD017E0681CA8B1FCF723FB801BB4
:10574000A84200D87DB9606C40F020006064202041
:1057500084F84100002084F8420000BF84F8400033
:1057600000BF012070BD20688069C0F34010002890
:10577000E1D010202168C86120202168C86120463E
:10578000FFF7BEFD206840680A490840216848606C
:10579000606C40F004006064202084F84100002028
:1057A00084F8420000BF84F8400000BF0120D9E720
:1057B0000020D7E700E800FE2DE9F84304468946BB
:1057C00015461E46DDE908781948F2B2002349461D
:1057D0000090204600F00CF942463946204600F081
:1057E0007BF910B10120BDE8F883012E03D1E8B2A6
:1057F000216888620EE0C5F307202168886242466E
:105800003946204600F068F908B10120EBE7E8B21C
:10581000216888623B46002240212046CDF8008066
:1058200000F000F908B10120DDE70020DBE700000F
:10583000002000802DE9F8430446894615461E469F
:10584000DDE908781948F2B2C302494600902046C3
:1058500000F0CEF842463946204600F03DF910B13E
:105860000120BDE8F883012E03D1E8B221688862E7
:105870000EE0C5F30720216888624246394620467B
:1058800000F02AF908B10120EBE7E8B2216888624C
:105890003B46002280212046CDF8008000F0C2F86F
:1058A00008B10120DDE70020DBE7000000200080D8
:1058B00070B504460D46164600BF94F84000012816
:1058C00001D1022070BD012084F8400000BF05F026
:1058D000100098B306F0100080B3608D30BBE06A12
:1058E000B0F1007F03D0E06AB0F1007F08D194F8F6
:1058F0004100282804D129462046FFF70DFE66E026
:10590000E06A10F5803F0DD094F84100292809D1B4
:1059100010202168C8612046FFF7F2FC2046FFF7FF
:10592000CDFE54E010202168C86150E010202168AD
:10593000C861606C40F00400606448E0FFE705F077
:105940000400D8B106F00400C0B1608D60B12068D9
:10595000406AC1B2626A501C60621170208D401EA4
:105960002085608D401E6085608D30BBE06A10F53B
:10597000803F2CD02046FFF7A1FE28E005F008006C
:1059800038B106F0080020B129462046FFF7CCFCCC
:105990001DE005F0020080B106F0020068B1608DE4
:1059A00060B1616A481C6062087821688862608D15
:1059B000401E6085208D401E208508E0E06AB0F121
:1059C000807F01D0E06A10B92046FFF777FE05F02E
:1059D000200030B106F0200018B129462046FFF71C
:1059E000D1FD00BF002084F8400000BF00BF69E780
:1059F000F0B5059C05686D684FF4806606EA54565C
:105A000066F0FC2646F4C046B543C1F309064FF4E0
:105A10007F0707EA02473E431E4326433543066895
:105A20007560F0BD2DE9F04104460E4617461D464F
:105A3000DDF8188019E0681CB8B1FCF7A3F9A0EBF9
:105A40000800A84200D885B9606C40F0200060646E
:105A5000202084F84100002084F8420000BF84F830
:105A6000400000BF0120BDE8F0812068806930401F
:105A7000B04201D1012000E00020B842DBD000207C
:105A8000F1E770B504460D4616461DE0324629463C
:105A90002046FFF745FE08B1012070BDFCF772F902
:105AA000801BA84200D87DB9606C40F02000606483
:105AB000202084F84100002084F8420000BF84F8D0
:105AC000400000BF0120E8E720688069C0F3401073
:105AD0000028DBD00020E0E770B504460D461646EE
